{
  "contractName": "Battleship",
  "abi": [
    {
      "inputs": [],
      "stateMutability": "nonpayable",
      "type": "constructor"
    },
    {
      "inputs": [
        {
          "internalType": "string",
          "name": "err",
          "type": "string"
        }
      ],
      "name": "ErrorOut",
      "type": "error"
    },
    {
      "anonymous": false,
      "inputs": [
        {
          "indexed": true,
          "internalType": "uint256",
          "name": "_gameId",
          "type": "uint256"
        },
        {
          "indexed": false,
          "internalType": "address",
          "name": "_accused",
          "type": "address"
        },
        {
          "indexed": false,
          "internalType": "address",
          "name": "_accuser",
          "type": "address"
        }
      ],
      "name": "AccusationTriggered",
      "type": "event"
    },
    {
      "anonymous": false,
      "inputs": [
        {
          "indexed": true,
          "internalType": "uint256",
          "name": "_gameId",
          "type": "uint256"
        },
        {
          "indexed": false,
          "internalType": "uint256",
          "name": "_amount",
          "type": "uint256"
        }
      ],
      "name": "AmountDecided",
      "type": "event"
    },
    {
      "anonymous": false,
      "inputs": [
        {
          "indexed": true,
          "internalType": "uint256",
          "name": "_gameId",
          "type": "uint256"
        },
        {
          "indexed": false,
          "internalType": "uint256",
          "name": "_amount",
          "type": "uint256"
        },
        {
          "indexed": false,
          "internalType": "address",
          "name": "_from",
          "type": "address"
        }
      ],
      "name": "AmountToSpend",
      "type": "event"
    },
    {
      "anonymous": false,
      "inputs": [
        {
          "indexed": true,
          "internalType": "uint256",
          "name": "_gameId",
          "type": "uint256"
        },
        {
          "indexed": false,
          "internalType": "address",
          "name": "_attacker",
          "type": "address"
        },
        {
          "indexed": false,
          "internalType": "address",
          "name": "_opponent",
          "type": "address"
        },
        {
          "indexed": false,
          "internalType": "uint256",
          "name": "_row",
          "type": "uint256"
        },
        {
          "indexed": false,
          "internalType": "uint256",
          "name": "_col",
          "type": "uint256"
        }
      ],
      "name": "AttackOpp",
      "type": "event"
    },
    {
      "anonymous": false,
      "inputs": [
        {
          "indexed": false,
          "internalType": "string",
          "name": "_result",
          "type": "string"
        },
        {
          "indexed": false,
          "internalType": "address",
          "name": "_attacker",
          "type": "address"
        },
        {
          "indexed": false,
          "internalType": "uint256",
          "name": "_gameId",
          "type": "uint256"
        }
      ],
      "name": "AttackRes",
      "type": "event"
    },
    {
      "anonymous": false,
      "inputs": [
        {
          "indexed": true,
          "internalType": "address",
          "name": "_first",
          "type": "address"
        },
        {
          "indexed": true,
          "internalType": "address",
          "name": "_second",
          "type": "address"
        },
        {
          "indexed": false,
          "internalType": "uint256",
          "name": "_amountTemp",
          "type": "uint256"
        },
        {
          "indexed": true,
          "internalType": "uint256",
          "name": "_gameId",
          "type": "uint256"
        },
        {
          "indexed": false,
          "internalType": "uint256",
          "name": "_boardDim",
          "type": "uint256"
        },
        {
          "indexed": false,
          "internalType": "uint256",
          "name": "_numberOfShips",
          "type": "uint256"
        }
      ],
      "name": "GameCreated",
      "type": "event"
    },
    {
      "anonymous": false,
      "inputs": [
        {
          "indexed": true,
          "internalType": "uint256",
          "name": "_gameId",
          "type": "uint256"
        },
        {
          "indexed": false,
          "internalType": "address",
          "name": "_winner",
          "type": "address"
        },
        {
          "indexed": false,
          "internalType": "address",
          "name": "_loser",
          "type": "address"
        },
        {
          "indexed": false,
          "internalType": "string",
          "name": "_cause",
          "type": "string"
        }
      ],
      "name": "GameEnd",
      "type": "event"
    },
    {
      "anonymous": false,
      "inputs": [
        {
          "indexed": true,
          "internalType": "address",
          "name": "_first",
          "type": "address"
        },
        {
          "indexed": true,
          "internalType": "address",
          "name": "_second",
          "type": "address"
        }
      ],
      "name": "GameStarted",
      "type": "event"
    },
    {
      "anonymous": false,
      "inputs": [
        {
          "indexed": true,
          "internalType": "address",
          "name": "_from",
          "type": "address"
        },
        {
          "indexed": false,
          "internalType": "uint256",
          "name": "_value",
          "type": "uint256"
        }
      ],
      "name": "UintOutput",
      "type": "event"
    },
    {
      "inputs": [
        {
          "internalType": "uint256",
          "name": "",
          "type": "uint256"
        }
      ],
      "name": "listOfGames",
      "outputs": [
        {
          "internalType": "address",
          "name": "first",
          "type": "address"
        },
        {
          "internalType": "address",
          "name": "second",
          "type": "address"
        },
        {
          "internalType": "uint256",
          "name": "boardDim",
          "type": "uint256"
        },
        {
          "internalType": "uint256",
          "name": "amount",
          "type": "uint256"
        },
        {
          "internalType": "address",
          "name": "amountRequester",
          "type": "address"
        },
        {
          "internalType": "uint256",
          "name": "tempAmount",
          "type": "uint256"
        },
        {
          "internalType": "bytes32",
          "name": "merkleFirst",
          "type": "bytes32"
        },
        {
          "internalType": "bytes32",
          "name": "merkleSecond",
          "type": "bytes32"
        },
        {
          "internalType": "uint256",
          "name": "ethFirst",
          "type": "uint256"
        },
        {
          "internalType": "uint256",
          "name": "ethSecond",
          "type": "uint256"
        },
        {
          "internalType": "uint256",
          "name": "firstNumShips",
          "type": "uint256"
        },
        {
          "internalType": "uint256",
          "name": "secondNumShips",
          "type": "uint256"
        },
        {
          "internalType": "uint256",
          "name": "accusationTimeout",
          "type": "uint256"
        },
        {
          "internalType": "address",
          "name": "accusedPlayer",
          "type": "address"
        }
      ],
      "stateMutability": "view",
      "type": "function",
      "constant": true
    },
    {
      "inputs": [],
      "name": "openGames",
      "outputs": [
        {
          "internalType": "uint256",
          "name": "",
          "type": "uint256"
        }
      ],
      "stateMutability": "view",
      "type": "function",
      "constant": true
    },
    {
      "inputs": [
        {
          "internalType": "uint256",
          "name": "_boardDim",
          "type": "uint256"
        },
        {
          "internalType": "uint256",
          "name": "_numberOfShips",
          "type": "uint256"
        }
      ],
      "name": "CreateGame",
      "outputs": [],
      "stateMutability": "nonpayable",
      "type": "function"
    },
    {
      "inputs": [
        {
          "internalType": "bool",
          "name": "_isRand",
          "type": "bool"
        },
        {
          "internalType": "uint256",
          "name": "_gameIndex",
          "type": "uint256"
        }
      ],
      "name": "JoinGame",
      "outputs": [],
      "stateMutability": "nonpayable",
      "type": "function"
    },
    {
      "inputs": [
        {
          "internalType": "uint256",
          "name": "_gameId",
          "type": "uint256"
        },
        {
          "internalType": "uint256",
          "name": "_amount",
          "type": "uint256"
        }
      ],
      "name": "AmountCommit",
      "outputs": [],
      "stateMutability": "nonpayable",
      "type": "function"
    },
    {
      "inputs": [
        {
          "internalType": "uint256",
          "name": "_gameId",
          "type": "uint256"
        }
      ],
      "name": "AcceptedAmount",
      "outputs": [],
      "stateMutability": "nonpayable",
      "type": "function"
    },
    {
      "inputs": [
        {
          "internalType": "uint256",
          "name": "_gameId",
          "type": "uint256"
        }
      ],
      "name": "SendEther",
      "outputs": [],
      "stateMutability": "payable",
      "type": "function",
      "payable": true
    },
    {
      "inputs": [
        {
          "internalType": "uint256",
          "name": "_gameId",
          "type": "uint256"
        },
        {
          "internalType": "uint256",
          "name": "_row",
          "type": "uint256"
        },
        {
          "internalType": "uint256",
          "name": "_col",
          "type": "uint256"
        }
      ],
      "name": "AttackOpponent",
      "outputs": [],
      "stateMutability": "nonpayable",
      "type": "function"
    },
    {
      "inputs": [
        {
          "internalType": "uint256",
          "name": "_gameId",
          "type": "uint256"
        },
        {
          "internalType": "string",
          "name": "_attackRes",
          "type": "string"
        },
        {
          "internalType": "bytes32",
          "name": "_attackHash",
          "type": "bytes32"
        },
        {
          "internalType": "bytes32[]",
          "name": "merkleProof",
          "type": "bytes32[]"
        }
      ],
      "name": "MerkleProofAttack",
      "outputs": [],
      "stateMutability": "payable",
      "type": "function",
      "payable": true
    },
    {
      "inputs": [
        {
          "internalType": "string",
          "name": "str1",
          "type": "string"
        },
        {
          "internalType": "string",
          "name": "str2",
          "type": "string"
        }
      ],
      "name": "compare",
      "outputs": [
        {
          "internalType": "bool",
          "name": "",
          "type": "bool"
        }
      ],
      "stateMutability": "pure",
      "type": "function",
      "constant": true
    },
    {
      "inputs": [
        {
          "internalType": "uint256",
          "name": "_gameId",
          "type": "uint256"
        }
      ],
      "name": "triggerAccusation",
      "outputs": [],
      "stateMutability": "nonpayable",
      "type": "function"
    },
    {
      "inputs": [],
      "name": "balance",
      "outputs": [
        {
          "internalType": "uint256",
          "name": "",
          "type": "uint256"
        }
      ],
      "stateMutability": "view",
      "type": "function",
      "constant": true
    },
    {
      "inputs": [
        {
          "internalType": "uint256",
          "name": "_gameId",
          "type": "uint256"
        }
      ],
      "name": "getList",
      "outputs": [
        {
          "components": [
            {
              "internalType": "address",
              "name": "first",
              "type": "address"
            },
            {
              "internalType": "address",
              "name": "second",
              "type": "address"
            },
            {
              "internalType": "uint256",
              "name": "boardDim",
              "type": "uint256"
            },
            {
              "internalType": "uint256",
              "name": "amount",
              "type": "uint256"
            },
            {
              "internalType": "address",
              "name": "amountRequester",
              "type": "address"
            },
            {
              "internalType": "uint256",
              "name": "tempAmount",
              "type": "uint256"
            },
            {
              "internalType": "bytes32",
              "name": "merkleFirst",
              "type": "bytes32"
            },
            {
              "internalType": "bytes32",
              "name": "merkleSecond",
              "type": "bytes32"
            },
            {
              "internalType": "uint256",
              "name": "ethFirst",
              "type": "uint256"
            },
            {
              "internalType": "uint256",
              "name": "ethSecond",
              "type": "uint256"
            },
            {
              "internalType": "uint256",
              "name": "firstNumShips",
              "type": "uint256"
            },
            {
              "internalType": "uint256",
              "name": "secondNumShips",
              "type": "uint256"
            },
            {
              "internalType": "uint256",
              "name": "accusationTimeout",
              "type": "uint256"
            },
            {
              "internalType": "address",
              "name": "accusedPlayer",
              "type": "address"
            }
          ],
          "internalType": "struct Battleship.Game",
          "name": "",
          "type": "tuple"
        }
      ],
      "stateMutability": "view",
      "type": "function",
      "constant": true
    },
    {
      "inputs": [
        {
          "internalType": "bytes32",
          "name": "_merkleroot",
          "type": "bytes32"
        },
        {
          "internalType": "uint256",
          "name": "_gameId",
          "type": "uint256"
        }
      ],
      "name": "SendMerkleRoot",
      "outputs": [],
      "stateMutability": "nonpayable",
      "type": "function"
    },
    {
      "inputs": [
        {
          "internalType": "string",
          "name": "inString",
          "type": "string"
        }
      ],
      "name": "checkStringNotEmpty",
      "outputs": [
        {
          "internalType": "bool",
          "name": "",
          "type": "bool"
        }
      ],
      "stateMutability": "pure",
      "type": "function",
      "constant": true
    },
    {
      "inputs": [
        {
          "internalType": "uint256",
          "name": "_gameId",
          "type": "uint256"
        }
      ],
      "name": "LeaveGame",
      "outputs": [],
      "stateMutability": "nonpayable",
      "type": "function"
    }
  ],
  "bytecode": "0x6080806040523461001b5760006001556120ab90816100218239f35b600080fdfe6080604052600436101561001257600080fd5b60003560e01c80628bdd7d14611b2f5780630247bd7514611a435780631ab5b383146118585780633a96fdd7146117fd5780634dd99ed1146115cd57806364f238a91461142957806378bacf84146110f4578063810ff1fd14610cbd578063925def7114610b90578063b69ef8a814610b74578063cd0d37311461056d578063efdb129e1461036e578063f2415a3214610330578063f4023d281461025c578063fac196e61461023e5763fb205000146100cb57600080fd5b34610239576040366003190112610239576004356024359060005482108061021d575b806101fe575b806101b9575b61010390611e82565b61010c82611e25565b50546001600160a01b03919033908316036101a657600661012c84611e25565b5001555b600761013b83611e25565b500154151580610190575b61014c57005b60016101648261015b85611e25565b50541693611e25565b50015416907f55b25d7f9b5bf8ea934ba7079455d2ba00c68ea7e66c13695275f6b75b95e5f8600080a3005b50600661019c83611e25565b5001541515610146565b60076101b184611e25565b500155610130565b506101036101c683611e25565b5054336001600160a01b03918216149081156101e5575b5090506100fa565b90506101f084611e25565b5060010154163314386101dd565b5061020882611e25565b50600101546001600160a01b031615156100f4565b5061022782611e25565b50546001600160a01b031615156100ee565b600080fd5b34610239576000366003190112610239576020600154604051908152f35b3461023957602036600319011261023957600435600054811015610239576102866101c091611e25565b5060018060a01b0380825416918160018201541691600282015460038301548260048501541660058501546006860154600787015491600888015493600989015495600a8a015497600b8b015499600d600c8d01549c0154169b60206040519e8f908152015260408d015260608c015260808b015260a08a015260c089015260e08801526101008701526101208601526101408501526101608401526101808301526101a0820152f35b346102395760203660031901126102395760043567ffffffffffffffff8111610239576103636020913690600401611dce565b511515604051908152f35b346102395761037c36611d5d565b6040519161038983611d73565b3383526000602084015260408301526000606083015260006080830152600060a0830152600060c0830152600060e08301526000610100830152600061012083015280610140830152610160820152600061018082015260006101a0820152600054680100000000000000008110156105575780600161040c9201600055611e25565b61054157815181546001600160a01b03199081166001600160a01b0392831617835560208401516001808501805484169285169290921790915560408501516002850155606085015160038501556080850151600485018054841691851691909117905560a0850151600585015560c0850151600685015560e0850151600785015561010085015160088501556101208501516009850155610140850151600a850155610160850151600b850155610180850151600c8501556101a090940151600d93909301805490911692909116919091179055546104eb90611e73565b600155600054600019810190811161052b576040519081527f98fe6bfadae13408aaa640b94cce01ef446d3cb316585dd37dcfc4ebe23f732960203392a2005b634e487b7160e01b600052601160045260246000fd5b634e487b7160e01b600052600060045260246000fd5b634e487b7160e01b600052604160045260246000fd5b608036600319011261023957600435602467ffffffffffffffff81358181116102395761059e903690600401611dce565b91606435938285116102395736602386011215610239578460040135928311610b5f5760059083821b95604051966020956105db8783018a611dac565b88528486890191830101913683116102395785879101915b838310610b4f5750505050600054811080610b33575b80610b14575b80610acf575b61061e90611e82565b6000926044355b875185101561065f57610659908686861b8a0101511860405187810191825287815261065081611d90565b51902094611e73565b93610625565b90868661066b85611e25565b50546001600160a01b03949033908616036108dc5760405182810191825282815261069581611d90565b5190209060066106a487611e25565b500154906040519080820192835281526106bd81611d90565b5190200361082b5761071c907fad935eddb312669e1ca7d5b3712ab4db975dc97d4dc4cb2cb5a997991dd98910858560016106f783611e25565b5001541661070b6040519283928684611f63565b0390a1610716611fa5565b90612000565b6107e9575b600a61072c84611e25565b5001541561073657005b81600161074285611e25565b50015416600361075185611e25565b500154918260011b92808404600214901517156107d55750600080809381938282156107cc575bf1156107c0578060008051602061205683398151915291600161079a85611e25565b50015416906107a884611e25565b505416906107bb60405192839283611fc2565b0390a2005b6040513d6000823e3d90fd5b506108fc610778565b634e487b7160e01b60009081526011600452fd5b600a6107f484611e25565b500154600019810190811161081657600a61080e85611e25565b500155610721565b50634e487b7160e01b60009081526011600452fd5b508260008051602061205683398151915283600161084884611e25565b500154168461085684611e25565b5054169061086960405192839283611ed3565b0390a281600161087885611e25565b50015416600361088785611e25565b500154908160011b91808304600214901517156108c757600080809381938282156108be575bf1610721576040513d6000823e3d90fd5b506108fc6108ad565b82634e487b7160e01b60005260116004526000fd5b6040518281019182528281526108f181611d90565b51902090600761090087611e25565b5001549060405190808201928352815261091981611d90565b51902003610a3657610964907fad935eddb312669e1ca7d5b3712ab4db975dc97d4dc4cb2cb5a997991dd98910858561095182611e25565b50541661070b6040519283928684611f63565b610a09575b600b61097484611e25565b5001541561097e57005b8161098884611e25565b505416600361099685611e25565b500154918260011b92808404600214901517156107d5575060008080938193828215610a00575bf1156107c05780600080516020612056833981519152916109dd84611e25565b5054169060016109ec85611e25565b50015416906107bb60405192839283611fc2565b506108fc6109bd565b600b610a1484611e25565b500154600019810190811161081657600b610a2e85611e25565b500155610969565b508260008051602061205683398151915283610a5183611e25565b505416846001610a6085611e25565b5001541690610a7460405192839283611ed3565b0390a281610a8184611e25565b5054166003610a8f85611e25565b500154908160011b91808304600214901517156108c75760008080938193828215610ac6575bf1610969576040513d6000823e3d90fd5b506108fc610ab5565b5061061e610adc82611e25565b5054336001600160a01b0391821614908115610afb575b509050610615565b9050610b0683611e25565b506001015416331488610af3565b50610b1e81611e25565b50600101546001600160a01b0316151561060f565b50610b3d81611e25565b50546001600160a01b03161515610609565b82358152918101918791016105f3565b50634e487b7160e01b60009081526041600452fd5b3461023957600036600319011261023957602047604051908152f35b602036600319011261023957600435600054811080610ca1575b80610c82575b80610c3d575b610bbf90611e82565b3415610c0b57610bce81611e25565b5054336001600160a01b0390911603610bf657610bea90611e25565b50600834910155600080f35b610bff90611e25565b50600934910155600080f35b60405162461bcd60e51b815260206004820152600a6024820152694574682061726520302160b01b6044820152606490fd5b50610bbf610c4a82611e25565b5054336001600160a01b0391821614908115610c69575b509050610bb6565b9050610c7483611e25565b506001015416331483610c61565b50610c8c81611e25565b50600101546001600160a01b03161515610bb0565b50610cab81611e25565b50546001600160a01b03161515610baa565b346102395760403660031901126102395760043580159081158103610239576024918235916001908154156110bf57600093600093610fac575b50839080610fa4575b610de3575b610d58575b505015610d1357005b606490601d60405191631f443c7360e31b8352602060048401528201527f4e6f742061626c6520746f2066696e6420616e206f70656e2067616d650000006044820152fd5b610d6182611e25565b50546001600160a01b0390811691610d7884611e25565b50015416907f876ac2516429760d6f5b364659f4881cf65156ff3dd68d19b720d7f45d31ebd660606005610dab86611e25565b5001546002610db987611e25565b500154600a610dc788611e25565b5001549060405192835260208301526040820152a48280610d0a565b506000194301438111610f455740604051610dfd81611d90565b602091828252828201928036853760005b818110610f6f575050505190208154908115610f5a5706818101809111610f4557818085926000925b610e44575b505050610d05565b909192600054841015610f3c575081610e5c84611e25565b5001546001600160a01b039081161580610f27575b80610f1e575b15610e985750610e89610e8f91611ec6565b92611e73565b90859281610e37565b8392610ea5829395611e25565b50015416159081610f08575b5080610eff575b610ec657610e8f8391611e73565b829450809350610ed69150611e25565b500180546001600160a01b031916331790558154610ef390611ec6565b82558182858281610e3c565b50828214610eb8565b9050610f1382611e25565b505416151587610eb1565b50828211610e77565b5080610f3285611e25565b5054161515610e71565b92829150610e3c565b84634e487b7160e01b60005260116004526000fd5b85634e487b7160e01b60005260126004526000fd5b8351811015610f8f578083610f8a921a838287010153611e73565b610e0e565b88634e487b7160e01b60005260326004526000fd5b508015610d00565b92509250610fbd6000548310611e82565b81610fc781611e25565b50546001600160a01b03908116156110545782610fe383611e25565b5001541661101c57610ff58291611e25565b500180546001600160a01b03191633179055805461101290611ec6565b8155809285610cf7565b604051631f443c7360e31b8152602060048201526010818701526f47616d65206973206e6f74204672656560801b6044820152606490fd5b604051631f443c7360e31b8152602060048201526039818801527f596f752063616e2774206a6f696e20746869732067616d652c2062656361757360448201527f652074686572652773206e6f20706c61796572206865726521000000000000006064820152608490fd5b604051631f443c7360e31b815260206004820152600d818701526c4e6f206f70656e2067616d657360981b6044820152606490fd5b346102395760203660031901126102395760043560005481108061140d575b806113ee575b806113a9575b61112890611e82565b61113181611e25565b506001908101546001600160a01b03903390821603611395578061115484611e25565b5054165b600c61116385611e25565b5001541561131057600c61117685611e25565b50015443106112d0575080600d61118c85611e25565b50015416818361119b86611e25565b500154160361127e57806111ae84611e25565b50541660036111bc85611e25565b5001549081841b918083046002149015171561052b5760008080938193828215611275575bf1156107c0576000805160206120568339815191529160c0915b8061120586611e25565b5054169161121286611e25565b50015416604051918252602082015260606040820152603460608201527f54696d656f75742c207468652067616d6520656e646564206265636175736520608082015273736f6d656f6e65206469646e277420706c61792160601b60a0820152a2005b506108fc6111e1565b6000808080848661128e89611e25565b50015416600361129d89611e25565b500154908282156112c7575bf1156107c0576000805160206120568339815191529160c0916111fb565b506108fc6112a9565b604080516001600160a01b039290921682523360208301527f7db790423bbf959efabd112fcd6002b5ddf653d2796a29b2e900d79029c4c9fd93509150a2005b909150600543019081431161052b577f7db790423bbf959efabd112fcd6002b5ddf653d2796a29b2e900d79029c4c9fd926107bb92600c61135087611e25565b500155600d61135e86611e25565b500180546001600160a01b031916918316919091179055604080516001600160a01b03909216825233602083015290918291820190565b80826113a085611e25565b50015416611158565b506111286113b682611e25565b5054336001600160a01b03918216149081156113d5575b50905061111f565b90506113e083611e25565b5060010154163314836113cd565b506113f881611e25565b50600101546001600160a01b03161515611119565b5061141781611e25565b50546001600160a01b03161515611113565b34610239576060366003190112610239576004357f6c096652adb4aef1dc8abccd5f4fdd2a52d0ba9a42dda148b22cc824e02dc7646024356044356000548410806115b1575b80611592575b8061154d575b61148490611e82565b600d61148f85611e25565b500180546001600160a01b03191690556000600c6114ac86611e25565b5001556114b884611e25565b50546001600160a01b0390339082160361150e576107bb9060016114db87611e25565b50015460408051338152929091166001600160a01b03166020830152810193909352606083019190915281906080820190565b6107bb9061151b86611e25565b505460408051338152929091166001600160a01b03166020830152810193909352606083019190915281906080820190565b5061148461155a85611e25565b5054336001600160a01b0391821614908115611579575b50905061147b565b905061158486611e25565b506001015416331486611571565b5061159c84611e25565b50600101546001600160a01b03161515611475565b506115bb84611e25565b50546001600160a01b0316151561146f565b34610239576020366003190112610239576004356000548110806117e1575b806117c2575b8061177d575b61160190611e82565b61162c600461160f83611e25565b5001546001600160a01b0390811615159081611763575b50611e82565b600361163782611e25565b50015461170257600561164982611e25565b500154156116a757600561165c82611e25565b500154600361166a83611e25565b5001557f387ea7507bd65e609b1530432f9974fcb6227f213d6141475c009b49447bd8796020600361169b84611e25565b500154604051908152a2005b604051631f443c7360e31b815260206004820152602c60248201527f54686520616d6f756e7420666f7220746869732067616d65207761736e27742060448201526b64656369646564207965742160a01b6064820152608490fd5b604051631f443c7360e31b815260206004820152603260248201527f54686520616d6f756e7420666f7220746869732067616d652068617320616c7260448201527165616479206265656e20646563696465642160701b6064820152608490fd5b9050600461177084611e25565b5001541633141583611626565b5061160161178a82611e25565b5054336001600160a01b03918216149081156117a9575b5090506115f8565b90506117b483611e25565b5060010154163314836117a1565b506117cc81611e25565b50600101546001600160a01b031615156115f2565b506117eb81611e25565b50546001600160a01b031615156115ec565b346102395760403660031901126102395767ffffffffffffffff6004358181116102395761182f903690600401611dce565b906024359081116102395760209161071661184e923690600401611dce565b6040519015158152f35b346102395760203660031901126102395760006101a060405161187a81611d73565b8281528260208201528260408201528260608201528260808201528260a08201528260c08201528260e0820152826101008201528261012082015282610140820152826101608201528261018082015201526101c06118da600435611e25565b506040516118e781611d73565b60018060a01b038254169182825260018060a01b036001820154166020830152600281015460408301526003810154606083015260018060a01b036004820154166080830152600581015460a0830152600681015460c0830152600781015460e083015260088101546101008301526009810154610120830152600a810154610140830152600b810154610160830152600c810154610180830152600d60018060a01b03910154166101a082015260405191825260018060a01b036020820151166020830152604081015160408301526060810151606083015260018060a01b03608082015116608083015260a081015160a083015260c081015160c083015260e081015160e08301526101008101516101008301526101208101516101208301526101408101516101408301526101608101516101608301526101808101516101808301526101a060018060a01b03910151166101a0820152f35b3461023957602036600319011261023957600435600054811080611b13575b80611af5575b15611a9657611a7690611e25565b5080546001600160a01b0319169055600154611a9190611ec6565b600155005b60405162461bcd60e51b815260206004820152603160248201527f596f752063616e2774206c65617665207468652067616d6520696620796f75276044820152707265206e6f7420746865206f776e65722160781b6064820152608490fd5b50611aff81611e25565b50600101546001600160a01b031615611a68565b50611b1d81611e25565b50546001600160a01b03163314611a62565b3461023957611b3d36611d5d565b611b4682611e25565b50546001600160a01b0390811615611d1e5781151580611d13575b15611cc35780611b7084611e25565b5054163314908115611caa575b5015611c5a576003611b8e83611e25565b500154611bfa576040817f409c1c0e3993d3b6e249eb7b3e4e216febc2b296f8bcfff69abc401c06998e54926005611bc586611e25565b5001556004611bd385611e25565b5001336bffffffffffffffffffffffff60a01b8254161790558151908152336020820152a2005b604051631f443c7360e31b815260206004820152603160248201527f54686520616d6f756e7420666f7220746869732067616d652068617320616c726044820152701958591e481899595b88191958da591959607a1b6064820152608490fd5b60405162461bcd60e51b815260206004820152602260248201527f746869732075736572206973206e6f742070617274206f66207468652067616d604482015261652160f01b6064820152608490fd5b9050611cb583611e25565b506001015416331483611b7d565b60405162461bcd60e51b815260206004820152602260248201527f54686520616d6f756e74206f72207468652067616d65496420617265206e756c6044820152616c2160f01b6064820152608490fd5b506000548310611b61565b604051631f443c7360e31b8152602060048201526016602482015275151a194818dc99585d1bdc881a59081a5cc81b9d5b1b60521b6044820152606490fd5b6040906003190112610239576004359060243590565b6101c0810190811067ffffffffffffffff82111761055757604052565b6040810190811067ffffffffffffffff82111761055757604052565b90601f8019910116810190811067ffffffffffffffff82111761055757604052565b81601f820112156102395780359067ffffffffffffffff82116105575760405192611e03601f8401601f191660200185611dac565b8284526020838301011161023957816000926020809301838601378301015290565b906000918254811015611e5f57600e90838052027f290decd9548b62a8d60345a988386fc84ba6bc95484008f6362f93160ef3e563019190565b634e487b7160e01b83526032600452602483fd5b600019811461052b5760010190565b15611e8957565b60405162461bcd60e51b8152602060048201526015602482015274536f6d657468696e672077656e742077726f6e672160581b6044820152606490fd5b801561052b576000190190565b6001600160a01b039182168152911660208201526060604082018190526035908201527f436865617465722064657465637465642c20746865206574682077696c6c2062608082015274652073656e7420746f207468652077696e6e65722160581b60a082015260c00190565b60005b838110611f535750506000910152565b8181015183820152602001611f43565b60806040929594939560608352611f898151809281606087015260208587019101611f40565b601f80199101168201019460018060a01b031660208201520152565b60405190611fb282611d90565b60018252603160f81b6020830152565b6001600160a01b03918216815291166020820152606060408201819052600c908201526b456e64204f662047616d652160a01b608082015260a00190565b906040519160209261202e8482816120218183019687815193849201611f40565b8101038084520182611dac565b5190209161204e6040519182816120218183019687815193849201611f40565b519020149056fed5562679467aef873d023ef06602fe4cb4a987be45e933b3255bbc7d6225ffb0a264697066735822122092299eb6585aac7b669a134a2e452a1dffc1a081c44a970f3969725634595c1d64736f6c63430008130033",
  "immutableReferences": {},
  "source": "// SPDX-License-Identifier: MIT\npragma solidity >=0.4.22 <0.9.0;\ncontract Battleship {\n  //struct for the Game\n  struct Game {\n        address first;\n        address second;\n        uint boardDim;\n        uint amount;\n        address amountRequester;//used to don't allow a user to commit an amount and accept it all by himself.\n        uint tempAmount;\n        bytes32 merkleFirst;\n        bytes32 merkleSecond;\n        uint ethFirst;\n        uint ethSecond;\n        uint firstNumShips;\n        uint secondNumShips;\n        uint accusationTimeout;\n        address accusedPlayer;\n\n  }\n\n  //event to send when game starts\n  event GameCreated(address indexed _first,address indexed _second,uint _amountTemp ,uint indexed _gameId,uint _boardDim,uint _numberOfShips);\n  //event to declare the amount of money the game will have, it is used during the decision of how much money to spend in the game\n  event AmountToSpend(uint indexed _gameId,uint _amount,address _from);\n  //event for the amount that the game will have\n  event AmountDecided(uint indexed _gameId,uint _amount);\n  //event for outputting an uint value\n  event UintOutput(address indexed _from,uint _value);\n  //ErrorOut string\n  error ErrorOut(string err);\n  //The game has officially started.\n  event GameStarted(address indexed _first, address indexed _second);\n  //Attack the opponent\n  event AttackOpp(uint indexed _gameId ,address _attacker, address _opponent, uint _row, uint _col);\n  //event after attack\n  event AttackRes(string  _result,address _attacker,uint _gameId);\n  //event game end\n  event GameEnd(uint indexed _gameId,address _winner,address _loser,string _cause);\n  //accusation\n  event AccusationTriggered(uint indexed _gameId,address _accused,address _accuser);\n  //Array of games\n  Game[] public listOfGames;\n  //variable to keep the number of open games.\n  uint public openGames = 0;\n  constructor() {\n  }\n\n  function CreateGame(uint _boardDim,uint _numberOfShips) public{ //Game Creation, creates a game with only the first player saved.\n    listOfGames.push(Game(msg.sender,address(0),_boardDim,0,address(0),0,0,0,0,0,_numberOfShips,_numberOfShips,0,address(0)));\n    openGames++;\n    emit UintOutput(msg.sender,listOfGames.length - 1); \n  }\n  function JoinGame(bool _isRand,uint _gameIndex) public {//Join a game.\n    if(openGames <= 0) revert ErrorOut({err:\"No open games\"});\n    \n    bool found = false;\n    uint returnIndex = 0;\n    if(!_isRand) { //can be joined specifically by passing a game id.\n      require(_gameIndex < listOfGames.length,\"Something went wrong!\");\n      returnIndex = _gameIndex;\n      if(listOfGames[returnIndex].first == address(0)) revert ErrorOut({err:\"You can't join this game, because there's no player here!\"});\n      //if(listOfGames[returnIndex].first == msg.sender) revert(\"User can't access his own game!\");\n      if(listOfGames[returnIndex].second != address(0)) revert ErrorOut({err:\"Game is not Free\"});\n      listOfGames[(returnIndex)].second = msg.sender;\n      openGames--;\n      found = true;\n    }\n    //can be joined randomly, the contract will find a random game from the open ones.\n\n    if(_isRand && !found){\n      bytes32 rand = randGenerator();\n      uint index = uint(rand) % openGames + 1;\n      for(uint i = 0; i < listOfGames.length; i++){\n        if(listOfGames[i].second == address(0) && listOfGames[i].first != address(0) && index > 1) index--;\n        else if (listOfGames[i].second == address(0) && listOfGames[i].first != address(0) && index == 1) {\n          listOfGames[i].second = msg.sender;\n          returnIndex = i;\n          openGames--;\n          found = true;\n          break;\n        }\n      }\n    }\n\n    if(found) emit GameCreated(listOfGames[returnIndex].first,listOfGames[returnIndex].second,listOfGames[returnIndex].tempAmount,returnIndex,listOfGames[returnIndex].boardDim,listOfGames[returnIndex].firstNumShips);\n      \n    if(!found)revert ErrorOut({err:\"Not able to find an open game\"});\n  }\n\n  function AmountCommit(uint _gameId,uint _amount) public{\n    if(listOfGames[_gameId].first == address(0)) revert ErrorOut({err:\"The creator id is null\"});\n    require(_amount > 0 && _gameId < listOfGames.length,\"The amount or the gameId are null!\");\n    require(listOfGames[_gameId].first == msg.sender || listOfGames[_gameId].second == msg.sender,\"this user is not part of the game!\");\n    if(listOfGames[_gameId].amount != 0) revert ErrorOut({err:\"The amount for this game has already been decided\"});\n    listOfGames[_gameId].tempAmount = _amount;\n    listOfGames[_gameId].amountRequester = msg.sender;\n    emit AmountToSpend(_gameId, _amount,msg.sender);\n  }\n  function AcceptedAmount(uint _gameId) public{\n    bool condition = _gameId < listOfGames.length && listOfGames[_gameId].first != address(0) && listOfGames[_gameId].second != address(0) && (listOfGames[_gameId].first == msg.sender || listOfGames[_gameId].second == msg.sender);\n    require(condition,\"Something went wrong!\");\n    require(listOfGames[_gameId].amountRequester != address(0) && listOfGames[_gameId].amountRequester != msg.sender,\"Something went wrong!\");\n    if(listOfGames[_gameId].amount != 0) revert ErrorOut({err:\"The amount for this game has already been decided!\"});\n    if(listOfGames[_gameId].tempAmount == 0) revert ErrorOut({err:\"The amount for this game wasn't decided yet!\"});\n    listOfGames[_gameId].amount = listOfGames[_gameId].tempAmount;\n    emit AmountDecided(_gameId,listOfGames[_gameId].amount);\n  }\n  function SendEther(uint _gameId) public payable {\n    bool condition = _gameId < listOfGames.length && listOfGames[_gameId].first != address(0) && listOfGames[_gameId].second != address(0) && (listOfGames[_gameId].first == msg.sender || listOfGames[_gameId].second == msg.sender);\n    require(condition,\"Something went wrong!\");\n    require(msg.value > 0,\"Eth are 0!\");\n    if(listOfGames[_gameId].first == msg.sender) listOfGames[_gameId].ethFirst = msg.value;\n    else listOfGames[_gameId].ethSecond = msg.value;\n    }\n    function AttackOpponent(uint _gameId, uint _row, uint _col) public {\n    bool condition = _gameId < listOfGames.length && listOfGames[_gameId].first != address(0) && listOfGames[_gameId].second != address(0) && (listOfGames[_gameId].first == msg.sender || listOfGames[_gameId].second == msg.sender);\n    require(condition,\"Something went wrong!\");\n    listOfGames[_gameId].accusedPlayer = address(0);\n    listOfGames[_gameId].accusationTimeout = 0;\n    if(listOfGames[_gameId].first == msg.sender) emit AttackOpp(_gameId,msg.sender,listOfGames[_gameId].second,_row,_col);\n    else emit AttackOpp(_gameId,msg.sender,listOfGames[_gameId].first,_row,_col);\n    }\n\n\n\n    function MerkleProofAttack(uint _gameId,string memory _attackRes,bytes32 _attackHash,bytes32[] memory merkleProof) payable public{\n    bool condition = _gameId < listOfGames.length && listOfGames[_gameId].first != address(0) && listOfGames[_gameId].second != address(0) && (listOfGames[_gameId].first == msg.sender || listOfGames[_gameId].second == msg.sender);\n    require(condition,\"Something went wrong!\");\n    bytes memory byteArraytemp;\n\n    bytes32 temp = _attackHash;\n    for(uint i = 0; i < merkleProof.length; i++){\n        byteArraytemp = abi.encodePacked(merkleProof[i] ^ temp);\n        temp = keccak256(byteArraytemp);\n      }\n      \n    if(listOfGames[_gameId].first == msg.sender) {\n      bytes32 temp1_el = keccak256(abi.encodePacked(temp));\n      bytes32 temp2_el = keccak256(abi.encodePacked(listOfGames[_gameId].merkleFirst));\n      if(temp1_el == temp2_el ) {\n        emit AttackRes(_attackRes,listOfGames[_gameId].second,_gameId);\n        if(compare(_attackRes,\"1\")) listOfGames[_gameId].firstNumShips = listOfGames[_gameId].firstNumShips - 1;\n      }\n      else {\n        emit GameEnd(_gameId,listOfGames[_gameId].second,listOfGames[_gameId].first,\"Cheater detected, the eth will be sent to the winner!\");\n        payable(listOfGames[_gameId].second).transfer(listOfGames[_gameId].amount * 2);\n      }\n      if(listOfGames[_gameId].firstNumShips <= 0) {payable(listOfGames[_gameId].second).transfer(listOfGames[_gameId].amount * 2);\n      emit GameEnd(_gameId,listOfGames[_gameId].second,listOfGames[_gameId].first,\"End Of Game!\");\n      }\n    }\n    else {\n          bytes32 temp1_el = keccak256(abi.encodePacked(temp));\n          bytes32 temp2_el = keccak256(abi.encodePacked(listOfGames[_gameId].merkleSecond));\n\n          if(temp1_el == temp2_el) {\n            emit AttackRes(_attackRes,listOfGames[_gameId].first,_gameId);\n            if(compare(_attackRes,\"1\")) listOfGames[_gameId].secondNumShips = listOfGames[_gameId].secondNumShips - 1;\n\n          }\n      else {\n        emit GameEnd(_gameId,listOfGames[_gameId].first,listOfGames[_gameId].second,\"Cheater detected, the eth will be sent to the winner!\");\n        payable(listOfGames[_gameId].first).transfer(listOfGames[_gameId].amount * 2);\n      }\n      if(listOfGames[_gameId].secondNumShips <= 0) {\n        payable(listOfGames[_gameId].first).transfer(listOfGames[_gameId].amount * 2);\n      emit GameEnd(_gameId,listOfGames[_gameId].first,listOfGames[_gameId].second,\"End Of Game!\");\n      }\n    }\n    \n    }\n\n\n\n     function compare(string memory str1, string memory str2) public pure returns (bool) {\n        return keccak256(abi.encodePacked(str1)) == keccak256(abi.encodePacked(str2));\n    }\n\n   function triggerAccusation(uint _gameId) public {        \n    bool condition = _gameId < listOfGames.length && listOfGames[_gameId].first != address(0) && listOfGames[_gameId].second != address(0) && (listOfGames[_gameId].first == msg.sender || listOfGames[_gameId].second == msg.sender);\n    require(condition,\"Something went wrong!\");\n    address accusedPlayer = address(0);\n    if(listOfGames[_gameId].second == msg.sender) accusedPlayer = listOfGames[_gameId].first;\n    else  accusedPlayer = listOfGames[_gameId].second;\n    \n    if(listOfGames[_gameId].accusationTimeout != 0){\n        if(block.number >= listOfGames[_gameId].accusationTimeout){\n          if(listOfGames[_gameId].accusedPlayer == listOfGames[_gameId].second) payable(listOfGames[_gameId].first).transfer(listOfGames[_gameId].amount * 2);\n          else payable(listOfGames[_gameId].second).transfer(listOfGames[_gameId].amount);\n          emit GameEnd(_gameId,listOfGames[_gameId].first,listOfGames[_gameId].second,\"Timeout, the game ended because someone didn't play!\");\n        } else emit AccusationTriggered(_gameId,accusedPlayer,msg.sender);\n    } else {\n      listOfGames[_gameId].accusationTimeout = block.number + 5;\n \n      listOfGames[_gameId].accusedPlayer = accusedPlayer;\n      emit AccusationTriggered(_gameId,accusedPlayer,msg.sender);\n    }\n \n    }    \n    function balance()public view returns(uint){\n      return address(this).balance;\n    }\n\n    function getList(uint _gameId) public view returns (Game memory){\n      return listOfGames[_gameId];\n    }\n\n  function SendMerkleRoot(bytes32 _merkleroot, uint _gameId) public{//Done at the start of the game by both players, otherwise the game don't start.\n    bool condition = _gameId < listOfGames.length && listOfGames[_gameId].first != address(0) && listOfGames[_gameId].second != address(0) && (listOfGames[_gameId].first == msg.sender || listOfGames[_gameId].second == msg.sender);\n    require(condition,\"Something went wrong!\");\n    if(listOfGames[_gameId].first == msg.sender) listOfGames[_gameId].merkleFirst = _merkleroot;\n    else listOfGames[_gameId].merkleSecond = _merkleroot;\n    if(listOfGames[_gameId].merkleSecond != 0 && listOfGames[_gameId].merkleFirst != 0) emit GameStarted(listOfGames[_gameId].first, listOfGames[_gameId].second);\n  }\n\n   function checkStringNotEmpty(string memory inString) public pure returns (bool) {\n        return bytes(inString).length != 0;\n    }\n\n  function LeaveGame(uint _gameId) public { //you can leave the game only if you are the creator and before the game has started.\n    require(_gameId < listOfGames.length && listOfGames[_gameId].first == msg.sender && listOfGames[_gameId].second == address(0),\"You can't leave the game if you're not the owner!\");\n    listOfGames[_gameId].first = address(0);\n    openGames--;\n  }\n\n  function randGenerator() private view returns (bytes32){\n    //Helps with random number generation\n    bytes32 bhash=blockhash(block.number-1);\n    bytes memory bytesArray = new bytes(32);\n    for (uint i; i <32; i++)\n    {bytesArray[i] =bhash[i];}\n    bytes32 rand = keccak256(bytesArray);\n    return rand;\n  }\n\n\n}\n",
  "sourcePath": "C:\\Users\\given\\Desktop\\Appunti\\p2p\\Progetto\\Battleship\\contracts\\Battleship.sol",
  "compiler": {
    "name": "solc",
    "version": "0.8.19+commit.7dd6d404.Emscripten.clang"
  },
  "schemaVersion": "3.4.13",
  "updatedAt": "2023-05-31T06:09:21.450Z",
  "networkType": "ethereum",
  "devdoc": {
    "kind": "dev",
    "methods": {},
    "version": 1
  },
  "userdoc": {
    "kind": "user",
    "methods": {},
    "version": 1
  }
}