{
  "contractName": "Battleship",
  "abi": [
    {
      "inputs": [],
      "stateMutability": "nonpayable",
      "type": "constructor"
    },
    {
      "inputs": [
        {
          "internalType": "string",
          "name": "err",
          "type": "string"
        }
      ],
      "name": "ErrorOut",
      "type": "error"
    },
    {
      "anonymous": false,
      "inputs": [
        {
          "indexed": true,
          "internalType": "uint256",
          "name": "_gameId",
          "type": "uint256"
        },
        {
          "indexed": false,
          "internalType": "uint256",
          "name": "_amount",
          "type": "uint256"
        }
      ],
      "name": "AmountDecided",
      "type": "event"
    },
    {
      "anonymous": false,
      "inputs": [
        {
          "indexed": true,
          "internalType": "uint256",
          "name": "_gameId",
          "type": "uint256"
        },
        {
          "indexed": false,
          "internalType": "uint256",
          "name": "_amount",
          "type": "uint256"
        },
        {
          "indexed": false,
          "internalType": "address",
          "name": "_from",
          "type": "address"
        }
      ],
      "name": "AmountToSpend",
      "type": "event"
    },
    {
      "anonymous": false,
      "inputs": [
        {
          "indexed": true,
          "internalType": "address",
          "name": "_first",
          "type": "address"
        },
        {
          "indexed": true,
          "internalType": "address",
          "name": "_second",
          "type": "address"
        },
        {
          "indexed": false,
          "internalType": "uint256",
          "name": "_amountTemp",
          "type": "uint256"
        },
        {
          "indexed": true,
          "internalType": "uint256",
          "name": "_gameId",
          "type": "uint256"
        },
        {
          "indexed": false,
          "internalType": "uint256",
          "name": "_boardDim",
          "type": "uint256"
        }
      ],
      "name": "GameStarted",
      "type": "event"
    },
    {
      "anonymous": false,
      "inputs": [
        {
          "indexed": true,
          "internalType": "address",
          "name": "_from",
          "type": "address"
        },
        {
          "indexed": false,
          "internalType": "uint256",
          "name": "_value",
          "type": "uint256"
        }
      ],
      "name": "UintOutput",
      "type": "event"
    },
    {
      "inputs": [
        {
          "internalType": "uint256",
          "name": "",
          "type": "uint256"
        }
      ],
      "name": "listOfGames",
      "outputs": [
        {
          "internalType": "address",
          "name": "first",
          "type": "address"
        },
        {
          "internalType": "address",
          "name": "second",
          "type": "address"
        },
        {
          "internalType": "uint256",
          "name": "boardDim",
          "type": "uint256"
        },
        {
          "internalType": "uint256",
          "name": "amount",
          "type": "uint256"
        },
        {
          "internalType": "address",
          "name": "amountRequester",
          "type": "address"
        },
        {
          "internalType": "uint256",
          "name": "tempAmount",
          "type": "uint256"
        },
        {
          "internalType": "string",
          "name": "merkle_first",
          "type": "string"
        },
        {
          "internalType": "string",
          "name": "merkle_second",
          "type": "string"
        }
      ],
      "stateMutability": "view",
      "type": "function",
      "constant": true
    },
    {
      "inputs": [],
      "name": "openGames",
      "outputs": [
        {
          "internalType": "uint256",
          "name": "",
          "type": "uint256"
        }
      ],
      "stateMutability": "view",
      "type": "function",
      "constant": true
    },
    {
      "inputs": [
        {
          "internalType": "uint256",
          "name": "_boardDim",
          "type": "uint256"
        }
      ],
      "name": "CreateGame",
      "outputs": [],
      "stateMutability": "nonpayable",
      "type": "function"
    },
    {
      "inputs": [
        {
          "internalType": "bool",
          "name": "_isRand",
          "type": "bool"
        },
        {
          "internalType": "uint256",
          "name": "_gameIndex",
          "type": "uint256"
        }
      ],
      "name": "JoinGame",
      "outputs": [],
      "stateMutability": "nonpayable",
      "type": "function"
    },
    {
      "inputs": [
        {
          "internalType": "uint256",
          "name": "_gameId",
          "type": "uint256"
        },
        {
          "internalType": "uint256",
          "name": "_amount",
          "type": "uint256"
        }
      ],
      "name": "AmountCommit",
      "outputs": [],
      "stateMutability": "nonpayable",
      "type": "function"
    },
    {
      "inputs": [
        {
          "internalType": "uint256",
          "name": "_gameId",
          "type": "uint256"
        }
      ],
      "name": "AcceptedAmount",
      "outputs": [],
      "stateMutability": "nonpayable",
      "type": "function"
    },
    {
      "inputs": [
        {
          "internalType": "uint256",
          "name": "_gameId",
          "type": "uint256"
        }
      ],
      "name": "LeaveGame",
      "outputs": [],
      "stateMutability": "nonpayable",
      "type": "function"
    }
  ],
  "bytecode": "0x6080604052600060015534801561001557600080fd5b50612599806100256000396000f3fe608060405234801561001057600080fd5b506004361061007c5760003560e01c8063810ff1fd1161005b578063810ff1fd146100d55780639e5237c6146100f1578063f4023d281461010d578063fac196e6146101445761007c565b80628bdd7d146100815780630247bd751461009d5780634dd99ed1146100b9575b600080fd5b61009b600480360381019061009691906117e7565b610162565b005b6100b760048036038101906100b29190611827565b6104ca565b005b6100d360048036038101906100ce9190611827565b610689565b005b6100ef60048036038101906100ea919061188c565b610b77565b005b61010b60048036038101906101069190611827565b611287565b005b61012760048036038101906101229190611827565b6114eb565b60405161013b9897969594939291906119ac565b60405180910390f35b61014c6116b3565b6040516101599190611a38565b60405180910390f35b600073ffffffffffffffffffffffffffffffffffffffff166000838154811061018e5761018d611a53565b5b906000526020600020906008020160000160009054906101000a900473ffffffffffffffffffffffffffffffffffffffff1673ffffffffffffffffffffffffffffffffffffffff1603610216576040517ffa21e39800000000000000000000000000000000000000000000000000000000815260040161020d90611ace565b60405180910390fd5b60008111801561022a575060008054905082105b610269576040517f08c379a000000000000000000000000000000000000000000000000000000000815260040161026090611b60565b60405180910390fd5b3373ffffffffffffffffffffffffffffffffffffffff166000838154811061029457610293611a53565b5b906000526020600020906008020160000160009054906101000a900473ffffffffffffffffffffffffffffffffffffffff1673ffffffffffffffffffffffffffffffffffffffff16148061035857503373ffffffffffffffffffffffffffffffffffffffff166000838154811061030e5761030d611a53565b5b906000526020600020906008020160010160009054906101000a900473ffffffffffffffffffffffffffffffffffffffff1673ffffffffffffffffffffffffffffffffffffffff16145b610397576040517f08c379a000000000000000000000000000000000000000000000000000000000815260040161038e90611bf2565b60405180910390fd5b60008083815481106103ac576103ab611a53565b5b906000526020600020906008020160030154146103fe576040517ffa21e3980000000000000000000000000000000000000000000000000000000081526004016103f590611c84565b60405180910390fd5b806000838154811061041357610412611a53565b5b906000526020600020906008020160050181905550336000838154811061043d5761043c611a53565b5b906000526020600020906008020160040160006101000a81548173ffffffffffffffffffffffffffffffffffffffff021916908373ffffffffffffffffffffffffffffffffffffffff160217905550817f409c1c0e3993d3b6e249eb7b3e4e216febc2b296f8bcfff69abc401c06998e5482336040516104be929190611ca4565b60405180910390a25050565b6000805490508110801561054e57503373ffffffffffffffffffffffffffffffffffffffff166000828154811061050457610503611a53565b5b906000526020600020906008020160000160009054906101000a900473ffffffffffffffffffffffffffffffffffffffff1673ffffffffffffffffffffffffffffffffffffffff16145b80156105cb5750600073ffffffffffffffffffffffffffffffffffffffff166000828154811061058157610580611a53565b5b906000526020600020906008020160010160009054906101000a900473ffffffffffffffffffffffffffffffffffffffff1673ffffffffffffffffffffffffffffffffffffffff16145b61060a576040517f08c379a000000000000000000000000000000000000000000000000000000000815260040161060190611d3f565b60405180910390fd5b600080828154811061061f5761061e611a53565b5b906000526020600020906008020160000160006101000a81548173ffffffffffffffffffffffffffffffffffffffff021916908373ffffffffffffffffffffffffffffffffffffffff1602179055506001600081548092919061068190611d8e565b919050555050565b60008080549050821080156107105750600073ffffffffffffffffffffffffffffffffffffffff16600083815481106106c5576106c4611a53565b5b906000526020600020906008020160000160009054906101000a900473ffffffffffffffffffffffffffffffffffffffff1673ffffffffffffffffffffffffffffffffffffffff1614155b801561078e5750600073ffffffffffffffffffffffffffffffffffffffff166000838154811061074357610742611a53565b5b906000526020600020906008020160010160009054906101000a900473ffffffffffffffffffffffffffffffffffffffff1673ffffffffffffffffffffffffffffffffffffffff1614155b801561088557503373ffffffffffffffffffffffffffffffffffffffff16600083815481106107c0576107bf611a53565b5b906000526020600020906008020160000160009054906101000a900473ffffffffffffffffffffffffffffffffffffffff1673ffffffffffffffffffffffffffffffffffffffff16148061088457503373ffffffffffffffffffffffffffffffffffffffff166000838154811061083a57610839611a53565b5b906000526020600020906008020160010160009054906101000a900473ffffffffffffffffffffffffffffffffffffffff1673ffffffffffffffffffffffffffffffffffffffff16145b5b9050806108c7576040517f08c379a00000000000000000000000000000000000000000000000000000000081526004016108be90611e03565b60405180910390fd5b600073ffffffffffffffffffffffffffffffffffffffff16600083815481106108f3576108f2611a53565b5b906000526020600020906008020160040160009054906101000a900473ffffffffffffffffffffffffffffffffffffffff1673ffffffffffffffffffffffffffffffffffffffff16141580156109ba57503373ffffffffffffffffffffffffffffffffffffffff166000838154811061096f5761096e611a53565b5b906000526020600020906008020160040160009054906101000a900473ffffffffffffffffffffffffffffffffffffffff1673ffffffffffffffffffffffffffffffffffffffff1614155b6109f9576040517f08c379a00000000000000000000000000000000000000000000000000000000081526004016109f090611e03565b60405180910390fd5b6000808381548110610a0e57610a0d611a53565b5b90600052602060002090600802016003015414610a60576040517ffa21e398000000000000000000000000000000000000000000000000000000008152600401610a5790611e95565b60405180910390fd5b6000808381548110610a7557610a74611a53565b5b90600052602060002090600802016005015403610ac7576040517ffa21e398000000000000000000000000000000000000000000000000000000008152600401610abe90611f27565b60405180910390fd5b60008281548110610adb57610ada611a53565b5b90600052602060002090600802016005015460008381548110610b0157610b00611a53565b5b906000526020600020906008020160030181905550817f387ea7507bd65e609b1530432f9974fcb6227f213d6141475c009b49447bd87960008481548110610b4c57610b4b611a53565b5b906000526020600020906008020160030154604051610b6b9190611a38565b60405180910390a25050565b600060015411610bbc576040517ffa21e398000000000000000000000000000000000000000000000000000000008152600401610bb390611f93565b60405180910390fd5b60008083610df7576000805490508310610c0b576040517f08c379a0000000000000000000000000000000000000000000000000000000008152600401610c0290611e03565b60405180910390fd5b829050600073ffffffffffffffffffffffffffffffffffffffff1660008281548110610c3a57610c39611a53565b5b906000526020600020906008020160000160009054906101000a900473ffffffffffffffffffffffffffffffffffffffff1673ffffffffffffffffffffffffffffffffffffffff1603610cc2576040517ffa21e398000000000000000000000000000000000000000000000000000000008152600401610cb990612025565b60405180910390fd5b600073ffffffffffffffffffffffffffffffffffffffff1660008281548110610cee57610ced611a53565b5b906000526020600020906008020160010160009054906101000a900473ffffffffffffffffffffffffffffffffffffffff1673ffffffffffffffffffffffffffffffffffffffff1614610d76576040517ffa21e398000000000000000000000000000000000000000000000000000000008152600401610d6d90612091565b60405180910390fd5b3360008281548110610d8b57610d8a611a53565b5b906000526020600020906008020160010160006101000a81548173ffffffffffffffffffffffffffffffffffffffff021916908373ffffffffffffffffffffffffffffffffffffffff16021790555060016000815480929190610ded90611d8e565b9190505550600191505b838015610e02575081155b156110fe576000610e116116b9565b90506000600180548360001c610e2791906120e0565b610e319190612111565b905060005b6000805490508110156110fa57600073ffffffffffffffffffffffffffffffffffffffff1660008281548110610e6f57610e6e611a53565b5b906000526020600020906008020160010160009054906101000a900473ffffffffffffffffffffffffffffffffffffffff1673ffffffffffffffffffffffffffffffffffffffff16148015610f365750600073ffffffffffffffffffffffffffffffffffffffff1660008281548110610eeb57610eea611a53565b5b906000526020600020906008020160000160009054906101000a900473ffffffffffffffffffffffffffffffffffffffff1673ffffffffffffffffffffffffffffffffffffffff1614155b8015610f425750600182115b15610f5a578180610f5290611d8e565b9250506110e7565b600073ffffffffffffffffffffffffffffffffffffffff1660008281548110610f8657610f85611a53565b5b906000526020600020906008020160010160009054906101000a900473ffffffffffffffffffffffffffffffffffffffff1673ffffffffffffffffffffffffffffffffffffffff1614801561104d5750600073ffffffffffffffffffffffffffffffffffffffff166000828154811061100257611001611a53565b5b906000526020600020906008020160000160009054906101000a900473ffffffffffffffffffffffffffffffffffffffff1673ffffffffffffffffffffffffffffffffffffffff1614155b80156110595750600182145b156110e657336000828154811061107357611072611a53565b5b906000526020600020906008020160010160006101000a81548173ffffffffffffffffffffffffffffffffffffffff021916908373ffffffffffffffffffffffffffffffffffffffff160217905550809350600160008154809291906110d890611d8e565b9190505550600194506110fa565b5b80806110f290612145565b915050610e36565b5050505b811561124157806000828154811061111957611118611a53565b5b906000526020600020906008020160010160009054906101000a900473ffffffffffffffffffffffffffffffffffffffff1673ffffffffffffffffffffffffffffffffffffffff166000838154811061117557611174611a53565b5b906000526020600020906008020160000160009054906101000a900473ffffffffffffffffffffffffffffffffffffffff1673ffffffffffffffffffffffffffffffffffffffff167f15dd7f1d5517b989b4479ed574eb46ad690b70caa9ea47ec5078da0806e5cf06600085815481106111f2576111f1611a53565b5b9060005260206000209060080201600501546000868154811061121857611217611a53565b5b90600052602060002090600802016002015460405161123892919061218d565b60405180910390a45b81611281576040517ffa21e39800000000000000000000000000000000000000000000000000000000815260040161127890612202565b60405180910390fd5b50505050565b60006040518061010001604052803373ffffffffffffffffffffffffffffffffffffffff168152602001600073ffffffffffffffffffffffffffffffffffffffff16815260200183815260200160008152602001600073ffffffffffffffffffffffffffffffffffffffff1681526020016000815260200160405180602001604052806000815250815260200160405180602001604052806000815250815250908060018154018082558091505060019003906000526020600020906008020160009091909190915060008201518160000160006101000a81548173ffffffffffffffffffffffffffffffffffffffff021916908373ffffffffffffffffffffffffffffffffffffffff16021790555060208201518160010160006101000a81548173ffffffffffffffffffffffffffffffffffffffff021916908373ffffffffffffffffffffffffffffffffffffffff160217905550604082015181600201556060820151816003015560808201518160040160006101000a81548173ffffffffffffffffffffffffffffffffffffffff021916908373ffffffffffffffffffffffffffffffffffffffff16021790555060a0820151816005015560c0820151816006019081611458919061245d565b5060e082015181600701908161146e919061245d565b5050506001600081548092919061148490612145565b91905055503373ffffffffffffffffffffffffffffffffffffffff167f98fe6bfadae13408aaa640b94cce01ef446d3cb316585dd37dcfc4ebe23f732960016000805490506114d3919061252f565b6040516114e09190611a38565b60405180910390a250565b600081815481106114fb57600080fd5b90600052602060002090600802016000915090508060000160009054906101000a900473ffffffffffffffffffffffffffffffffffffffff16908060010160009054906101000a900473ffffffffffffffffffffffffffffffffffffffff16908060020154908060030154908060040160009054906101000a900473ffffffffffffffffffffffffffffffffffffffff16908060050154908060060180546115a290612280565b80601f01602080910402602001604051908101604052809291908181526020018280546115ce90612280565b801561161b5780601f106115f05761010080835404028352916020019161161b565b820191906000526020600020905b8154815290600101906020018083116115fe57829003601f168201915b50505050509080600701805461163090612280565b80601f016020809104026020016040519081016040528092919081815260200182805461165c90612280565b80156116a95780601f1061167e576101008083540402835291602001916116a9565b820191906000526020600020905b81548152906001019060200180831161168c57829003601f168201915b5050505050905088565b60015481565b6000806001436116c9919061252f565b4090506000602067ffffffffffffffff8111156116e9576116e8612222565b5b6040519080825280601f01601f19166020018201604052801561171b5781602001600182028036833780820191505090505b50905060005b60208110156117965782816020811061173d5761173c611a53565b5b1a60f81b82828151811061175457611753611a53565b5b60200101907effffffffffffffffffffffffffffffffffffffffffffffffffffffffffffff1916908160001a905350808061178e90612145565b915050611721565b5060008180519060200120905080935050505090565b600080fd5b6000819050919050565b6117c4816117b1565b81146117cf57600080fd5b50565b6000813590506117e1816117bb565b92915050565b600080604083850312156117fe576117fd6117ac565b5b600061180c858286016117d2565b925050602061181d858286016117d2565b9150509250929050565b60006020828403121561183d5761183c6117ac565b5b600061184b848285016117d2565b91505092915050565b60008115159050919050565b61186981611854565b811461187457600080fd5b50565b60008135905061188681611860565b92915050565b600080604083850312156118a3576118a26117ac565b5b60006118b185828601611877565b92505060206118c2858286016117d2565b9150509250929050565b600073ffffffffffffffffffffffffffffffffffffffff82169050919050565b60006118f7826118cc565b9050919050565b611907816118ec565b82525050565b611916816117b1565b82525050565b600081519050919050565b600082825260208201905092915050565b60005b8381101561195657808201518184015260208101905061193b565b60008484015250505050565b6000601f19601f8301169050919050565b600061197e8261191c565b6119888185611927565b9350611998818560208601611938565b6119a181611962565b840191505092915050565b6000610100820190506119c2600083018b6118fe565b6119cf602083018a6118fe565b6119dc604083018961190d565b6119e9606083018861190d565b6119f660808301876118fe565b611a0360a083018661190d565b81810360c0830152611a158185611973565b905081810360e0830152611a298184611973565b90509998505050505050505050565b6000602082019050611a4d600083018461190d565b92915050565b7f4e487b7100000000000000000000000000000000000000000000000000000000600052603260045260246000fd5b7f5468652063726561746f72206964206973206e756c6c00000000000000000000600082015250565b6000611ab8601683611927565b9150611ac382611a82565b602082019050919050565b60006020820190508181036000830152611ae781611aab565b9050919050565b7f54686520616d6f756e74206f72207468652067616d65496420617265206e756c60008201527f6c21000000000000000000000000000000000000000000000000000000000000602082015250565b6000611b4a602283611927565b9150611b5582611aee565b604082019050919050565b60006020820190508181036000830152611b7981611b3d565b9050919050565b7f746869732075736572206973206e6f742070617274206f66207468652067616d60008201527f6521000000000000000000000000000000000000000000000000000000000000602082015250565b6000611bdc602283611927565b9150611be782611b80565b604082019050919050565b60006020820190508181036000830152611c0b81611bcf565b9050919050565b7f54686520616d6f756e7420666f7220746869732067616d652068617320616c7260008201527f65616479206265656e2064656369646564000000000000000000000000000000602082015250565b6000611c6e603183611927565b9150611c7982611c12565b604082019050919050565b60006020820190508181036000830152611c9d81611c61565b9050919050565b6000604082019050611cb9600083018561190d565b611cc660208301846118fe565b9392505050565b7f596f752063616e2774206c65617665207468652067616d6520696620796f752760008201527f7265206e6f7420746865206f776e657221000000000000000000000000000000602082015250565b6000611d29603183611927565b9150611d3482611ccd565b604082019050919050565b60006020820190508181036000830152611d5881611d1c565b9050919050565b7f4e487b7100000000000000000000000000000000000000000000000000000000600052601160045260246000fd5b6000611d99826117b1565b915060008203611dac57611dab611d5f565b5b600182039050919050565b7f536f6d657468696e672077656e742077726f6e67210000000000000000000000600082015250565b6000611ded601583611927565b9150611df882611db7565b602082019050919050565b60006020820190508181036000830152611e1c81611de0565b9050919050565b7f54686520616d6f756e7420666f7220746869732067616d652068617320616c7260008201527f65616479206265656e2064656369646564210000000000000000000000000000602082015250565b6000611e7f603283611927565b9150611e8a82611e23565b604082019050919050565b60006020820190508181036000830152611eae81611e72565b9050919050565b7f54686520616d6f756e7420666f7220746869732067616d65207761736e27742060008201527f6465636964656420796574210000000000000000000000000000000000000000602082015250565b6000611f11602c83611927565b9150611f1c82611eb5565b604082019050919050565b60006020820190508181036000830152611f4081611f04565b9050919050565b7f4e6f206f70656e2067616d657300000000000000000000000000000000000000600082015250565b6000611f7d600d83611927565b9150611f8882611f47565b602082019050919050565b60006020820190508181036000830152611fac81611f70565b9050919050565b7f596f752063616e2774206a6f696e20746869732067616d652c2062656361757360008201527f652074686572652773206e6f20706c6179657220686572652100000000000000602082015250565b600061200f603983611927565b915061201a82611fb3565b604082019050919050565b6000602082019050818103600083015261203e81612002565b9050919050565b7f47616d65206973206e6f74204672656500000000000000000000000000000000600082015250565b600061207b601083611927565b915061208682612045565b602082019050919050565b600060208201905081810360008301526120aa8161206e565b9050919050565b7f4e487b7100000000000000000000000000000000000000000000000000000000600052601260045260246000fd5b60006120eb826117b1565b91506120f6836117b1565b925082612106576121056120b1565b5b828206905092915050565b600061211c826117b1565b9150612127836117b1565b925082820190508082111561213f5761213e611d5f565b5b92915050565b6000612150826117b1565b91507fffffffffffffffffffffffffffffffffffffffffffffffffffffffffffffffff820361218257612181611d5f565b5b600182019050919050565b60006040820190506121a2600083018561190d565b6121af602083018461190d565b9392505050565b7f4e6f742061626c6520746f2066696e6420616e206f70656e2067616d65000000600082015250565b60006121ec601d83611927565b91506121f7826121b6565b602082019050919050565b6000602082019050818103600083015261221b816121df565b9050919050565b7f4e487b7100000000000000000000000000000000000000000000000000000000600052604160045260246000fd5b7f4e487b7100000000000000000000000000000000000000000000000000000000600052602260045260246000fd5b6000600282049050600182168061229857607f821691505b6020821081036122ab576122aa612251565b5b50919050565b60008190508160005260206000209050919050565b60006020601f8301049050919050565b600082821b905092915050565b6000600883026123137fffffffffffffffffffffffffffffffffffffffffffffffffffffffffffffffff826122d6565b61231d86836122d6565b95508019841693508086168417925050509392505050565b6000819050919050565b600061235a612355612350846117b1565b612335565b6117b1565b9050919050565b6000819050919050565b6123748361233f565b61238861238082612361565b8484546122e3565b825550505050565b600090565b61239d612390565b6123a881848461236b565b505050565b5b818110156123cc576123c1600082612395565b6001810190506123ae565b5050565b601f821115612411576123e2816122b1565b6123eb846122c6565b810160208510156123fa578190505b61240e612406856122c6565b8301826123ad565b50505b505050565b600082821c905092915050565b600061243460001984600802612416565b1980831691505092915050565b600061244d8383612423565b9150826002028217905092915050565b6124668261191c565b67ffffffffffffffff81111561247f5761247e612222565b5b6124898254612280565b6124948282856123d0565b600060209050601f8311600181146124c757600084156124b5578287015190505b6124bf8582612441565b865550612527565b601f1984166124d5866122b1565b60005b828110156124fd578489015182556001820191506020850194506020810190506124d8565b8683101561251a5784890151612516601f891682612423565b8355505b6001600288020188555050505b505050505050565b600061253a826117b1565b9150612545836117b1565b925082820390508181111561255d5761255c611d5f565b5b9291505056fea2646970667358221220c63afa8ebe581b7906053bbecc38be43f2bee04d90a3be0212cadbf2e98d0c8064736f6c63430008130033",
  "immutableReferences": {},
  "source": "// SPDX-License-Identifier: MIT\npragma solidity >=0.4.22 <0.9.0;\n\ncontract Battleship {\n  //struct for the Game\n  struct Game {\n        address first;\n        address second;\n        uint boardDim;\n        uint amount;\n        address amountRequester;//used to don't allow a user to commit an amount and accept it all by himself.\n        uint tempAmount;\n        string merkle_first;\n        string merkle_second;\n\n  }\n  //event to send when game starts\n  event GameStarted(address indexed _first,address indexed _second,uint _amountTemp ,uint indexed _gameId,uint _boardDim);\n  //event to declare the amount of money the game will have, it is used during the decision of how much money to spend in the game\n  event AmountToSpend(uint indexed _gameId,uint _amount,address _from);\n  //event for the amount that the game will have\n  event AmountDecided(uint indexed _gameId,uint _amount);\n  //event for outputting an uint value\n  event UintOutput(address indexed _from,uint _value);\n  //ErrorOut string\n  error ErrorOut(string err);\n\n  //Array of games\n  Game[] public listOfGames;\n  //variable to keep the number of open games.\n  uint public openGames = 0;\n  constructor() {\n  }\n\n  function CreateGame(uint _boardDim) public{ //Game Creation, creates a game with only the first player saved.\n    listOfGames.push(Game(msg.sender,address(0),_boardDim,0,address(0),0,\"\",\"\"));\n    openGames++;\n    emit UintOutput(msg.sender,listOfGames.length - 1); \n  }\n  function JoinGame(bool _isRand,uint _gameIndex) public {//Join a game.\n    if(openGames <= 0) revert ErrorOut({err:\"No open games\"});\n    \n    bool found = false;\n    uint returnIndex = 0;\n    if(!_isRand) { //can be joined specifically by passing a game id.\n      require(_gameIndex < listOfGames.length,\"Something went wrong!\");\n      returnIndex = _gameIndex;\n      if(listOfGames[returnIndex].first == address(0)) revert ErrorOut({err:\"You can't join this game, because there's no player here!\"});\n      //if(listOfGames[returnIndex].first == msg.sender) revert(\"User can't access his own game!\");\n      if(listOfGames[returnIndex].second != address(0)) revert ErrorOut({err:\"Game is not Free\"});\n      listOfGames[(returnIndex)].second = msg.sender;\n      openGames--;\n      found = true;\n    }\n    //can be joined randomly, the contract will find a random game from the open ones.\n\n    if(_isRand && !found){\n      bytes32 rand = randGenerator();\n      uint index = uint(rand) % openGames + 1;\n      for(uint i = 0; i < listOfGames.length; i++){\n        if(listOfGames[i].second == address(0) && listOfGames[i].first != address(0) && index > 1) index--;\n        else if (listOfGames[i].second == address(0) && listOfGames[i].first != address(0) && index == 1) {\n          listOfGames[i].second = msg.sender;\n          returnIndex = i;\n          openGames--;\n          found = true;\n          break;\n        }\n      }\n    }\n\n    if(found) emit GameStarted(listOfGames[returnIndex].first,listOfGames[returnIndex].second,listOfGames[returnIndex].tempAmount,returnIndex,listOfGames[returnIndex].boardDim);\n      \n    if(!found)revert ErrorOut({err:\"Not able to find an open game\"});\n  }\n\n  function AmountCommit(uint _gameId,uint _amount) public{\n    if(listOfGames[_gameId].first == address(0)) revert ErrorOut({err:\"The creator id is null\"});\n    require(_amount > 0 && _gameId < listOfGames.length,\"The amount or the gameId are null!\");\n    require(listOfGames[_gameId].first == msg.sender || listOfGames[_gameId].second == msg.sender,\"this user is not part of the game!\");\n    if(listOfGames[_gameId].amount != 0) revert ErrorOut({err:\"The amount for this game has already been decided\"});\n    listOfGames[_gameId].tempAmount = _amount;\n    listOfGames[_gameId].amountRequester = msg.sender;\n    emit AmountToSpend(_gameId, _amount,msg.sender);\n  }\n  function AcceptedAmount(uint _gameId) public {\n    bool condition = _gameId < listOfGames.length && listOfGames[_gameId].first != address(0) && listOfGames[_gameId].second != address(0) && (listOfGames[_gameId].first == msg.sender || listOfGames[_gameId].second == msg.sender);\n    require(condition,\"Something went wrong!\");\n    require(listOfGames[_gameId].amountRequester != address(0) && listOfGames[_gameId].amountRequester != msg.sender,\"Something went wrong!\");\n    if(listOfGames[_gameId].amount != 0) revert ErrorOut({err:\"The amount for this game has already been decided!\"});\n    if(listOfGames[_gameId].tempAmount == 0) revert ErrorOut({err:\"The amount for this game wasn't decided yet!\"});\n    listOfGames[_gameId].amount = listOfGames[_gameId].tempAmount;\n    emit AmountDecided(_gameId,listOfGames[_gameId].amount);\n  }\n\n  function LeaveGame(uint _gameId) public { //you can leave the game only if you are the creator and before the game has started.\n    require(_gameId < listOfGames.length && listOfGames[_gameId].first == msg.sender && listOfGames[_gameId].second == address(0),\"You can't leave the game if you're not the owner!\");\n    listOfGames[_gameId].first = address(0);\n    openGames--;\n  }\n\n\n  //TO DO START GAME, CONTROLLO CHE AMOUNT  STATO DECISO\n\n\n  function randGenerator() private view returns (bytes32){\n    //Helps with random number generation\n    bytes32 bhash=blockhash(block.number-1);\n    bytes memory bytesArray = new bytes(32);\n    for (uint i; i <32; i++)\n    {bytesArray[i] =bhash[i];}\n    bytes32 rand = keccak256(bytesArray);\n    return rand;\n  }\n\n\n}\n",
  "sourcePath": "C:\\Users\\given\\Desktop\\Appunti\\p2p\\Progetto\\Battleship\\contracts\\Battleship.sol",
  "compiler": {
    "name": "solc",
    "version": "0.8.19+commit.7dd6d404.Emscripten.clang"
  },
  "schemaVersion": "3.4.13",
  "updatedAt": "2023-05-23T16:21:51.325Z",
  "networkType": "ethereum",
  "devdoc": {
    "kind": "dev",
    "methods": {},
    "version": 1
  },
  "userdoc": {
    "kind": "user",
    "methods": {},
    "version": 1
  }
}