{
  "contractName": "Battleship",
  "abi": [
    {
      "inputs": [],
      "stateMutability": "nonpayable",
      "type": "constructor"
    },
    {
      "inputs": [
        {
          "internalType": "string",
          "name": "err",
          "type": "string"
        }
      ],
      "name": "ErrorOut",
      "type": "error"
    },
    {
      "anonymous": false,
      "inputs": [
        {
          "indexed": true,
          "internalType": "uint256",
          "name": "_gameId",
          "type": "uint256"
        },
        {
          "indexed": false,
          "internalType": "uint256",
          "name": "_amount",
          "type": "uint256"
        }
      ],
      "name": "AmountDecided",
      "type": "event"
    },
    {
      "anonymous": false,
      "inputs": [
        {
          "indexed": true,
          "internalType": "uint256",
          "name": "_gameId",
          "type": "uint256"
        },
        {
          "indexed": false,
          "internalType": "uint256",
          "name": "_amount",
          "type": "uint256"
        },
        {
          "indexed": false,
          "internalType": "address",
          "name": "_from",
          "type": "address"
        }
      ],
      "name": "AmountToSpend",
      "type": "event"
    },
    {
      "anonymous": false,
      "inputs": [
        {
          "indexed": true,
          "internalType": "address",
          "name": "_first",
          "type": "address"
        },
        {
          "indexed": true,
          "internalType": "address",
          "name": "_second",
          "type": "address"
        },
        {
          "indexed": false,
          "internalType": "uint256",
          "name": "_amountTemp",
          "type": "uint256"
        },
        {
          "indexed": true,
          "internalType": "uint256",
          "name": "_gameId",
          "type": "uint256"
        },
        {
          "indexed": false,
          "internalType": "uint256",
          "name": "_boardDim",
          "type": "uint256"
        }
      ],
      "name": "GameCreated",
      "type": "event"
    },
    {
      "anonymous": false,
      "inputs": [
        {
          "indexed": true,
          "internalType": "address",
          "name": "_first",
          "type": "address"
        },
        {
          "indexed": true,
          "internalType": "address",
          "name": "_second",
          "type": "address"
        }
      ],
      "name": "GameStarted",
      "type": "event"
    },
    {
      "anonymous": false,
      "inputs": [
        {
          "indexed": true,
          "internalType": "address",
          "name": "_from",
          "type": "address"
        },
        {
          "indexed": false,
          "internalType": "uint256",
          "name": "_value",
          "type": "uint256"
        }
      ],
      "name": "UintOutput",
      "type": "event"
    },
    {
      "inputs": [
        {
          "internalType": "uint256",
          "name": "",
          "type": "uint256"
        }
      ],
      "name": "listOfGames",
      "outputs": [
        {
          "internalType": "address",
          "name": "first",
          "type": "address"
        },
        {
          "internalType": "address",
          "name": "second",
          "type": "address"
        },
        {
          "internalType": "uint256",
          "name": "boardDim",
          "type": "uint256"
        },
        {
          "internalType": "uint256",
          "name": "amount",
          "type": "uint256"
        },
        {
          "internalType": "address",
          "name": "amountRequester",
          "type": "address"
        },
        {
          "internalType": "uint256",
          "name": "tempAmount",
          "type": "uint256"
        },
        {
          "internalType": "string",
          "name": "merkleFirst",
          "type": "string"
        },
        {
          "internalType": "string",
          "name": "merkleSecond",
          "type": "string"
        },
        {
          "internalType": "uint256",
          "name": "ethFirst",
          "type": "uint256"
        },
        {
          "internalType": "uint256",
          "name": "ethSecond",
          "type": "uint256"
        }
      ],
      "stateMutability": "view",
      "type": "function",
      "constant": true
    },
    {
      "inputs": [],
      "name": "openGames",
      "outputs": [
        {
          "internalType": "uint256",
          "name": "",
          "type": "uint256"
        }
      ],
      "stateMutability": "view",
      "type": "function",
      "constant": true
    },
    {
      "inputs": [
        {
          "internalType": "uint256",
          "name": "_boardDim",
          "type": "uint256"
        }
      ],
      "name": "CreateGame",
      "outputs": [],
      "stateMutability": "nonpayable",
      "type": "function"
    },
    {
      "inputs": [
        {
          "internalType": "bool",
          "name": "_isRand",
          "type": "bool"
        },
        {
          "internalType": "uint256",
          "name": "_gameIndex",
          "type": "uint256"
        }
      ],
      "name": "JoinGame",
      "outputs": [],
      "stateMutability": "nonpayable",
      "type": "function"
    },
    {
      "inputs": [
        {
          "internalType": "uint256",
          "name": "_gameId",
          "type": "uint256"
        },
        {
          "internalType": "uint256",
          "name": "_amount",
          "type": "uint256"
        }
      ],
      "name": "AmountCommit",
      "outputs": [],
      "stateMutability": "nonpayable",
      "type": "function"
    },
    {
      "inputs": [
        {
          "internalType": "uint256",
          "name": "_gameId",
          "type": "uint256"
        }
      ],
      "name": "AcceptedAmount",
      "outputs": [],
      "stateMutability": "nonpayable",
      "type": "function"
    },
    {
      "inputs": [
        {
          "internalType": "uint256",
          "name": "_gameId",
          "type": "uint256"
        }
      ],
      "name": "receiveEther",
      "outputs": [],
      "stateMutability": "payable",
      "type": "function",
      "payable": true
    },
    {
      "inputs": [],
      "name": "getList",
      "outputs": [
        {
          "components": [
            {
              "internalType": "address",
              "name": "first",
              "type": "address"
            },
            {
              "internalType": "address",
              "name": "second",
              "type": "address"
            },
            {
              "internalType": "uint256",
              "name": "boardDim",
              "type": "uint256"
            },
            {
              "internalType": "uint256",
              "name": "amount",
              "type": "uint256"
            },
            {
              "internalType": "address",
              "name": "amountRequester",
              "type": "address"
            },
            {
              "internalType": "uint256",
              "name": "tempAmount",
              "type": "uint256"
            },
            {
              "internalType": "string",
              "name": "merkleFirst",
              "type": "string"
            },
            {
              "internalType": "string",
              "name": "merkleSecond",
              "type": "string"
            },
            {
              "internalType": "uint256",
              "name": "ethFirst",
              "type": "uint256"
            },
            {
              "internalType": "uint256",
              "name": "ethSecond",
              "type": "uint256"
            }
          ],
          "internalType": "struct Battleship.Game[]",
          "name": "",
          "type": "tuple[]"
        }
      ],
      "stateMutability": "view",
      "type": "function",
      "constant": true
    },
    {
      "inputs": [
        {
          "internalType": "string",
          "name": "_merkleroot",
          "type": "string"
        },
        {
          "internalType": "uint256",
          "name": "_gameId",
          "type": "uint256"
        }
      ],
      "name": "SendMerkleRoot",
      "outputs": [],
      "stateMutability": "nonpayable",
      "type": "function"
    },
    {
      "inputs": [
        {
          "internalType": "string",
          "name": "inString",
          "type": "string"
        }
      ],
      "name": "checkStringNotEmpty",
      "outputs": [
        {
          "internalType": "bool",
          "name": "",
          "type": "bool"
        }
      ],
      "stateMutability": "pure",
      "type": "function",
      "constant": true
    },
    {
      "inputs": [
        {
          "internalType": "uint256",
          "name": "_gameId",
          "type": "uint256"
        }
      ],
      "name": "LeaveGame",
      "outputs": [],
      "stateMutability": "nonpayable",
      "type": "function"
    }
  ],
  "bytecode": "0x6080604052600060015534801561001557600080fd5b5061372f806100256000396000f3fe60806040526004361061009b5760003560e01c8063810ff1fd11610064578063810ff1fd14610160578063942b765a146101895780639e5237c6146101b4578063f2415a32146101dd578063f4023d281461021a578063fac196e6146102605761009b565b80628bdd7d146100a05780630247bd75146100c95780631efa4ec0146100f25780633757767b1461010e5780634dd99ed114610137575b600080fd5b3480156100ac57600080fd5b506100c760048036038101906100c291906124f1565b61028b565b005b3480156100d557600080fd5b506100f060048036038101906100eb9190612531565b6105f3565b005b61010c60048036038101906101079190612531565b6107b2565b005b34801561011a57600080fd5b50610135600480360381019061013091906126a4565b610b09565b005b34801561014357600080fd5b5061015e60048036038101906101599190612531565b61108e565b005b34801561016c57600080fd5b5061018760048036038101906101829190612738565b61157c565b005b34801561019557600080fd5b5061019e611c8c565b6040516101ab91906129ea565b60405180910390f35b3480156101c057600080fd5b506101db60048036038101906101d69190612531565b611f44565b005b3480156101e957600080fd5b5061020460048036038101906101ff9190612a0c565b6121cc565b6040516102119190612a64565b60405180910390f35b34801561022657600080fd5b50610241600480360381019061023c9190612531565b6121da565b6040516102579a99989796959493929190612ae7565b60405180910390f35b34801561026c57600080fd5b506102756123ae565b6040516102829190612b91565b60405180910390f35b600073ffffffffffffffffffffffffffffffffffffffff16600083815481106102b7576102b6612bac565b5b90600052602060002090600a020160000160009054906101000a900473ffffffffffffffffffffffffffffffffffffffff1673ffffffffffffffffffffffffffffffffffffffff160361033f576040517ffa21e39800000000000000000000000000000000000000000000000000000000815260040161033690612c27565b60405180910390fd5b600081118015610353575060008054905082105b610392576040517f08c379a000000000000000000000000000000000000000000000000000000000815260040161038990612cb9565b60405180910390fd5b3373ffffffffffffffffffffffffffffffffffffffff16600083815481106103bd576103bc612bac565b5b90600052602060002090600a020160000160009054906101000a900473ffffffffffffffffffffffffffffffffffffffff1673ffffffffffffffffffffffffffffffffffffffff16148061048157503373ffffffffffffffffffffffffffffffffffffffff166000838154811061043757610436612bac565b5b90600052602060002090600a020160010160009054906101000a900473ffffffffffffffffffffffffffffffffffffffff1673ffffffffffffffffffffffffffffffffffffffff16145b6104c0576040517f08c379a00000000000000000000000000000000000000000000000000000000081526004016104b790612d4b565b60405180910390fd5b60008083815481106104d5576104d4612bac565b5b90600052602060002090600a02016003015414610527576040517ffa21e39800000000000000000000000000000000000000000000000000000000815260040161051e90612ddd565b60405180910390fd5b806000838154811061053c5761053b612bac565b5b90600052602060002090600a020160050181905550336000838154811061056657610565612bac565b5b90600052602060002090600a020160040160006101000a81548173ffffffffffffffffffffffffffffffffffffffff021916908373ffffffffffffffffffffffffffffffffffffffff160217905550817f409c1c0e3993d3b6e249eb7b3e4e216febc2b296f8bcfff69abc401c06998e5482336040516105e7929190612dfd565b60405180910390a25050565b6000805490508110801561067757503373ffffffffffffffffffffffffffffffffffffffff166000828154811061062d5761062c612bac565b5b90600052602060002090600a020160000160009054906101000a900473ffffffffffffffffffffffffffffffffffffffff1673ffffffffffffffffffffffffffffffffffffffff16145b80156106f45750600073ffffffffffffffffffffffffffffffffffffffff16600082815481106106aa576106a9612bac565b5b90600052602060002090600a020160010160009054906101000a900473ffffffffffffffffffffffffffffffffffffffff1673ffffffffffffffffffffffffffffffffffffffff16145b610733576040517f08c379a000000000000000000000000000000000000000000000000000000000815260040161072a90612e98565b60405180910390fd5b600080828154811061074857610747612bac565b5b90600052602060002090600a020160000160006101000a81548173ffffffffffffffffffffffffffffffffffffffff021916908373ffffffffffffffffffffffffffffffffffffffff160217905550600160008154809291906107aa90612ee7565b919050555050565b60008080549050821080156108395750600073ffffffffffffffffffffffffffffffffffffffff16600083815481106107ee576107ed612bac565b5b90600052602060002090600a020160000160009054906101000a900473ffffffffffffffffffffffffffffffffffffffff1673ffffffffffffffffffffffffffffffffffffffff1614155b80156108b75750600073ffffffffffffffffffffffffffffffffffffffff166000838154811061086c5761086b612bac565b5b90600052602060002090600a020160010160009054906101000a900473ffffffffffffffffffffffffffffffffffffffff1673ffffffffffffffffffffffffffffffffffffffff1614155b80156109ae57503373ffffffffffffffffffffffffffffffffffffffff16600083815481106108e9576108e8612bac565b5b90600052602060002090600a020160000160009054906101000a900473ffffffffffffffffffffffffffffffffffffffff1673ffffffffffffffffffffffffffffffffffffffff1614806109ad57503373ffffffffffffffffffffffffffffffffffffffff166000838154811061096357610962612bac565b5b90600052602060002090600a020160010160009054906101000a900473ffffffffffffffffffffffffffffffffffffffff1673ffffffffffffffffffffffffffffffffffffffff16145b5b9050806109f0576040517f08c379a00000000000000000000000000000000000000000000000000000000081526004016109e790612f5c565b60405180910390fd5b60003411610a33576040517f08c379a0000000000000000000000000000000000000000000000000000000008152600401610a2a90612fc8565b60405180910390fd5b3373ffffffffffffffffffffffffffffffffffffffff1660008381548110610a5e57610a5d612bac565b5b90600052602060002090600a020160000160009054906101000a900473ffffffffffffffffffffffffffffffffffffffff1673ffffffffffffffffffffffffffffffffffffffff1603610ada573460008381548110610ac057610abf612bac565b5b90600052602060002090600a020160080181905550610b05565b3460008381548110610aef57610aee612bac565b5b90600052602060002090600a0201600901819055505b5050565b6000808054905082108015610b905750600073ffffffffffffffffffffffffffffffffffffffff1660008381548110610b4557610b44612bac565b5b90600052602060002090600a020160000160009054906101000a900473ffffffffffffffffffffffffffffffffffffffff1673ffffffffffffffffffffffffffffffffffffffff1614155b8015610c0e5750600073ffffffffffffffffffffffffffffffffffffffff1660008381548110610bc357610bc2612bac565b5b90600052602060002090600a020160010160009054906101000a900473ffffffffffffffffffffffffffffffffffffffff1673ffffffffffffffffffffffffffffffffffffffff1614155b8015610d0557503373ffffffffffffffffffffffffffffffffffffffff1660008381548110610c4057610c3f612bac565b5b90600052602060002090600a020160000160009054906101000a900473ffffffffffffffffffffffffffffffffffffffff1673ffffffffffffffffffffffffffffffffffffffff161480610d0457503373ffffffffffffffffffffffffffffffffffffffff1660008381548110610cba57610cb9612bac565b5b90600052602060002090600a020160010160009054906101000a900473ffffffffffffffffffffffffffffffffffffffff1673ffffffffffffffffffffffffffffffffffffffff16145b5b905080610d47576040517f08c379a0000000000000000000000000000000000000000000000000000000008152600401610d3e90612f5c565b60405180910390fd5b3373ffffffffffffffffffffffffffffffffffffffff1660008381548110610d7257610d71612bac565b5b90600052602060002090600a020160000160009054906101000a900473ffffffffffffffffffffffffffffffffffffffff1673ffffffffffffffffffffffffffffffffffffffff1603610df7578260008381548110610dd457610dd3612bac565b5b90600052602060002090600a02016006019081610df191906131f4565b50610e2b565b8260008381548110610e0c57610e0b612bac565b5b90600052602060002090600a02016007019081610e2991906131f4565b505b610ee160008381548110610e4257610e41612bac565b5b90600052602060002090600a02016007018054610e5e90613017565b80601f0160208091040260200160405190810160405280929190818152602001828054610e8a90613017565b8015610ed75780601f10610eac57610100808354040283529160200191610ed7565b820191906000526020600020905b815481529060010190602001808311610eba57829003601f168201915b50505050506121cc565b8015610f9f5750610f9e60008381548110610eff57610efe612bac565b5b90600052602060002090600a02016006018054610f1b90613017565b80601f0160208091040260200160405190810160405280929190818152602001828054610f4790613017565b8015610f945780601f10610f6957610100808354040283529160200191610f94565b820191906000526020600020905b815481529060010190602001808311610f7757829003601f168201915b50505050506121cc565b5b156110895760008281548110610fb857610fb7612bac565b5b90600052602060002090600a020160010160009054906101000a900473ffffffffffffffffffffffffffffffffffffffff1673ffffffffffffffffffffffffffffffffffffffff166000838154811061101457611013612bac565b5b90600052602060002090600a020160000160009054906101000a900473ffffffffffffffffffffffffffffffffffffffff1673ffffffffffffffffffffffffffffffffffffffff167f55b25d7f9b5bf8ea934ba7079455d2ba00c68ea7e66c13695275f6b75b95e5f860405160405180910390a35b505050565b60008080549050821080156111155750600073ffffffffffffffffffffffffffffffffffffffff16600083815481106110ca576110c9612bac565b5b90600052602060002090600a020160000160009054906101000a900473ffffffffffffffffffffffffffffffffffffffff1673ffffffffffffffffffffffffffffffffffffffff1614155b80156111935750600073ffffffffffffffffffffffffffffffffffffffff166000838154811061114857611147612bac565b5b90600052602060002090600a020160010160009054906101000a900473ffffffffffffffffffffffffffffffffffffffff1673ffffffffffffffffffffffffffffffffffffffff1614155b801561128a57503373ffffffffffffffffffffffffffffffffffffffff16600083815481106111c5576111c4612bac565b5b90600052602060002090600a020160000160009054906101000a900473ffffffffffffffffffffffffffffffffffffffff1673ffffffffffffffffffffffffffffffffffffffff16148061128957503373ffffffffffffffffffffffffffffffffffffffff166000838154811061123f5761123e612bac565b5b90600052602060002090600a020160010160009054906101000a900473ffffffffffffffffffffffffffffffffffffffff1673ffffffffffffffffffffffffffffffffffffffff16145b5b9050806112cc576040517f08c379a00000000000000000000000000000000000000000000000000000000081526004016112c390612f5c565b60405180910390fd5b600073ffffffffffffffffffffffffffffffffffffffff16600083815481106112f8576112f7612bac565b5b90600052602060002090600a020160040160009054906101000a900473ffffffffffffffffffffffffffffffffffffffff1673ffffffffffffffffffffffffffffffffffffffff16141580156113bf57503373ffffffffffffffffffffffffffffffffffffffff166000838154811061137457611373612bac565b5b90600052602060002090600a020160040160009054906101000a900473ffffffffffffffffffffffffffffffffffffffff1673ffffffffffffffffffffffffffffffffffffffff1614155b6113fe576040517f08c379a00000000000000000000000000000000000000000000000000000000081526004016113f590612f5c565b60405180910390fd5b600080838154811061141357611412612bac565b5b90600052602060002090600a02016003015414611465576040517ffa21e39800000000000000000000000000000000000000000000000000000000815260040161145c90613338565b60405180910390fd5b600080838154811061147a57611479612bac565b5b90600052602060002090600a020160050154036114cc576040517ffa21e3980000000000000000000000000000000000000000000000000000000081526004016114c3906133ca565b60405180910390fd5b600082815481106114e0576114df612bac565b5b90600052602060002090600a0201600501546000838154811061150657611505612bac565b5b90600052602060002090600a020160030181905550817f387ea7507bd65e609b1530432f9974fcb6227f213d6141475c009b49447bd8796000848154811061155157611550612bac565b5b90600052602060002090600a0201600301546040516115709190612b91565b60405180910390a25050565b6000600154116115c1576040517ffa21e3980000000000000000000000000000000000000000000000000000000081526004016115b890613436565b60405180910390fd5b600080836117fc576000805490508310611610576040517f08c379a000000000000000000000000000000000000000000000000000000000815260040161160790612f5c565b60405180910390fd5b829050600073ffffffffffffffffffffffffffffffffffffffff166000828154811061163f5761163e612bac565b5b90600052602060002090600a020160000160009054906101000a900473ffffffffffffffffffffffffffffffffffffffff1673ffffffffffffffffffffffffffffffffffffffff16036116c7576040517ffa21e3980000000000000000000000000000000000000000000000000000000081526004016116be906134c8565b60405180910390fd5b600073ffffffffffffffffffffffffffffffffffffffff16600082815481106116f3576116f2612bac565b5b90600052602060002090600a020160010160009054906101000a900473ffffffffffffffffffffffffffffffffffffffff1673ffffffffffffffffffffffffffffffffffffffff161461177b576040517ffa21e39800000000000000000000000000000000000000000000000000000000815260040161177290613534565b60405180910390fd5b33600082815481106117905761178f612bac565b5b90600052602060002090600a020160010160006101000a81548173ffffffffffffffffffffffffffffffffffffffff021916908373ffffffffffffffffffffffffffffffffffffffff160217905550600160008154809291906117f290612ee7565b9190505550600191505b838015611807575081155b15611b035760006118166123b4565b90506000600180548360001c61182c9190613583565b61183691906135b4565b905060005b600080549050811015611aff57600073ffffffffffffffffffffffffffffffffffffffff166000828154811061187457611873612bac565b5b90600052602060002090600a020160010160009054906101000a900473ffffffffffffffffffffffffffffffffffffffff1673ffffffffffffffffffffffffffffffffffffffff1614801561193b5750600073ffffffffffffffffffffffffffffffffffffffff16600082815481106118f0576118ef612bac565b5b90600052602060002090600a020160000160009054906101000a900473ffffffffffffffffffffffffffffffffffffffff1673ffffffffffffffffffffffffffffffffffffffff1614155b80156119475750600182115b1561195f57818061195790612ee7565b925050611aec565b600073ffffffffffffffffffffffffffffffffffffffff166000828154811061198b5761198a612bac565b5b90600052602060002090600a020160010160009054906101000a900473ffffffffffffffffffffffffffffffffffffffff1673ffffffffffffffffffffffffffffffffffffffff16148015611a525750600073ffffffffffffffffffffffffffffffffffffffff1660008281548110611a0757611a06612bac565b5b90600052602060002090600a020160000160009054906101000a900473ffffffffffffffffffffffffffffffffffffffff1673ffffffffffffffffffffffffffffffffffffffff1614155b8015611a5e5750600182145b15611aeb573360008281548110611a7857611a77612bac565b5b90600052602060002090600a020160010160006101000a81548173ffffffffffffffffffffffffffffffffffffffff021916908373ffffffffffffffffffffffffffffffffffffffff16021790555080935060016000815480929190611add90612ee7565b919050555060019450611aff565b5b8080611af7906135e8565b91505061183b565b5050505b8115611c46578060008281548110611b1e57611b1d612bac565b5b90600052602060002090600a020160010160009054906101000a900473ffffffffffffffffffffffffffffffffffffffff1673ffffffffffffffffffffffffffffffffffffffff1660008381548110611b7a57611b79612bac565b5b90600052602060002090600a020160000160009054906101000a900473ffffffffffffffffffffffffffffffffffffffff1673ffffffffffffffffffffffffffffffffffffffff167f2b7edc1c70992f06c5b03b366b7ee660492520d1d8fc88d486f323e4483693c960008581548110611bf757611bf6612bac565b5b90600052602060002090600a02016005015460008681548110611c1d57611c1c612bac565b5b90600052602060002090600a020160020154604051611c3d929190613630565b60405180910390a45b81611c86576040517ffa21e398000000000000000000000000000000000000000000000000000000008152600401611c7d906136a5565b60405180910390fd5b50505050565b60606000805480602002602001604051908101604052809291908181526020016000905b82821015611f3b57838290600052602060002090600a0201604051806101400160405290816000820160009054906101000a900473ffffffffffffffffffffffffffffffffffffffff1673ffffffffffffffffffffffffffffffffffffffff1673ffffffffffffffffffffffffffffffffffffffff1681526020016001820160009054906101000a900473ffffffffffffffffffffffffffffffffffffffff1673ffffffffffffffffffffffffffffffffffffffff1673ffffffffffffffffffffffffffffffffffffffff16815260200160028201548152602001600382015481526020016004820160009054906101000a900473ffffffffffffffffffffffffffffffffffffffff1673ffffffffffffffffffffffffffffffffffffffff1673ffffffffffffffffffffffffffffffffffffffff16815260200160058201548152602001600682018054611e0490613017565b80601f0160208091040260200160405190810160405280929190818152602001828054611e3090613017565b8015611e7d5780601f10611e5257610100808354040283529160200191611e7d565b820191906000526020600020905b815481529060010190602001808311611e6057829003601f168201915b50505050508152602001600782018054611e9690613017565b80601f0160208091040260200160405190810160405280929190818152602001828054611ec290613017565b8015611f0f5780601f10611ee457610100808354040283529160200191611f0f565b820191906000526020600020905b815481529060010190602001808311611ef257829003601f168201915b505050505081526020016008820154815260200160098201548152505081526020019060010190611cb0565b50505050905090565b60006040518061014001604052803373ffffffffffffffffffffffffffffffffffffffff168152602001600073ffffffffffffffffffffffffffffffffffffffff16815260200183815260200160008152602001600073ffffffffffffffffffffffffffffffffffffffff1681526020016000815260200160405180602001604052806000815250815260200160405180602001604052806000815250815260200160008152602001600081525090806001815401808255809150506001900390600052602060002090600a020160009091909190915060008201518160000160006101000a81548173ffffffffffffffffffffffffffffffffffffffff021916908373ffffffffffffffffffffffffffffffffffffffff16021790555060208201518160010160006101000a81548173ffffffffffffffffffffffffffffffffffffffff021916908373ffffffffffffffffffffffffffffffffffffffff160217905550604082015181600201556060820151816003015560808201518160040160006101000a81548173ffffffffffffffffffffffffffffffffffffffff021916908373ffffffffffffffffffffffffffffffffffffffff16021790555060a0820151816005015560c082015181600601908161212391906131f4565b5060e082015181600701908161213991906131f4565b5061010082015181600801556101208201518160090155505060016000815480929190612165906135e8565b91905055503373ffffffffffffffffffffffffffffffffffffffff167f98fe6bfadae13408aaa640b94cce01ef446d3cb316585dd37dcfc4ebe23f732960016000805490506121b491906136c5565b6040516121c19190612b91565b60405180910390a250565b600080825114159050919050565b600081815481106121ea57600080fd5b90600052602060002090600a02016000915090508060000160009054906101000a900473ffffffffffffffffffffffffffffffffffffffff16908060010160009054906101000a900473ffffffffffffffffffffffffffffffffffffffff16908060020154908060030154908060040160009054906101000a900473ffffffffffffffffffffffffffffffffffffffff169080600501549080600601805461229190613017565b80601f01602080910402602001604051908101604052809291908181526020018280546122bd90613017565b801561230a5780601f106122df5761010080835404028352916020019161230a565b820191906000526020600020905b8154815290600101906020018083116122ed57829003601f168201915b50505050509080600701805461231f90613017565b80601f016020809104026020016040519081016040528092919081815260200182805461234b90613017565b80156123985780601f1061236d57610100808354040283529160200191612398565b820191906000526020600020905b81548152906001019060200180831161237b57829003601f168201915b505050505090806008015490806009015490508a565b60015481565b6000806001436123c491906136c5565b4090506000602067ffffffffffffffff8111156123e4576123e3612579565b5b6040519080825280601f01601f1916602001820160405280156124165781602001600182028036833780820191505090505b50905060005b60208110156124915782816020811061243857612437612bac565b5b1a60f81b82828151811061244f5761244e612bac565b5b60200101907effffffffffffffffffffffffffffffffffffffffffffffffffffffffffffff1916908160001a9053508080612489906135e8565b91505061241c565b5060008180519060200120905080935050505090565b6000604051905090565b600080fd5b600080fd5b6000819050919050565b6124ce816124bb565b81146124d957600080fd5b50565b6000813590506124eb816124c5565b92915050565b60008060408385031215612508576125076124b1565b5b6000612516858286016124dc565b9250506020612527858286016124dc565b9150509250929050565b600060208284031215612547576125466124b1565b5b6000612555848285016124dc565b91505092915050565b600080fd5b600080fd5b6000601f19601f8301169050919050565b7f4e487b7100000000000000000000000000000000000000000000000000000000600052604160045260246000fd5b6125b182612568565b810181811067ffffffffffffffff821117156125d0576125cf612579565b5b80604052505050565b60006125e36124a7565b90506125ef82826125a8565b919050565b600067ffffffffffffffff82111561260f5761260e612579565b5b61261882612568565b9050602081019050919050565b82818337600083830152505050565b6000612647612642846125f4565b6125d9565b90508281526020810184848401111561266357612662612563565b5b61266e848285612625565b509392505050565b600082601f83011261268b5761268a61255e565b5b813561269b848260208601612634565b91505092915050565b600080604083850312156126bb576126ba6124b1565b5b600083013567ffffffffffffffff8111156126d9576126d86124b6565b5b6126e585828601612676565b92505060206126f6858286016124dc565b9150509250929050565b60008115159050919050565b61271581612700565b811461272057600080fd5b50565b6000813590506127328161270c565b92915050565b6000806040838503121561274f5761274e6124b1565b5b600061275d85828601612723565b925050602061276e858286016124dc565b9150509250929050565b600081519050919050565b600082825260208201905092915050565b6000819050602082019050919050565b600073ffffffffffffffffffffffffffffffffffffffff82169050919050565b60006127cf826127a4565b9050919050565b6127df816127c4565b82525050565b6127ee816124bb565b82525050565b600081519050919050565b600082825260208201905092915050565b60005b8381101561282e578082015181840152602081019050612813565b60008484015250505050565b6000612845826127f4565b61284f81856127ff565b935061285f818560208601612810565b61286881612568565b840191505092915050565b60006101408301600083015161288c60008601826127d6565b50602083015161289f60208601826127d6565b5060408301516128b260408601826127e5565b5060608301516128c560608601826127e5565b5060808301516128d860808601826127d6565b5060a08301516128eb60a08601826127e5565b5060c083015184820360c0860152612903828261283a565b91505060e083015184820360e086015261291d828261283a565b9150506101008301516129346101008601826127e5565b506101208301516129496101208601826127e5565b508091505092915050565b60006129608383612873565b905092915050565b6000602082019050919050565b600061298082612778565b61298a8185612783565b93508360208202850161299c85612794565b8060005b858110156129d857848403895281516129b98582612954565b94506129c483612968565b925060208a019950506001810190506129a0565b50829750879550505050505092915050565b60006020820190508181036000830152612a048184612975565b905092915050565b600060208284031215612a2257612a216124b1565b5b600082013567ffffffffffffffff811115612a4057612a3f6124b6565b5b612a4c84828501612676565b91505092915050565b612a5e81612700565b82525050565b6000602082019050612a796000830184612a55565b92915050565b612a88816127c4565b82525050565b612a97816124bb565b82525050565b600082825260208201905092915050565b6000612ab9826127f4565b612ac38185612a9d565b9350612ad3818560208601612810565b612adc81612568565b840191505092915050565b600061014082019050612afd600083018d612a7f565b612b0a602083018c612a7f565b612b17604083018b612a8e565b612b24606083018a612a8e565b612b316080830189612a7f565b612b3e60a0830188612a8e565b81810360c0830152612b508187612aae565b905081810360e0830152612b648186612aae565b9050612b74610100830185612a8e565b612b82610120830184612a8e565b9b9a5050505050505050505050565b6000602082019050612ba66000830184612a8e565b92915050565b7f4e487b7100000000000000000000000000000000000000000000000000000000600052603260045260246000fd5b7f5468652063726561746f72206964206973206e756c6c00000000000000000000600082015250565b6000612c11601683612a9d565b9150612c1c82612bdb565b602082019050919050565b60006020820190508181036000830152612c4081612c04565b9050919050565b7f54686520616d6f756e74206f72207468652067616d65496420617265206e756c60008201527f6c21000000000000000000000000000000000000000000000000000000000000602082015250565b6000612ca3602283612a9d565b9150612cae82612c47565b604082019050919050565b60006020820190508181036000830152612cd281612c96565b9050919050565b7f746869732075736572206973206e6f742070617274206f66207468652067616d60008201527f6521000000000000000000000000000000000000000000000000000000000000602082015250565b6000612d35602283612a9d565b9150612d4082612cd9565b604082019050919050565b60006020820190508181036000830152612d6481612d28565b9050919050565b7f54686520616d6f756e7420666f7220746869732067616d652068617320616c7260008201527f65616479206265656e2064656369646564000000000000000000000000000000602082015250565b6000612dc7603183612a9d565b9150612dd282612d6b565b604082019050919050565b60006020820190508181036000830152612df681612dba565b9050919050565b6000604082019050612e126000830185612a8e565b612e1f6020830184612a7f565b9392505050565b7f596f752063616e2774206c65617665207468652067616d6520696620796f752760008201527f7265206e6f7420746865206f776e657221000000000000000000000000000000602082015250565b6000612e82603183612a9d565b9150612e8d82612e26565b604082019050919050565b60006020820190508181036000830152612eb181612e75565b9050919050565b7f4e487b7100000000000000000000000000000000000000000000000000000000600052601160045260246000fd5b6000612ef2826124bb565b915060008203612f0557612f04612eb8565b5b600182039050919050565b7f536f6d657468696e672077656e742077726f6e67210000000000000000000000600082015250565b6000612f46601583612a9d565b9150612f5182612f10565b602082019050919050565b60006020820190508181036000830152612f7581612f39565b9050919050565b7f4574682061726520302100000000000000000000000000000000000000000000600082015250565b6000612fb2600a83612a9d565b9150612fbd82612f7c565b602082019050919050565b60006020820190508181036000830152612fe181612fa5565b9050919050565b7f4e487b7100000000000000000000000000000000000000000000000000000000600052602260045260246000fd5b6000600282049050600182168061302f57607f821691505b60208210810361304257613041612fe8565b5b50919050565b60008190508160005260206000209050919050565b60006020601f8301049050919050565b600082821b905092915050565b6000600883026130aa7fffffffffffffffffffffffffffffffffffffffffffffffffffffffffffffffff8261306d565b6130b4868361306d565b95508019841693508086168417925050509392505050565b6000819050919050565b60006130f16130ec6130e7846124bb565b6130cc565b6124bb565b9050919050565b6000819050919050565b61310b836130d6565b61311f613117826130f8565b84845461307a565b825550505050565b600090565b613134613127565b61313f818484613102565b505050565b5b818110156131635761315860008261312c565b600181019050613145565b5050565b601f8211156131a85761317981613048565b6131828461305d565b81016020851015613191578190505b6131a561319d8561305d565b830182613144565b50505b505050565b600082821c905092915050565b60006131cb600019846008026131ad565b1980831691505092915050565b60006131e483836131ba565b9150826002028217905092915050565b6131fd826127f4565b67ffffffffffffffff81111561321657613215612579565b5b6132208254613017565b61322b828285613167565b600060209050601f83116001811461325e576000841561324c578287015190505b61325685826131d8565b8655506132be565b601f19841661326c86613048565b60005b828110156132945784890151825560018201915060208501945060208101905061326f565b868310156132b157848901516132ad601f8916826131ba565b8355505b6001600288020188555050505b505050505050565b7f54686520616d6f756e7420666f7220746869732067616d652068617320616c7260008201527f65616479206265656e2064656369646564210000000000000000000000000000602082015250565b6000613322603283612a9d565b915061332d826132c6565b604082019050919050565b6000602082019050818103600083015261335181613315565b9050919050565b7f54686520616d6f756e7420666f7220746869732067616d65207761736e27742060008201527f6465636964656420796574210000000000000000000000000000000000000000602082015250565b60006133b4602c83612a9d565b91506133bf82613358565b604082019050919050565b600060208201905081810360008301526133e3816133a7565b9050919050565b7f4e6f206f70656e2067616d657300000000000000000000000000000000000000600082015250565b6000613420600d83612a9d565b915061342b826133ea565b602082019050919050565b6000602082019050818103600083015261344f81613413565b9050919050565b7f596f752063616e2774206a6f696e20746869732067616d652c2062656361757360008201527f652074686572652773206e6f20706c6179657220686572652100000000000000602082015250565b60006134b2603983612a9d565b91506134bd82613456565b604082019050919050565b600060208201905081810360008301526134e1816134a5565b9050919050565b7f47616d65206973206e6f74204672656500000000000000000000000000000000600082015250565b600061351e601083612a9d565b9150613529826134e8565b602082019050919050565b6000602082019050818103600083015261354d81613511565b9050919050565b7f4e487b7100000000000000000000000000000000000000000000000000000000600052601260045260246000fd5b600061358e826124bb565b9150613599836124bb565b9250826135a9576135a8613554565b5b828206905092915050565b60006135bf826124bb565b91506135ca836124bb565b92508282019050808211156135e2576135e1612eb8565b5b92915050565b60006135f3826124bb565b91507fffffffffffffffffffffffffffffffffffffffffffffffffffffffffffffffff820361362557613624612eb8565b5b600182019050919050565b60006040820190506136456000830185612a8e565b6136526020830184612a8e565b9392505050565b7f4e6f742061626c6520746f2066696e6420616e206f70656e2067616d65000000600082015250565b600061368f601d83612a9d565b915061369a82613659565b602082019050919050565b600060208201905081810360008301526136be81613682565b9050919050565b60006136d0826124bb565b91506136db836124bb565b92508282039050818111156136f3576136f2612eb8565b5b9291505056fea26469706673582212208d2225ace2b477c36f2506dbef8d74da22f565724e85d87bf5cd8da6e66b674964736f6c63430008130033",
  "immutableReferences": {},
  "source": "// SPDX-License-Identifier: MIT\npragma solidity >=0.4.22 <0.9.0;\n\ncontract Battleship {\n  //struct for the Game\n  struct Game {\n        address first;\n        address second;\n        uint boardDim;\n        uint amount;\n        address amountRequester;//used to don't allow a user to commit an amount and accept it all by himself.\n        uint tempAmount;\n        string merkleFirst;\n        string merkleSecond;\n        uint ethFirst;\n        uint ethSecond;\n  }\n  //event to send when game starts\n  event GameCreated(address indexed _first,address indexed _second,uint _amountTemp ,uint indexed _gameId,uint _boardDim);\n  //event to declare the amount of money the game will have, it is used during the decision of how much money to spend in the game\n  event AmountToSpend(uint indexed _gameId,uint _amount,address _from);\n  //event for the amount that the game will have\n  event AmountDecided(uint indexed _gameId,uint _amount);\n  //event for outputting an uint value\n  event UintOutput(address indexed _from,uint _value);\n  //ErrorOut string\n  error ErrorOut(string err);\n  //The game has officially started.\n  event GameStarted(address indexed _first, address indexed _second);\n\n  //Array of games\n  Game[] public listOfGames;\n  //variable to keep the number of open games.\n  uint public openGames = 0;\n  constructor() {\n  }\n\n  function CreateGame(uint _boardDim) public{ //Game Creation, creates a game with only the first player saved.\n    listOfGames.push(Game(msg.sender,address(0),_boardDim,0,address(0),0,\"\",\"\",0,0));\n    openGames++;\n    emit UintOutput(msg.sender,listOfGames.length - 1); \n  }\n  function JoinGame(bool _isRand,uint _gameIndex) public {//Join a game.\n    if(openGames <= 0) revert ErrorOut({err:\"No open games\"});\n    \n    bool found = false;\n    uint returnIndex = 0;\n    if(!_isRand) { //can be joined specifically by passing a game id.\n      require(_gameIndex < listOfGames.length,\"Something went wrong!\");\n      returnIndex = _gameIndex;\n      if(listOfGames[returnIndex].first == address(0)) revert ErrorOut({err:\"You can't join this game, because there's no player here!\"});\n      //if(listOfGames[returnIndex].first == msg.sender) revert(\"User can't access his own game!\");\n      if(listOfGames[returnIndex].second != address(0)) revert ErrorOut({err:\"Game is not Free\"});\n      listOfGames[(returnIndex)].second = msg.sender;\n      openGames--;\n      found = true;\n    }\n    //can be joined randomly, the contract will find a random game from the open ones.\n\n    if(_isRand && !found){\n      bytes32 rand = randGenerator();\n      uint index = uint(rand) % openGames + 1;\n      for(uint i = 0; i < listOfGames.length; i++){\n        if(listOfGames[i].second == address(0) && listOfGames[i].first != address(0) && index > 1) index--;\n        else if (listOfGames[i].second == address(0) && listOfGames[i].first != address(0) && index == 1) {\n          listOfGames[i].second = msg.sender;\n          returnIndex = i;\n          openGames--;\n          found = true;\n          break;\n        }\n      }\n    }\n\n    if(found) emit GameCreated(listOfGames[returnIndex].first,listOfGames[returnIndex].second,listOfGames[returnIndex].tempAmount,returnIndex,listOfGames[returnIndex].boardDim);\n      \n    if(!found)revert ErrorOut({err:\"Not able to find an open game\"});\n  }\n\n  function AmountCommit(uint _gameId,uint _amount) public{\n    if(listOfGames[_gameId].first == address(0)) revert ErrorOut({err:\"The creator id is null\"});\n    require(_amount > 0 && _gameId < listOfGames.length,\"The amount or the gameId are null!\");\n    require(listOfGames[_gameId].first == msg.sender || listOfGames[_gameId].second == msg.sender,\"this user is not part of the game!\");\n    if(listOfGames[_gameId].amount != 0) revert ErrorOut({err:\"The amount for this game has already been decided\"});\n    listOfGames[_gameId].tempAmount = _amount;\n    listOfGames[_gameId].amountRequester = msg.sender;\n    emit AmountToSpend(_gameId, _amount,msg.sender);\n  }\n  function AcceptedAmount(uint _gameId) public {\n    bool condition = _gameId < listOfGames.length && listOfGames[_gameId].first != address(0) && listOfGames[_gameId].second != address(0) && (listOfGames[_gameId].first == msg.sender || listOfGames[_gameId].second == msg.sender);\n    require(condition,\"Something went wrong!\");\n    require(listOfGames[_gameId].amountRequester != address(0) && listOfGames[_gameId].amountRequester != msg.sender,\"Something went wrong!\");\n    if(listOfGames[_gameId].amount != 0) revert ErrorOut({err:\"The amount for this game has already been decided!\"});\n    if(listOfGames[_gameId].tempAmount == 0) revert ErrorOut({err:\"The amount for this game wasn't decided yet!\"});\n    listOfGames[_gameId].amount = listOfGames[_gameId].tempAmount;\n    emit AmountDecided(_gameId,listOfGames[_gameId].amount);\n  }\n  function receiveEther(uint _gameId) external payable {\n    bool condition = _gameId < listOfGames.length && listOfGames[_gameId].first != address(0) && listOfGames[_gameId].second != address(0) && (listOfGames[_gameId].first == msg.sender || listOfGames[_gameId].second == msg.sender);\n    require(condition,\"Something went wrong!\");\n    require(msg.value > 0,\"Eth are 0!\");\n    if(listOfGames[_gameId].first == msg.sender) listOfGames[_gameId].ethFirst = msg.value;\n    else listOfGames[_gameId].ethSecond = msg.value;\n    }\n    function getList() public view returns (Game[] memory){\n      return listOfGames;\n    }\n\n  function SendMerkleRoot(string memory _merkleroot, uint _gameId) public{//Done at the start of the game by both players, otherwise the game don't start.\n    bool condition = _gameId < listOfGames.length && listOfGames[_gameId].first != address(0) && listOfGames[_gameId].second != address(0) && (listOfGames[_gameId].first == msg.sender || listOfGames[_gameId].second == msg.sender);\n    require(condition,\"Something went wrong!\");\n    if(listOfGames[_gameId].first == msg.sender) listOfGames[_gameId].merkleFirst = _merkleroot;\n    else listOfGames[_gameId].merkleSecond = _merkleroot;\n    if(checkStringNotEmpty(listOfGames[_gameId].merkleSecond) && checkStringNotEmpty(listOfGames[_gameId].merkleFirst)) emit GameStarted(listOfGames[_gameId].first, listOfGames[_gameId].second);\n  }\n\n   function checkStringNotEmpty(string memory inString) public pure returns (bool) {\n        return bytes(inString).length != 0;\n    }\n\n  function LeaveGame(uint _gameId) public { //you can leave the game only if you are the creator and before the game has started.\n    require(_gameId < listOfGames.length && listOfGames[_gameId].first == msg.sender && listOfGames[_gameId].second == address(0),\"You can't leave the game if you're not the owner!\");\n    listOfGames[_gameId].first = address(0);\n    openGames--;\n  }\n\n\n  //TO DO START GAME, CONTROLLO CHE AMOUNT  STATO DECISO\n\n\n  function randGenerator() private view returns (bytes32){\n    //Helps with random number generation\n    bytes32 bhash=blockhash(block.number-1);\n    bytes memory bytesArray = new bytes(32);\n    for (uint i; i <32; i++)\n    {bytesArray[i] =bhash[i];}\n    bytes32 rand = keccak256(bytesArray);\n    return rand;\n  }\n\n\n}\n",
  "sourcePath": "C:\\Users\\given\\Desktop\\Appunti\\p2p\\Progetto\\Battleship\\contracts\\Battleship.sol",
  "compiler": {
    "name": "solc",
    "version": "0.8.19+commit.7dd6d404.Emscripten.clang"
  },
  "schemaVersion": "3.4.13",
  "updatedAt": "2023-05-25T15:31:34.930Z",
  "networkType": "ethereum",
  "devdoc": {
    "kind": "dev",
    "methods": {},
    "version": 1
  },
  "userdoc": {
    "kind": "user",
    "methods": {},
    "version": 1
  }
}