{
  "contractName": "Battleship",
  "abi": [
    {
      "inputs": [],
      "stateMutability": "nonpayable",
      "type": "constructor"
    },
    {
      "inputs": [
        {
          "internalType": "string",
          "name": "err",
          "type": "string"
        }
      ],
      "name": "ErrorOut",
      "type": "error"
    },
    {
      "anonymous": false,
      "inputs": [
        {
          "indexed": true,
          "internalType": "uint256",
          "name": "_gameId",
          "type": "uint256"
        },
        {
          "indexed": false,
          "internalType": "address",
          "name": "_accused",
          "type": "address"
        },
        {
          "indexed": false,
          "internalType": "address",
          "name": "_accuser",
          "type": "address"
        }
      ],
      "name": "AccusationTriggered",
      "type": "event"
    },
    {
      "anonymous": false,
      "inputs": [
        {
          "indexed": true,
          "internalType": "uint256",
          "name": "_gameId",
          "type": "uint256"
        },
        {
          "indexed": false,
          "internalType": "uint256",
          "name": "_amount",
          "type": "uint256"
        }
      ],
      "name": "AmountDecided",
      "type": "event"
    },
    {
      "anonymous": false,
      "inputs": [
        {
          "indexed": true,
          "internalType": "uint256",
          "name": "_gameId",
          "type": "uint256"
        },
        {
          "indexed": false,
          "internalType": "uint256",
          "name": "_amount",
          "type": "uint256"
        },
        {
          "indexed": false,
          "internalType": "address",
          "name": "_from",
          "type": "address"
        }
      ],
      "name": "AmountToSpend",
      "type": "event"
    },
    {
      "anonymous": false,
      "inputs": [
        {
          "indexed": true,
          "internalType": "uint256",
          "name": "_gameId",
          "type": "uint256"
        },
        {
          "indexed": false,
          "internalType": "address",
          "name": "_attacker",
          "type": "address"
        },
        {
          "indexed": false,
          "internalType": "address",
          "name": "_opponent",
          "type": "address"
        },
        {
          "indexed": false,
          "internalType": "uint256",
          "name": "_row",
          "type": "uint256"
        },
        {
          "indexed": false,
          "internalType": "uint256",
          "name": "_col",
          "type": "uint256"
        }
      ],
      "name": "AttackOpp",
      "type": "event"
    },
    {
      "anonymous": false,
      "inputs": [
        {
          "indexed": false,
          "internalType": "string",
          "name": "_result",
          "type": "string"
        },
        {
          "indexed": false,
          "internalType": "address",
          "name": "_attacker",
          "type": "address"
        },
        {
          "indexed": false,
          "internalType": "uint256",
          "name": "_gameId",
          "type": "uint256"
        }
      ],
      "name": "AttackRes",
      "type": "event"
    },
    {
      "anonymous": false,
      "inputs": [
        {
          "indexed": true,
          "internalType": "address",
          "name": "_first",
          "type": "address"
        },
        {
          "indexed": true,
          "internalType": "address",
          "name": "_second",
          "type": "address"
        },
        {
          "indexed": false,
          "internalType": "uint256",
          "name": "_amountTemp",
          "type": "uint256"
        },
        {
          "indexed": true,
          "internalType": "uint256",
          "name": "_gameId",
          "type": "uint256"
        },
        {
          "indexed": false,
          "internalType": "uint256",
          "name": "_boardDim",
          "type": "uint256"
        },
        {
          "indexed": false,
          "internalType": "uint256",
          "name": "_numberOfShips",
          "type": "uint256"
        }
      ],
      "name": "GameCreated",
      "type": "event"
    },
    {
      "anonymous": false,
      "inputs": [
        {
          "indexed": true,
          "internalType": "uint256",
          "name": "_gameId",
          "type": "uint256"
        },
        {
          "indexed": false,
          "internalType": "address",
          "name": "_winner",
          "type": "address"
        },
        {
          "indexed": false,
          "internalType": "address",
          "name": "_loser",
          "type": "address"
        },
        {
          "indexed": false,
          "internalType": "string",
          "name": "_cause",
          "type": "string"
        }
      ],
      "name": "GameEnd",
      "type": "event"
    },
    {
      "anonymous": false,
      "inputs": [
        {
          "indexed": true,
          "internalType": "address",
          "name": "_first",
          "type": "address"
        },
        {
          "indexed": true,
          "internalType": "address",
          "name": "_second",
          "type": "address"
        }
      ],
      "name": "GameStarted",
      "type": "event"
    },
    {
      "anonymous": false,
      "inputs": [
        {
          "indexed": true,
          "internalType": "address",
          "name": "_from",
          "type": "address"
        },
        {
          "indexed": false,
          "internalType": "uint256",
          "name": "_value",
          "type": "uint256"
        }
      ],
      "name": "UintOutput",
      "type": "event"
    },
    {
      "inputs": [
        {
          "internalType": "uint256",
          "name": "",
          "type": "uint256"
        }
      ],
      "name": "listOfGames",
      "outputs": [
        {
          "internalType": "address",
          "name": "first",
          "type": "address"
        },
        {
          "internalType": "address",
          "name": "second",
          "type": "address"
        },
        {
          "internalType": "uint256",
          "name": "boardDim",
          "type": "uint256"
        },
        {
          "internalType": "uint256",
          "name": "amount",
          "type": "uint256"
        },
        {
          "internalType": "address",
          "name": "amountRequester",
          "type": "address"
        },
        {
          "internalType": "uint256",
          "name": "tempAmount",
          "type": "uint256"
        },
        {
          "internalType": "bytes32",
          "name": "merkleFirst",
          "type": "bytes32"
        },
        {
          "internalType": "bytes32",
          "name": "merkleSecond",
          "type": "bytes32"
        },
        {
          "internalType": "uint256",
          "name": "ethFirst",
          "type": "uint256"
        },
        {
          "internalType": "uint256",
          "name": "ethSecond",
          "type": "uint256"
        },
        {
          "internalType": "uint256",
          "name": "firstNumShips",
          "type": "uint256"
        },
        {
          "internalType": "uint256",
          "name": "secondNumShips",
          "type": "uint256"
        },
        {
          "internalType": "uint256",
          "name": "accusationTimeout",
          "type": "uint256"
        },
        {
          "internalType": "address",
          "name": "accusedPlayer",
          "type": "address"
        },
        {
          "internalType": "address",
          "name": "playerTurn",
          "type": "address"
        }
      ],
      "stateMutability": "view",
      "type": "function",
      "constant": true
    },
    {
      "inputs": [],
      "name": "openGames",
      "outputs": [
        {
          "internalType": "uint256",
          "name": "",
          "type": "uint256"
        }
      ],
      "stateMutability": "view",
      "type": "function",
      "constant": true
    },
    {
      "inputs": [
        {
          "internalType": "uint256",
          "name": "_boardDim",
          "type": "uint256"
        },
        {
          "internalType": "uint256",
          "name": "_numberOfShips",
          "type": "uint256"
        }
      ],
      "name": "CreateGame",
      "outputs": [],
      "stateMutability": "nonpayable",
      "type": "function"
    },
    {
      "inputs": [
        {
          "internalType": "bool",
          "name": "_isRand",
          "type": "bool"
        },
        {
          "internalType": "uint256",
          "name": "_gameIndex",
          "type": "uint256"
        }
      ],
      "name": "JoinGame",
      "outputs": [],
      "stateMutability": "nonpayable",
      "type": "function"
    },
    {
      "inputs": [
        {
          "internalType": "uint256",
          "name": "_gameId",
          "type": "uint256"
        },
        {
          "internalType": "uint256",
          "name": "_amount",
          "type": "uint256"
        }
      ],
      "name": "AmountCommit",
      "outputs": [],
      "stateMutability": "nonpayable",
      "type": "function"
    },
    {
      "inputs": [
        {
          "internalType": "uint256",
          "name": "_gameId",
          "type": "uint256"
        }
      ],
      "name": "AcceptedAmount",
      "outputs": [],
      "stateMutability": "nonpayable",
      "type": "function"
    },
    {
      "inputs": [
        {
          "internalType": "uint256",
          "name": "_gameId",
          "type": "uint256"
        }
      ],
      "name": "SendEther",
      "outputs": [],
      "stateMutability": "payable",
      "type": "function",
      "payable": true
    },
    {
      "inputs": [
        {
          "internalType": "uint256",
          "name": "_gameId",
          "type": "uint256"
        },
        {
          "internalType": "uint256",
          "name": "_row",
          "type": "uint256"
        },
        {
          "internalType": "uint256",
          "name": "_col",
          "type": "uint256"
        }
      ],
      "name": "AttackOpponent",
      "outputs": [],
      "stateMutability": "nonpayable",
      "type": "function"
    },
    {
      "inputs": [
        {
          "internalType": "uint256",
          "name": "_gameId",
          "type": "uint256"
        },
        {
          "internalType": "string",
          "name": "_attackRes",
          "type": "string"
        },
        {
          "internalType": "bytes32",
          "name": "_attackHash",
          "type": "bytes32"
        },
        {
          "internalType": "bytes32[]",
          "name": "merkleProof",
          "type": "bytes32[]"
        }
      ],
      "name": "MerkleProofAttack",
      "outputs": [],
      "stateMutability": "payable",
      "type": "function",
      "payable": true
    },
    {
      "inputs": [
        {
          "internalType": "string",
          "name": "str1",
          "type": "string"
        },
        {
          "internalType": "string",
          "name": "str2",
          "type": "string"
        }
      ],
      "name": "compare",
      "outputs": [
        {
          "internalType": "bool",
          "name": "",
          "type": "bool"
        }
      ],
      "stateMutability": "pure",
      "type": "function",
      "constant": true
    },
    {
      "inputs": [
        {
          "internalType": "uint256",
          "name": "_gameId",
          "type": "uint256"
        }
      ],
      "name": "triggerAccusation",
      "outputs": [],
      "stateMutability": "nonpayable",
      "type": "function"
    },
    {
      "inputs": [
        {
          "internalType": "bytes32",
          "name": "_merkleroot",
          "type": "bytes32"
        },
        {
          "internalType": "uint256",
          "name": "_gameId",
          "type": "uint256"
        }
      ],
      "name": "SendMerkleRoot",
      "outputs": [],
      "stateMutability": "nonpayable",
      "type": "function"
    },
    {
      "inputs": [
        {
          "internalType": "string",
          "name": "inString",
          "type": "string"
        }
      ],
      "name": "checkStringNotEmpty",
      "outputs": [
        {
          "internalType": "bool",
          "name": "",
          "type": "bool"
        }
      ],
      "stateMutability": "pure",
      "type": "function",
      "constant": true
    },
    {
      "inputs": [
        {
          "internalType": "uint256",
          "name": "_gameId",
          "type": "uint256"
        }
      ],
      "name": "LeaveGame",
      "outputs": [],
      "stateMutability": "nonpayable",
      "type": "function"
    }
  ],
  "bytecode": "0x6080806040523461001b576000600155611f3990816100218239f35b600080fdfe6080604052600436101561001257600080fd5b60003560e01c80628bdd7d146119da5780630247bd75146118ee5780633a96fdd7146118935780634dd99ed11461166357806364f238a91461143957806378bacf8414611104578063810ff1fd14610ccd578063925def7114610ba0578063cd0d373114610599578063efdb129e1461036a578063f2415a321461032c578063f4023d2814610246578063fac196e6146102285763fb205000146100b557600080fd5b346102235760403660031901126102235760043560243590600054821080610207575b806101e8575b806101a3575b6100ed90611d10565b6100f682611cb3565b50546001600160a01b039190339083160361019057600661011684611cb3565b5001555b600761012583611cb3565b50015415158061017a575b61013657005b600161014e8261014585611cb3565b50541693611cb3565b50015416907f55b25d7f9b5bf8ea934ba7079455d2ba00c68ea7e66c13695275f6b75b95e5f8600080a3005b50600661018683611cb3565b5001541515610130565b600761019b84611cb3565b50015561011a565b506100ed6101b083611cb3565b5054336001600160a01b03918216149081156101cf575b5090506100e4565b90506101da84611cb3565b5060010154163314386101c7565b506101f282611cb3565b50600101546001600160a01b031615156100de565b5061021182611cb3565b50546001600160a01b031615156100d8565b600080fd5b34610223576000366003190112610223576020600154604051908152f35b34610223576020366003190112610223576004356000548110156102235761026d90611cb3565b50600160a01b60019003908181541690808360018201541693600282015460038301548260048501541660058501546006860154600787015491600888015493600989015495600a8a015497600b8b01549980600c8d01549c600d0154169c600e0154169c6040519e8f91825260208201526040015260608d015260808c015260a08b015260c08a015260e08901526101008801526101208701526101408601526101608501526101808401526101a08301526101c08201526101e090f35b346102235760203660031901126102235760043567ffffffffffffffff81116102235761035f6020913690600401611c5c565b511515604051908152f35b346102235761037836611c08565b604051916101e0830183811067ffffffffffffffff821117610583576040523383526000602084015260408301526000606083015260006080830152600060a0830152600060c0830152600060e08301526000610100830152600061012083015280610140830152610160820152600061018082015260006101a0820152336101c082015260005468010000000000000000811015610583578060016104219201600055611cb3565b61056d57815181546001600160a01b03199081166001600160a01b0392831617835560208401516001808501805484169285169290921790915560408501516002850155606085015160038501556080850151600485018054841691851691909117905560a0850151600585015560c0850151600685015560e0850151600785015561010085015160088501556101208501516009850155610140850151600a850155610160850151600b850155610180850151600c8501556101a0850151600d8501805484169185169190911790556101c090940151600e939093018054909116929091169190911790555461051790611d01565b6001556000546000198101908111610557576040519081527f98fe6bfadae13408aaa640b94cce01ef446d3cb316585dd37dcfc4ebe23f732960203392a2005b634e487b7160e01b600052601160045260246000fd5b634e487b7160e01b600052600060045260246000fd5b634e487b7160e01b600052604160045260246000fd5b608036600319011261022357600435602467ffffffffffffffff8135818111610223576105ca903690600401611c5c565b91606435938285116102235736602386011215610223578460040135928311610b8b5760059083821b95604051966020956106078783018a611c3a565b88528486890191830101913683116102235785879101915b838310610b7b5750505050600054811080610b5f575b80610b40575b80610afb575b61064a90611d10565b6000926044355b875185101561068b57610685908686861b8a0101511860405187810191825287815261067c81611c1e565b51902094611d01565b93610651565b90868661069785611cb3565b50546001600160a01b0394903390861603610908576040518281019182528281526106c181611c1e565b5190209060066106d087611cb3565b500154906040519080820192835281526106e981611c1e565b5190200361085757610748907fad935eddb312669e1ca7d5b3712ab4db975dc97d4dc4cb2cb5a997991dd989108585600161072383611cb3565b500154166107376040519283928684611df1565b0390a1610742611e33565b90611e8e565b610815575b600a61075884611cb3565b5001541561076257005b81600161076e85611cb3565b50015416600361077d85611cb3565b500154918260011b92808404600214901517156108015750600080809381938282156107f8575bf1156107ec5780600080516020611ee48339815191529160016107c685611cb3565b50015416906107d484611cb3565b505416906107e760405192839283611e50565b0390a2005b6040513d6000823e3d90fd5b506108fc6107a4565b634e487b7160e01b60009081526011600452fd5b600a61082084611cb3565b500154600019810190811161084257600a61083a85611cb3565b50015561074d565b50634e487b7160e01b60009081526011600452fd5b5082600080516020611ee483398151915283600161087484611cb3565b500154168461088284611cb3565b5054169061089560405192839283611d61565b0390a28160016108a485611cb3565b5001541660036108b385611cb3565b500154908160011b91808304600214901517156108f357600080809381938282156108ea575bf161074d576040513d6000823e3d90fd5b506108fc6108d9565b82634e487b7160e01b60005260116004526000fd5b60405182810191825282815261091d81611c1e565b51902090600761092c87611cb3565b5001549060405190808201928352815261094581611c1e565b51902003610a6257610990907fad935eddb312669e1ca7d5b3712ab4db975dc97d4dc4cb2cb5a997991dd98910858561097d82611cb3565b5054166107376040519283928684611df1565b610a35575b600b6109a084611cb3565b500154156109aa57005b816109b484611cb3565b50541660036109c285611cb3565b500154918260011b9280840460021490151715610801575060008080938193828215610a2c575bf1156107ec5780600080516020611ee483398151915291610a0984611cb3565b505416906001610a1885611cb3565b50015416906107e760405192839283611e50565b506108fc6109e9565b600b610a4084611cb3565b500154600019810190811161084257600b610a5a85611cb3565b500155610995565b5082600080516020611ee483398151915283610a7d83611cb3565b505416846001610a8c85611cb3565b5001541690610aa060405192839283611d61565b0390a281610aad84611cb3565b5054166003610abb85611cb3565b500154908160011b91808304600214901517156108f35760008080938193828215610af2575bf1610995576040513d6000823e3d90fd5b506108fc610ae1565b5061064a610b0882611cb3565b5054336001600160a01b0391821614908115610b27575b509050610641565b9050610b3283611cb3565b506001015416331488610b1f565b50610b4a81611cb3565b50600101546001600160a01b0316151561063b565b50610b6981611cb3565b50546001600160a01b03161515610635565b823581529181019187910161061f565b50634e487b7160e01b60009081526041600452fd5b602036600319011261022357600435600054811080610cb1575b80610c92575b80610c4d575b610bcf90611d10565b3415610c1b57610bde81611cb3565b5054336001600160a01b0390911603610c0657610bfa90611cb3565b50600834910155600080f35b610c0f90611cb3565b50600934910155600080f35b60405162461bcd60e51b815260206004820152600a6024820152694574682061726520302160b01b6044820152606490fd5b50610bcf610c5a82611cb3565b5054336001600160a01b0391821614908115610c79575b509050610bc6565b9050610c8483611cb3565b506001015416331483610c71565b50610c9c81611cb3565b50600101546001600160a01b03161515610bc0565b50610cbb81611cb3565b50546001600160a01b03161515610bba565b346102235760403660031901126102235760043580159081158103610223576024918235916001908154156110cf57600093600093610fbc575b50839080610fb4575b610df3575b610d68575b505015610d2357005b606490601d60405191631f443c7360e31b8352602060048401528201527f4e6f742061626c6520746f2066696e6420616e206f70656e2067616d650000006044820152fd5b610d7182611cb3565b50546001600160a01b0390811691610d8884611cb3565b50015416907f876ac2516429760d6f5b364659f4881cf65156ff3dd68d19b720d7f45d31ebd660606005610dbb86611cb3565b5001546002610dc987611cb3565b500154600a610dd788611cb3565b5001549060405192835260208301526040820152a48280610d1a565b506000194301438111610f555740604051610e0d81611c1e565b602091828252828201928036853760005b818110610f7f575050505190208154908115610f6a5706818101809111610f5557818085926000925b610e54575b505050610d15565b909192600054841015610f4c575081610e6c84611cb3565b5001546001600160a01b039081161580610f37575b80610f2e575b15610ea85750610e99610e9f91611d54565b92611d01565b90859281610e47565b8392610eb5829395611cb3565b50015416159081610f18575b5080610f0f575b610ed657610e9f8391611d01565b829450809350610ee69150611cb3565b500180546001600160a01b031916331790558154610f0390611d54565b82558182858281610e4c565b50828214610ec8565b9050610f2382611cb3565b505416151587610ec1565b50828211610e87565b5080610f4285611cb3565b5054161515610e81565b92829150610e4c565b84634e487b7160e01b60005260116004526000fd5b85634e487b7160e01b60005260126004526000fd5b8351811015610f9f578083610f9a921a838287010153611d01565b610e1e565b88634e487b7160e01b60005260326004526000fd5b508015610d10565b92509250610fcd6000548310611d10565b81610fd781611cb3565b50546001600160a01b03908116156110645782610ff383611cb3565b5001541661102c576110058291611cb3565b500180546001600160a01b03191633179055805461102290611d54565b8155809285610d07565b604051631f443c7360e31b8152602060048201526010818701526f47616d65206973206e6f74204672656560801b6044820152606490fd5b604051631f443c7360e31b8152602060048201526039818801527f596f752063616e2774206a6f696e20746869732067616d652c2062656361757360448201527f652074686572652773206e6f20706c61796572206865726521000000000000006064820152608490fd5b604051631f443c7360e31b815260206004820152600d818701526c4e6f206f70656e2067616d657360981b6044820152606490fd5b346102235760203660031901126102235760043560005481108061141d575b806113fe575b806113b9575b61113890611d10565b61114181611cb3565b506001908101546001600160a01b039033908216036113a5578061116484611cb3565b5054165b600c61117385611cb3565b5001541561132057600c61118685611cb3565b50015443106112e0575080600d61119c85611cb3565b5001541681836111ab86611cb3565b500154160361128e57806111be84611cb3565b50541660036111cc85611cb3565b5001549081841b91808304600214901517156105575760008080938193828215611285575bf1156107ec57600080516020611ee48339815191529160c0915b8061121586611cb3565b5054169161122286611cb3565b50015416604051918252602082015260606040820152603460608201527f54696d656f75742c207468652067616d6520656e646564206265636175736520608082015273736f6d656f6e65206469646e277420706c61792160601b60a0820152a2005b506108fc6111f1565b6000808080848661129e89611cb3565b5001541660036112ad89611cb3565b500154908282156112d7575bf1156107ec57600080516020611ee48339815191529160c09161120b565b506108fc6112b9565b604080516001600160a01b039290921682523360208301527f7db790423bbf959efabd112fcd6002b5ddf653d2796a29b2e900d79029c4c9fd93509150a2005b9091506005430190814311610557577f7db790423bbf959efabd112fcd6002b5ddf653d2796a29b2e900d79029c4c9fd926107e792600c61136087611cb3565b500155600d61136e86611cb3565b500180546001600160a01b031916918316919091179055604080516001600160a01b03909216825233602083015290918291820190565b80826113b085611cb3565b50015416611168565b506111386113c682611cb3565b5054336001600160a01b03918216149081156113e5575b50905061112f565b90506113f083611cb3565b5060010154163314836113dd565b5061140881611cb3565b50600101546001600160a01b03161515611129565b5061142781611cb3565b50546001600160a01b03161515611123565b346102235760603660031901126102235760043560243590600e60443592600054831080611647575b80611628575b806115e3575b61147790611d10565b61148083611cb3565b50909101546001600160a01b0391908216330361022357600e9183600d6114a682611cb3565b500180546001600160a01b0319908116909155956000600c6114c784611cb3565b5001556114d382611cb3565b5054831633036115695761155d937f6c096652adb4aef1dc8abccd5f4fdd2a52d0ba9a42dda148b22cc824e02dc7649161154585600161151287611cb3565b50015460408051338152929091166001600160a01b03166020830152810193909352606083019190915281906080820190565b0390a2600161155385611cb3565b5001541692611cb3565b50018054909216179055005b61155d937f6c096652adb4aef1dc8abccd5f4fdd2a52d0ba9a42dda148b22cc824e02dc764916115ce8561159c86611cb3565b505460408051338152929091166001600160a01b03166020830152810193909352606083019190915281906080820190565b0390a26115da84611cb3565b50541692611cb3565b506114776115f084611cb3565b5054336001600160a01b039182161490811561160f575b50905061146e565b905061161a85611cb3565b506001015416331486611607565b5061163283611cb3565b50600101546001600160a01b03161515611468565b5061165183611cb3565b50546001600160a01b03161515611462565b3461022357602036600319011261022357600435600054811080611877575b80611858575b80611813575b61169790611d10565b6116c260046116a583611cb3565b5001546001600160a01b03908116151590816117f9575b50611d10565b60036116cd82611cb3565b5001546117985760056116df82611cb3565b5001541561173d5760056116f282611cb3565b500154600361170083611cb3565b5001557f387ea7507bd65e609b1530432f9974fcb6227f213d6141475c009b49447bd8796020600361173184611cb3565b500154604051908152a2005b604051631f443c7360e31b815260206004820152602c60248201527f54686520616d6f756e7420666f7220746869732067616d65207761736e27742060448201526b64656369646564207965742160a01b6064820152608490fd5b604051631f443c7360e31b815260206004820152603260248201527f54686520616d6f756e7420666f7220746869732067616d652068617320616c7260448201527165616479206265656e20646563696465642160701b6064820152608490fd5b9050600461180684611cb3565b50015416331415836116bc565b5061169761182082611cb3565b5054336001600160a01b039182161490811561183f575b50905061168e565b905061184a83611cb3565b506001015416331483611837565b5061186281611cb3565b50600101546001600160a01b03161515611688565b5061188181611cb3565b50546001600160a01b03161515611682565b346102235760403660031901126102235767ffffffffffffffff600435818111610223576118c5903690600401611c5c565b90602435908111610223576020916107426118e4923690600401611c5c565b6040519015158152f35b34610223576020366003190112610223576004356000548110806119be575b806119a0575b156119415761192190611cb3565b5080546001600160a01b031916905560015461193c90611d54565b600155005b60405162461bcd60e51b815260206004820152603160248201527f596f752063616e2774206c65617665207468652067616d6520696620796f75276044820152707265206e6f7420746865206f776e65722160781b6064820152608490fd5b506119aa81611cb3565b50600101546001600160a01b031615611913565b506119c881611cb3565b50546001600160a01b0316331461190d565b34610223576119e836611c08565b6119f182611cb3565b50546001600160a01b0390811615611bc95781151580611bbe575b15611b6e5780611a1b84611cb3565b5054163314908115611b55575b5015611b05576003611a3983611cb3565b500154611aa5576040817f409c1c0e3993d3b6e249eb7b3e4e216febc2b296f8bcfff69abc401c06998e54926005611a7086611cb3565b5001556004611a7e85611cb3565b5001336bffffffffffffffffffffffff60a01b8254161790558151908152336020820152a2005b604051631f443c7360e31b815260206004820152603160248201527f54686520616d6f756e7420666f7220746869732067616d652068617320616c726044820152701958591e481899595b88191958da591959607a1b6064820152608490fd5b60405162461bcd60e51b815260206004820152602260248201527f746869732075736572206973206e6f742070617274206f66207468652067616d604482015261652160f01b6064820152608490fd5b9050611b6083611cb3565b506001015416331483611a28565b60405162461bcd60e51b815260206004820152602260248201527f54686520616d6f756e74206f72207468652067616d65496420617265206e756c6044820152616c2160f01b6064820152608490fd5b506000548310611a0c565b604051631f443c7360e31b8152602060048201526016602482015275151a194818dc99585d1bdc881a59081a5cc81b9d5b1b60521b6044820152606490fd5b6040906003190112610223576004359060243590565b6040810190811067ffffffffffffffff82111761058357604052565b90601f8019910116810190811067ffffffffffffffff82111761058357604052565b81601f820112156102235780359067ffffffffffffffff82116105835760405192611c91601f8401601f191660200185611c3a565b8284526020838301011161022357816000926020809301838601378301015290565b906000918254811015611ced57600f90838052027f290decd9548b62a8d60345a988386fc84ba6bc95484008f6362f93160ef3e563019190565b634e487b7160e01b83526032600452602483fd5b60001981146105575760010190565b15611d1757565b60405162461bcd60e51b8152602060048201526015602482015274536f6d657468696e672077656e742077726f6e672160581b6044820152606490fd5b8015610557576000190190565b6001600160a01b039182168152911660208201526060604082018190526035908201527f436865617465722064657465637465642c20746865206574682077696c6c2062608082015274652073656e7420746f207468652077696e6e65722160581b60a082015260c00190565b60005b838110611de15750506000910152565b8181015183820152602001611dd1565b60806040929594939560608352611e178151809281606087015260208587019101611dce565b601f80199101168201019460018060a01b031660208201520152565b60405190611e4082611c1e565b60018252603160f81b6020830152565b6001600160a01b03918216815291166020820152606060408201819052600c908201526b456e64204f662047616d652160a01b608082015260a00190565b9060405191602092611ebc848281611eaf8183019687815193849201611dce565b8101038084520182611c3a565b51902091611edc604051918281611eaf8183019687815193849201611dce565b519020149056fed5562679467aef873d023ef06602fe4cb4a987be45e933b3255bbc7d6225ffb0a264697066735822122003b49e89297b56a30b4ac7a625cc5ffd36a3297c03aee649d14ead03679b97c264736f6c63430008130033",
  "immutableReferences": {},
  "source": "// SPDX-License-Identifier: MIT\npragma solidity >=0.4.22 <0.9.0;\ncontract Battleship {\n  //struct for the Game\n  struct Game {\n        address first;\n        address second;\n        uint boardDim;\n        uint amount;\n        address amountRequester;//used to don't allow a user to commit an amount and accept it all by himself.\n        uint tempAmount;\n        bytes32 merkleFirst;\n        bytes32 merkleSecond;\n        uint ethFirst;\n        uint ethSecond;\n        uint firstNumShips;\n        uint secondNumShips;\n        uint accusationTimeout;\n        address accusedPlayer;\n        address playerTurn;\n  }\n\n  //event to send when game starts\n  event GameCreated(address indexed _first,address indexed _second,uint _amountTemp ,uint indexed _gameId,uint _boardDim,uint _numberOfShips);\n  //event to declare the amount of money the game will have, it is used during the decision of how much money to spend in the game\n  event AmountToSpend(uint indexed _gameId,uint _amount,address _from);\n  //event for the amount that the game will have\n  event AmountDecided(uint indexed _gameId,uint _amount);\n  //event for outputting an uint value\n  event UintOutput(address indexed _from,uint _value);\n  //ErrorOut string\n  error ErrorOut(string err);\n  //The game has officially started.\n  event GameStarted(address indexed _first, address indexed _second);\n  //Attack the opponent\n  event AttackOpp(uint indexed _gameId ,address _attacker, address _opponent, uint _row, uint _col);\n  //event after attack\n  event AttackRes(string  _result,address _attacker,uint _gameId);\n  //event game end\n  event GameEnd(uint indexed _gameId,address _winner,address _loser,string _cause);\n  //accusation\n  event AccusationTriggered(uint indexed _gameId,address _accused,address _accuser);\n  //Array of games\n  Game[] public listOfGames;\n  //variable to keep the number of open games.\n  uint public openGames = 0;\n  constructor() {\n  }\n\n  //GAS PRICE FOR ALL FUNCTIONS: 20000000000\n\n  //GAS USED: 144797\n  //TOTAL PRICE = 0.00289594 eth\n  function CreateGame(uint _boardDim,uint _numberOfShips) public{ //Game Creation, creates a game with only the first player saved.\n    listOfGames.push(Game(msg.sender,address(0),_boardDim,0,address(0),0,0,0,0,0,_numberOfShips,_numberOfShips,0,address(0),msg.sender));\n    openGames++;\n    emit UintOutput(msg.sender,listOfGames.length - 1);\n  }\n\n  //GAS USED FOR RANDOM JOIN: 90415\n  //GAS USED FOR JOINING SPECIFIC GAME: 64370\n  //TOTAL PRICE = 0.0018083 -- 0.0012874\n  function JoinGame(bool _isRand,uint _gameIndex) public {//Join a game.\n    if(openGames <= 0) revert ErrorOut({err:\"No open games\"});\n    \n    bool found = false;\n    uint returnIndex = 0;\n    if(!_isRand) { //can be joined specifically by passing a game id.\n      require(_gameIndex < listOfGames.length,\"Something went wrong!\");\n      returnIndex = _gameIndex;\n      if(listOfGames[returnIndex].first == address(0)) revert ErrorOut({err:\"You can't join this game, because there's no player here!\"});\n      //if(listOfGames[returnIndex].first == msg.sender) revert(\"User can't access his own game!\"); commented just for testing purposes\n      if(listOfGames[returnIndex].second != address(0)) revert ErrorOut({err:\"Game is not Free\"});\n      listOfGames[(returnIndex)].second = msg.sender;\n      openGames--;\n      found = true;\n    }\n    //can be joined randomly, the contract will find a random game from the open ones.\n    if(_isRand && !found){\n      bytes32 rand = randGenerator();\n      uint index = uint(rand) % openGames + 1;\n      for(uint i = 0; i < listOfGames.length; i++){\n        if(listOfGames[i].second == address(0) && listOfGames[i].first != address(0) && index > 1) index--;\n        else if (listOfGames[i].second == address(0) && listOfGames[i].first != address(0) && index == 1) {\n          listOfGames[i].second = msg.sender;\n          returnIndex = i;\n          openGames--;\n          found = true;\n          break;\n        }\n      }\n    }\n\n    if(found) emit GameCreated(listOfGames[returnIndex].first,listOfGames[returnIndex].second,listOfGames[returnIndex].tempAmount,returnIndex,listOfGames[returnIndex].boardDim,listOfGames[returnIndex].firstNumShips);\n      \n    if(!found)revert ErrorOut({err:\"Not able to find an open game\"});\n  }\n\n  //GAS USED: 75033\n  //TOTAL PRICE = 0.00150066 eth\n  function AmountCommit(uint _gameId,uint _amount) public{\n    if(listOfGames[_gameId].first == address(0)) revert ErrorOut({err:\"The creator id is null\"});\n    require(_amount > 0 && _gameId < listOfGames.length,\"The amount or the gameId are null!\");\n    require(listOfGames[_gameId].first == msg.sender || listOfGames[_gameId].second == msg.sender,\"this user is not part of the game!\");\n    if(listOfGames[_gameId].amount != 0) revert ErrorOut({err:\"The amount for this game has already been decided\"});\n    listOfGames[_gameId].tempAmount = _amount;\n    listOfGames[_gameId].amountRequester = msg.sender;\n    emit AmountToSpend(_gameId, _amount,msg.sender);\n  }\n  //GAS USED: 58563\n  //TOTAL PRICE = 0.00117126 eth\n  function AcceptedAmount(uint _gameId) public{\n    bool condition = _gameId < listOfGames.length && listOfGames[_gameId].first != address(0) && listOfGames[_gameId].second != address(0) && (listOfGames[_gameId].first == msg.sender || listOfGames[_gameId].second == msg.sender);\n    require(condition,\"Something went wrong!\");\n    require(listOfGames[_gameId].amountRequester != address(0) && listOfGames[_gameId].amountRequester != msg.sender,\"Something went wrong!\");\n    if(listOfGames[_gameId].amount != 0) revert ErrorOut({err:\"The amount for this game has already been decided!\"});\n    if(listOfGames[_gameId].tempAmount == 0) revert ErrorOut({err:\"The amount for this game wasn't decided yet!\"});\n    listOfGames[_gameId].amount = listOfGames[_gameId].tempAmount;\n    emit AmountDecided(_gameId,listOfGames[_gameId].amount);\n  }\n  //GAS USED: 51737\n  //TOTAL PRICE =0.00103474eth\n  function SendEther(uint _gameId) public payable {\n    bool condition = _gameId < listOfGames.length && listOfGames[_gameId].first != address(0) && listOfGames[_gameId].second != address(0) && (listOfGames[_gameId].first == msg.sender || listOfGames[_gameId].second == msg.sender);\n    require(condition,\"Something went wrong!\");\n    require(msg.value > 0,\"Eth are 0!\");\n    if(listOfGames[_gameId].first == msg.sender) listOfGames[_gameId].ethFirst = msg.value;\n    else listOfGames[_gameId].ethSecond = msg.value;\n    }\n    //GAS USED: 36734\n    //TOTAL PRICE = 0.00103474eth\n    function AttackOpponent(uint _gameId, uint _row, uint _col) public {\n    bool condition = _gameId < listOfGames.length && listOfGames[_gameId].first != address(0) && listOfGames[_gameId].second != address(0) && (listOfGames[_gameId].first == msg.sender || listOfGames[_gameId].second == msg.sender);\n    require(condition,\"Something went wrong!\");\n    require(listOfGames[_gameId].playerTurn == msg.sender);\n    listOfGames[_gameId].accusedPlayer = address(0);\n    listOfGames[_gameId].accusationTimeout = 0;\n    if(listOfGames[_gameId].first == msg.sender) {\n      emit AttackOpp(_gameId,msg.sender,listOfGames[_gameId].second,_row,_col);\n      listOfGames[_gameId].playerTurn = listOfGames[_gameId].second;\n      }\n    else {\n      emit AttackOpp(_gameId,msg.sender,listOfGames[_gameId].first,_row,_col);\n      listOfGames[_gameId].playerTurn = listOfGames[_gameId].first;\n    }\n    }\n\n    //GAS USED: 41678\n    //TOTAL PRICE = 0.00103474eth\n    //GAS USED FOR END GAME: 55256\n    function MerkleProofAttack(uint _gameId,string memory _attackRes,bytes32 _attackHash,bytes32[] memory merkleProof) payable public{\n    bool condition = _gameId < listOfGames.length && listOfGames[_gameId].first != address(0) && listOfGames[_gameId].second != address(0) && (listOfGames[_gameId].first == msg.sender || listOfGames[_gameId].second == msg.sender);\n    require(condition,\"Something went wrong!\");\n    bytes memory byteArraytemp;\n\n    bytes32 temp = _attackHash;\n    for(uint i = 0; i < merkleProof.length; i++){\n        byteArraytemp = abi.encodePacked(merkleProof[i] ^ temp);\n        temp = keccak256(byteArraytemp);\n      }\n      \n    if(listOfGames[_gameId].first == msg.sender) {\n      bytes32 temp1_el = keccak256(abi.encodePacked(temp));\n      bytes32 temp2_el = keccak256(abi.encodePacked(listOfGames[_gameId].merkleFirst));\n      if(temp1_el == temp2_el ) {\n        emit AttackRes(_attackRes,listOfGames[_gameId].second,_gameId);\n        if(compare(_attackRes,\"1\")) listOfGames[_gameId].firstNumShips = listOfGames[_gameId].firstNumShips - 1;\n      }\n      else {\n        emit GameEnd(_gameId,listOfGames[_gameId].second,listOfGames[_gameId].first,\"Cheater detected, the eth will be sent to the winner!\");\n        payable(listOfGames[_gameId].second).transfer(listOfGames[_gameId].amount * 2);\n      }\n      if(listOfGames[_gameId].firstNumShips <= 0) {payable(listOfGames[_gameId].second).transfer(listOfGames[_gameId].amount * 2);\n      emit GameEnd(_gameId,listOfGames[_gameId].second,listOfGames[_gameId].first,\"End Of Game!\");\n      }\n    }\n    else {\n          bytes32 temp1_el = keccak256(abi.encodePacked(temp));\n          bytes32 temp2_el = keccak256(abi.encodePacked(listOfGames[_gameId].merkleSecond));\n\n          if(temp1_el == temp2_el) {\n            emit AttackRes(_attackRes,listOfGames[_gameId].first,_gameId);\n            if(compare(_attackRes,\"1\")) listOfGames[_gameId].secondNumShips = listOfGames[_gameId].secondNumShips - 1;\n\n          }\n      else {\n        emit GameEnd(_gameId,listOfGames[_gameId].first,listOfGames[_gameId].second,\"Cheater detected, the eth will be sent to the winner!\");\n        payable(listOfGames[_gameId].first).transfer(listOfGames[_gameId].amount * 2);\n      }\n      if(listOfGames[_gameId].secondNumShips <= 0) {\n        payable(listOfGames[_gameId].first).transfer(listOfGames[_gameId].amount * 2);\n      emit GameEnd(_gameId,listOfGames[_gameId].first,listOfGames[_gameId].second,\"End Of Game!\");\n      }\n    }\n    \n    }\n\n\n\n     function compare(string memory str1, string memory str2) public pure returns (bool) {\n        return keccak256(abi.encodePacked(str1)) == keccak256(abi.encodePacked(str2));\n    }\n\n   //GAS USED: 76349\n   //TOTAL PRICE: 0.00152698 eth\n   function triggerAccusation(uint _gameId) public {        \n    bool condition = _gameId < listOfGames.length && listOfGames[_gameId].first != address(0) && listOfGames[_gameId].second != address(0) && (listOfGames[_gameId].first == msg.sender || listOfGames[_gameId].second == msg.sender);\n    require(condition,\"Something went wrong!\");\n    address accusedPlayer = address(0);\n    if(listOfGames[_gameId].second == msg.sender) accusedPlayer = listOfGames[_gameId].first;\n    else  accusedPlayer = listOfGames[_gameId].second;\n    \n    if(listOfGames[_gameId].accusationTimeout != 0){\n        if(block.number >= listOfGames[_gameId].accusationTimeout){\n          if(listOfGames[_gameId].accusedPlayer == listOfGames[_gameId].second) payable(listOfGames[_gameId].first).transfer(listOfGames[_gameId].amount * 2);\n          else payable(listOfGames[_gameId].second).transfer(listOfGames[_gameId].amount);\n          emit GameEnd(_gameId,listOfGames[_gameId].first,listOfGames[_gameId].second,\"Timeout, the game ended because someone didn't play!\");\n        } else emit AccusationTriggered(_gameId,accusedPlayer,msg.sender);\n    } else {\n      listOfGames[_gameId].accusationTimeout = block.number + 5;\n \n      listOfGames[_gameId].accusedPlayer = accusedPlayer;\n      emit AccusationTriggered(_gameId,accusedPlayer,msg.sender);\n    }\n \n    }    \n\n  //GAS USED: 54397\n  //TOTAL PRICE = 0.00103474eth\n  function SendMerkleRoot(bytes32 _merkleroot, uint _gameId) public{//Done at the start of the game by both players, otherwise the game don't start.\n    bool condition = _gameId < listOfGames.length && listOfGames[_gameId].first != address(0) && listOfGames[_gameId].second != address(0) && (listOfGames[_gameId].first == msg.sender || listOfGames[_gameId].second == msg.sender);\n    require(condition,\"Something went wrong!\");\n    if(listOfGames[_gameId].first == msg.sender) listOfGames[_gameId].merkleFirst = _merkleroot;\n    else listOfGames[_gameId].merkleSecond = _merkleroot;\n    if(listOfGames[_gameId].merkleSecond != 0 && listOfGames[_gameId].merkleFirst != 0) emit GameStarted(listOfGames[_gameId].first, listOfGames[_gameId].second);\n  }\n\n   function checkStringNotEmpty(string memory inString) public pure returns (bool) {\n        return bytes(inString).length != 0;\n    }\n\n  //GAS USED: 31668\n  //TOTAL PRICE = 0.00063336\n  function LeaveGame(uint _gameId) public { //you can leave the game only if you are the creator and before the game has started.\n    require(_gameId < listOfGames.length && listOfGames[_gameId].first == msg.sender && listOfGames[_gameId].second == address(0),\"You can't leave the game if you're not the owner!\");\n    listOfGames[_gameId].first = address(0);\n    openGames--;\n  }\n\n  function randGenerator() private view returns (bytes32){\n    //Helps with random number generation\n    bytes32 bhash=blockhash(block.number-1);\n    bytes memory bytesArray = new bytes(32);\n    for (uint i; i <32; i++)\n    {bytesArray[i] =bhash[i];}\n    bytes32 rand = keccak256(bytesArray);\n    return rand;\n  }\n\n\n}\n",
  "sourcePath": "C:\\Users\\given\\Desktop\\Appunti\\p2p\\Progetto\\Battleship\\contracts\\Battleship.sol",
  "compiler": {
    "name": "solc",
    "version": "0.8.19+commit.7dd6d404.Emscripten.clang"
  },
  "schemaVersion": "3.4.13",
  "updatedAt": "2023-05-31T16:52:18.329Z",
  "networkType": "ethereum",
  "devdoc": {
    "kind": "dev",
    "methods": {},
    "version": 1
  },
  "userdoc": {
    "kind": "user",
    "methods": {},
    "version": 1
  }
}