{
  "contractName": "Battleship",
  "abi": [
    {
      "inputs": [],
      "stateMutability": "nonpayable",
      "type": "constructor"
    },
    {
      "inputs": [
        {
          "internalType": "string",
          "name": "err",
          "type": "string"
        }
      ],
      "name": "ErrorOut",
      "type": "error"
    },
    {
      "anonymous": false,
      "inputs": [
        {
          "indexed": true,
          "internalType": "uint256",
          "name": "_gameId",
          "type": "uint256"
        },
        {
          "indexed": false,
          "internalType": "uint256",
          "name": "_amount",
          "type": "uint256"
        }
      ],
      "name": "AmountDecided",
      "type": "event"
    },
    {
      "anonymous": false,
      "inputs": [
        {
          "indexed": true,
          "internalType": "uint256",
          "name": "_gameId",
          "type": "uint256"
        },
        {
          "indexed": false,
          "internalType": "uint256",
          "name": "_amount",
          "type": "uint256"
        },
        {
          "indexed": false,
          "internalType": "address",
          "name": "_from",
          "type": "address"
        }
      ],
      "name": "AmountToSpend",
      "type": "event"
    },
    {
      "anonymous": false,
      "inputs": [
        {
          "indexed": true,
          "internalType": "uint256",
          "name": "_gameId",
          "type": "uint256"
        },
        {
          "indexed": false,
          "internalType": "address",
          "name": "_attacker",
          "type": "address"
        },
        {
          "indexed": false,
          "internalType": "address",
          "name": "_opponent",
          "type": "address"
        },
        {
          "indexed": false,
          "internalType": "uint256",
          "name": "_row",
          "type": "uint256"
        },
        {
          "indexed": false,
          "internalType": "uint256",
          "name": "_col",
          "type": "uint256"
        }
      ],
      "name": "AttackOpp",
      "type": "event"
    },
    {
      "anonymous": false,
      "inputs": [
        {
          "indexed": false,
          "internalType": "uint256",
          "name": "_result",
          "type": "uint256"
        },
        {
          "indexed": false,
          "internalType": "address",
          "name": "_attacker",
          "type": "address"
        }
      ],
      "name": "AttackRes",
      "type": "event"
    },
    {
      "anonymous": false,
      "inputs": [
        {
          "indexed": true,
          "internalType": "address",
          "name": "_first",
          "type": "address"
        },
        {
          "indexed": true,
          "internalType": "address",
          "name": "_second",
          "type": "address"
        },
        {
          "indexed": false,
          "internalType": "uint256",
          "name": "_amountTemp",
          "type": "uint256"
        },
        {
          "indexed": true,
          "internalType": "uint256",
          "name": "_gameId",
          "type": "uint256"
        },
        {
          "indexed": false,
          "internalType": "uint256",
          "name": "_boardDim",
          "type": "uint256"
        },
        {
          "indexed": false,
          "internalType": "uint256",
          "name": "_numberOfShips",
          "type": "uint256"
        }
      ],
      "name": "GameCreated",
      "type": "event"
    },
    {
      "anonymous": false,
      "inputs": [
        {
          "indexed": true,
          "internalType": "uint256",
          "name": "_gameId",
          "type": "uint256"
        },
        {
          "indexed": false,
          "internalType": "address",
          "name": "_winner",
          "type": "address"
        },
        {
          "indexed": false,
          "internalType": "address",
          "name": "_loser",
          "type": "address"
        },
        {
          "indexed": false,
          "internalType": "string",
          "name": "_cause",
          "type": "string"
        }
      ],
      "name": "GameEnd",
      "type": "event"
    },
    {
      "anonymous": false,
      "inputs": [
        {
          "indexed": true,
          "internalType": "address",
          "name": "_first",
          "type": "address"
        },
        {
          "indexed": true,
          "internalType": "address",
          "name": "_second",
          "type": "address"
        }
      ],
      "name": "GameStarted",
      "type": "event"
    },
    {
      "anonymous": false,
      "inputs": [
        {
          "indexed": true,
          "internalType": "address",
          "name": "_from",
          "type": "address"
        },
        {
          "indexed": false,
          "internalType": "uint256",
          "name": "_value",
          "type": "uint256"
        }
      ],
      "name": "UintOutput",
      "type": "event"
    },
    {
      "inputs": [
        {
          "internalType": "uint256",
          "name": "",
          "type": "uint256"
        }
      ],
      "name": "listOfGames",
      "outputs": [
        {
          "internalType": "address",
          "name": "first",
          "type": "address"
        },
        {
          "internalType": "address",
          "name": "second",
          "type": "address"
        },
        {
          "internalType": "uint256",
          "name": "boardDim",
          "type": "uint256"
        },
        {
          "internalType": "uint256",
          "name": "amount",
          "type": "uint256"
        },
        {
          "internalType": "address",
          "name": "amountRequester",
          "type": "address"
        },
        {
          "internalType": "uint256",
          "name": "tempAmount",
          "type": "uint256"
        },
        {
          "internalType": "bytes32",
          "name": "merkleFirst",
          "type": "bytes32"
        },
        {
          "internalType": "bytes32",
          "name": "merkleSecond",
          "type": "bytes32"
        },
        {
          "internalType": "uint256",
          "name": "ethFirst",
          "type": "uint256"
        },
        {
          "internalType": "uint256",
          "name": "ethSecond",
          "type": "uint256"
        },
        {
          "internalType": "uint256",
          "name": "firstNumShips",
          "type": "uint256"
        },
        {
          "internalType": "uint256",
          "name": "secondNumShips",
          "type": "uint256"
        }
      ],
      "stateMutability": "view",
      "type": "function",
      "constant": true
    },
    {
      "inputs": [],
      "name": "openGames",
      "outputs": [
        {
          "internalType": "uint256",
          "name": "",
          "type": "uint256"
        }
      ],
      "stateMutability": "view",
      "type": "function",
      "constant": true
    },
    {
      "inputs": [
        {
          "internalType": "uint256",
          "name": "_boardDim",
          "type": "uint256"
        },
        {
          "internalType": "uint256",
          "name": "_numberOfShips",
          "type": "uint256"
        }
      ],
      "name": "CreateGame",
      "outputs": [],
      "stateMutability": "nonpayable",
      "type": "function"
    },
    {
      "inputs": [
        {
          "internalType": "bool",
          "name": "_isRand",
          "type": "bool"
        },
        {
          "internalType": "uint256",
          "name": "_gameIndex",
          "type": "uint256"
        }
      ],
      "name": "JoinGame",
      "outputs": [],
      "stateMutability": "nonpayable",
      "type": "function"
    },
    {
      "inputs": [
        {
          "internalType": "uint256",
          "name": "_gameId",
          "type": "uint256"
        },
        {
          "internalType": "uint256",
          "name": "_amount",
          "type": "uint256"
        }
      ],
      "name": "AmountCommit",
      "outputs": [],
      "stateMutability": "nonpayable",
      "type": "function"
    },
    {
      "inputs": [
        {
          "internalType": "uint256",
          "name": "_gameId",
          "type": "uint256"
        }
      ],
      "name": "AcceptedAmount",
      "outputs": [],
      "stateMutability": "nonpayable",
      "type": "function"
    },
    {
      "inputs": [
        {
          "internalType": "uint256",
          "name": "_gameId",
          "type": "uint256"
        }
      ],
      "name": "SendEther",
      "outputs": [],
      "stateMutability": "payable",
      "type": "function",
      "payable": true
    },
    {
      "inputs": [
        {
          "internalType": "uint256",
          "name": "_gameId",
          "type": "uint256"
        },
        {
          "internalType": "uint256",
          "name": "_row",
          "type": "uint256"
        },
        {
          "internalType": "uint256",
          "name": "_col",
          "type": "uint256"
        }
      ],
      "name": "AttackOpponent",
      "outputs": [],
      "stateMutability": "nonpayable",
      "type": "function"
    },
    {
      "inputs": [
        {
          "internalType": "uint256",
          "name": "_gameId",
          "type": "uint256"
        },
        {
          "internalType": "string",
          "name": "_attackRes",
          "type": "string"
        },
        {
          "internalType": "bytes32",
          "name": "_attackHash",
          "type": "bytes32"
        },
        {
          "internalType": "bytes32[]",
          "name": "merkleProof",
          "type": "bytes32[]"
        }
      ],
      "name": "MerkleProofAttack",
      "outputs": [],
      "stateMutability": "nonpayable",
      "type": "function"
    },
    {
      "inputs": [
        {
          "internalType": "string",
          "name": "str1",
          "type": "string"
        },
        {
          "internalType": "string",
          "name": "str2",
          "type": "string"
        }
      ],
      "name": "compare",
      "outputs": [
        {
          "internalType": "bool",
          "name": "",
          "type": "bool"
        }
      ],
      "stateMutability": "pure",
      "type": "function",
      "constant": true
    },
    {
      "inputs": [
        {
          "internalType": "uint256",
          "name": "_gameId",
          "type": "uint256"
        }
      ],
      "name": "getList",
      "outputs": [
        {
          "components": [
            {
              "internalType": "address",
              "name": "first",
              "type": "address"
            },
            {
              "internalType": "address",
              "name": "second",
              "type": "address"
            },
            {
              "internalType": "uint256",
              "name": "boardDim",
              "type": "uint256"
            },
            {
              "internalType": "uint256",
              "name": "amount",
              "type": "uint256"
            },
            {
              "internalType": "address",
              "name": "amountRequester",
              "type": "address"
            },
            {
              "internalType": "uint256",
              "name": "tempAmount",
              "type": "uint256"
            },
            {
              "internalType": "bytes32",
              "name": "merkleFirst",
              "type": "bytes32"
            },
            {
              "internalType": "bytes32",
              "name": "merkleSecond",
              "type": "bytes32"
            },
            {
              "internalType": "uint256",
              "name": "ethFirst",
              "type": "uint256"
            },
            {
              "internalType": "uint256",
              "name": "ethSecond",
              "type": "uint256"
            },
            {
              "internalType": "uint256",
              "name": "firstNumShips",
              "type": "uint256"
            },
            {
              "internalType": "uint256",
              "name": "secondNumShips",
              "type": "uint256"
            }
          ],
          "internalType": "struct Battleship.Game",
          "name": "",
          "type": "tuple"
        }
      ],
      "stateMutability": "view",
      "type": "function",
      "constant": true
    },
    {
      "inputs": [
        {
          "internalType": "bytes32",
          "name": "_merkleroot",
          "type": "bytes32"
        },
        {
          "internalType": "uint256",
          "name": "_gameId",
          "type": "uint256"
        }
      ],
      "name": "SendMerkleRoot",
      "outputs": [],
      "stateMutability": "nonpayable",
      "type": "function"
    },
    {
      "inputs": [
        {
          "internalType": "string",
          "name": "inString",
          "type": "string"
        }
      ],
      "name": "checkStringNotEmpty",
      "outputs": [
        {
          "internalType": "bool",
          "name": "",
          "type": "bool"
        }
      ],
      "stateMutability": "pure",
      "type": "function",
      "constant": true
    },
    {
      "inputs": [
        {
          "internalType": "uint256",
          "name": "_gameId",
          "type": "uint256"
        }
      ],
      "name": "LeaveGame",
      "outputs": [],
      "stateMutability": "nonpayable",
      "type": "function"
    }
  ],
  "bytecode": "0x6080604052600060015534801561001557600080fd5b50614838806100256000396000f3fe6080604052600436106100dc5760003560e01c8063925def711161007f578063f2415a3211610059578063f2415a3214610296578063f4023d28146102d3578063fac196e61461031b578063fb20500014610346576100dc565b8063925def7114610228578063cd0d373114610244578063efdb129e1461026d576100dc565b80633a96fdd7116100bb5780633a96fdd7146101705780634dd99ed1146101ad57806364f238a9146101d6578063810ff1fd146101ff576100dc565b80628bdd7d146100e15780630247bd751461010a5780631ab5b38314610133575b600080fd5b3480156100ed57600080fd5b5061010860048036038101906101039190613488565b61036f565b005b34801561011657600080fd5b50610131600480360381019061012c91906134c8565b6106d7565b005b34801561013f57600080fd5b5061015a600480360381019061015591906134c8565b610896565b6040516101679190613654565b60405180910390f35b34801561017c57600080fd5b50610197600480360381019061019291906137b6565b610a2f565b6040516101a49190613849565b60405180910390f35b3480156101b957600080fd5b506101d460048036038101906101cf91906134c8565b610a88565b005b3480156101e257600080fd5b506101fd60048036038101906101f89190613864565b610f76565b005b34801561020b57600080fd5b50610226600480360381019061022191906138e3565b61133e565b005b610242600480360381019061023d91906134c8565b611a75565b005b34801561025057600080fd5b5061026b60048036038101906102669190613a17565b611dcc565b005b34801561027957600080fd5b50610294600480360381019061028f9190613488565b612ae4565b005b3480156102a257600080fd5b506102bd60048036038101906102b89190613ab6565b612d5f565b6040516102ca9190613849565b60405180910390f35b3480156102df57600080fd5b506102fa60048036038101906102f591906134c8565b612d6d565b6040516103129c9b9a99989796959493929190613b2c565b60405180910390f35b34801561032757600080fd5b50610330612e3d565b60405161033d9190613be6565b60405180910390f35b34801561035257600080fd5b5061036d60048036038101906103689190613c01565b612e43565b005b600073ffffffffffffffffffffffffffffffffffffffff166000838154811061039b5761039a613c41565b5b90600052602060002090600c020160000160009054906101000a900473ffffffffffffffffffffffffffffffffffffffff1673ffffffffffffffffffffffffffffffffffffffff1603610423576040517ffa21e39800000000000000000000000000000000000000000000000000000000815260040161041a90613ccd565b60405180910390fd5b600081118015610437575060008054905082105b610476576040517f08c379a000000000000000000000000000000000000000000000000000000000815260040161046d90613d5f565b60405180910390fd5b3373ffffffffffffffffffffffffffffffffffffffff16600083815481106104a1576104a0613c41565b5b90600052602060002090600c020160000160009054906101000a900473ffffffffffffffffffffffffffffffffffffffff1673ffffffffffffffffffffffffffffffffffffffff16148061056557503373ffffffffffffffffffffffffffffffffffffffff166000838154811061051b5761051a613c41565b5b90600052602060002090600c020160010160009054906101000a900473ffffffffffffffffffffffffffffffffffffffff1673ffffffffffffffffffffffffffffffffffffffff16145b6105a4576040517f08c379a000000000000000000000000000000000000000000000000000000000815260040161059b90613df1565b60405180910390fd5b60008083815481106105b9576105b8613c41565b5b90600052602060002090600c0201600301541461060b576040517ffa21e39800000000000000000000000000000000000000000000000000000000815260040161060290613e83565b60405180910390fd5b80600083815481106106205761061f613c41565b5b90600052602060002090600c020160050181905550336000838154811061064a57610649613c41565b5b90600052602060002090600c020160040160006101000a81548173ffffffffffffffffffffffffffffffffffffffff021916908373ffffffffffffffffffffffffffffffffffffffff160217905550817f409c1c0e3993d3b6e249eb7b3e4e216febc2b296f8bcfff69abc401c06998e5482336040516106cb929190613ea3565b60405180910390a25050565b6000805490508110801561075b57503373ffffffffffffffffffffffffffffffffffffffff166000828154811061071157610710613c41565b5b90600052602060002090600c020160000160009054906101000a900473ffffffffffffffffffffffffffffffffffffffff1673ffffffffffffffffffffffffffffffffffffffff16145b80156107d85750600073ffffffffffffffffffffffffffffffffffffffff166000828154811061078e5761078d613c41565b5b90600052602060002090600c020160010160009054906101000a900473ffffffffffffffffffffffffffffffffffffffff1673ffffffffffffffffffffffffffffffffffffffff16145b610817576040517f08c379a000000000000000000000000000000000000000000000000000000000815260040161080e90613f3e565b60405180910390fd5b600080828154811061082c5761082b613c41565b5b90600052602060002090600c020160000160006101000a81548173ffffffffffffffffffffffffffffffffffffffff021916908373ffffffffffffffffffffffffffffffffffffffff1602179055506001600081548092919061088e90613f8d565b919050555050565b61089e613395565b600082815481106108b2576108b1613c41565b5b90600052602060002090600c0201604051806101800160405290816000820160009054906101000a900473ffffffffffffffffffffffffffffffffffffffff1673ffffffffffffffffffffffffffffffffffffffff1673ffffffffffffffffffffffffffffffffffffffff1681526020016001820160009054906101000a900473ffffffffffffffffffffffffffffffffffffffff1673ffffffffffffffffffffffffffffffffffffffff1673ffffffffffffffffffffffffffffffffffffffff16815260200160028201548152602001600382015481526020016004820160009054906101000a900473ffffffffffffffffffffffffffffffffffffffff1673ffffffffffffffffffffffffffffffffffffffff1673ffffffffffffffffffffffffffffffffffffffff1681526020016005820154815260200160068201548152602001600782015481526020016008820154815260200160098201548152602001600a8201548152602001600b820154815250509050919050565b600081604051602001610a429190614027565b6040516020818303038152906040528051906020012083604051602001610a699190614027565b6040516020818303038152906040528051906020012014905092915050565b6000808054905082108015610b0f5750600073ffffffffffffffffffffffffffffffffffffffff1660008381548110610ac457610ac3613c41565b5b90600052602060002090600c020160000160009054906101000a900473ffffffffffffffffffffffffffffffffffffffff1673ffffffffffffffffffffffffffffffffffffffff1614155b8015610b8d5750600073ffffffffffffffffffffffffffffffffffffffff1660008381548110610b4257610b41613c41565b5b90600052602060002090600c020160010160009054906101000a900473ffffffffffffffffffffffffffffffffffffffff1673ffffffffffffffffffffffffffffffffffffffff1614155b8015610c8457503373ffffffffffffffffffffffffffffffffffffffff1660008381548110610bbf57610bbe613c41565b5b90600052602060002090600c020160000160009054906101000a900473ffffffffffffffffffffffffffffffffffffffff1673ffffffffffffffffffffffffffffffffffffffff161480610c8357503373ffffffffffffffffffffffffffffffffffffffff1660008381548110610c3957610c38613c41565b5b90600052602060002090600c020160010160009054906101000a900473ffffffffffffffffffffffffffffffffffffffff1673ffffffffffffffffffffffffffffffffffffffff16145b5b905080610cc6576040517f08c379a0000000000000000000000000000000000000000000000000000000008152600401610cbd9061408a565b60405180910390fd5b600073ffffffffffffffffffffffffffffffffffffffff1660008381548110610cf257610cf1613c41565b5b90600052602060002090600c020160040160009054906101000a900473ffffffffffffffffffffffffffffffffffffffff1673ffffffffffffffffffffffffffffffffffffffff1614158015610db957503373ffffffffffffffffffffffffffffffffffffffff1660008381548110610d6e57610d6d613c41565b5b90600052602060002090600c020160040160009054906101000a900473ffffffffffffffffffffffffffffffffffffffff1673ffffffffffffffffffffffffffffffffffffffff1614155b610df8576040517f08c379a0000000000000000000000000000000000000000000000000000000008152600401610def9061408a565b60405180910390fd5b6000808381548110610e0d57610e0c613c41565b5b90600052602060002090600c02016003015414610e5f576040517ffa21e398000000000000000000000000000000000000000000000000000000008152600401610e569061411c565b60405180910390fd5b6000808381548110610e7457610e73613c41565b5b90600052602060002090600c02016005015403610ec6576040517ffa21e398000000000000000000000000000000000000000000000000000000008152600401610ebd906141ae565b60405180910390fd5b60008281548110610eda57610ed9613c41565b5b90600052602060002090600c02016005015460008381548110610f0057610eff613c41565b5b90600052602060002090600c020160030181905550817f387ea7507bd65e609b1530432f9974fcb6227f213d6141475c009b49447bd87960008481548110610f4b57610f4a613c41565b5b90600052602060002090600c020160030154604051610f6a9190613be6565b60405180910390a25050565b6000808054905084108015610ffd5750600073ffffffffffffffffffffffffffffffffffffffff1660008581548110610fb257610fb1613c41565b5b90600052602060002090600c020160000160009054906101000a900473ffffffffffffffffffffffffffffffffffffffff1673ffffffffffffffffffffffffffffffffffffffff1614155b801561107b5750600073ffffffffffffffffffffffffffffffffffffffff16600085815481106110305761102f613c41565b5b90600052602060002090600c020160010160009054906101000a900473ffffffffffffffffffffffffffffffffffffffff1673ffffffffffffffffffffffffffffffffffffffff1614155b801561117257503373ffffffffffffffffffffffffffffffffffffffff16600085815481106110ad576110ac613c41565b5b90600052602060002090600c020160000160009054906101000a900473ffffffffffffffffffffffffffffffffffffffff1673ffffffffffffffffffffffffffffffffffffffff16148061117157503373ffffffffffffffffffffffffffffffffffffffff166000858154811061112757611126613c41565b5b90600052602060002090600c020160010160009054906101000a900473ffffffffffffffffffffffffffffffffffffffff1673ffffffffffffffffffffffffffffffffffffffff16145b5b9050806111b4576040517f08c379a00000000000000000000000000000000000000000000000000000000081526004016111ab9061408a565b60405180910390fd5b3373ffffffffffffffffffffffffffffffffffffffff16600085815481106111df576111de613c41565b5b90600052602060002090600c020160000160009054906101000a900473ffffffffffffffffffffffffffffffffffffffff1673ffffffffffffffffffffffffffffffffffffffff16036112b457837f6c096652adb4aef1dc8abccd5f4fdd2a52d0ba9a42dda148b22cc824e02dc764336000878154811061126357611262613c41565b5b90600052602060002090600c020160010160009054906101000a900473ffffffffffffffffffffffffffffffffffffffff1686866040516112a794939291906141ce565b60405180910390a2611338565b837f6c096652adb4aef1dc8abccd5f4fdd2a52d0ba9a42dda148b22cc824e02dc76433600087815481106112eb576112ea613c41565b5b90600052602060002090600c020160000160009054906101000a900473ffffffffffffffffffffffffffffffffffffffff16868660405161132f94939291906141ce565b60405180910390a25b50505050565b600060015411611383576040517ffa21e39800000000000000000000000000000000000000000000000000000000815260040161137a9061425f565b60405180910390fd5b600080836115be5760008054905083106113d2576040517f08c379a00000000000000000000000000000000000000000000000000000000081526004016113c99061408a565b60405180910390fd5b829050600073ffffffffffffffffffffffffffffffffffffffff166000828154811061140157611400613c41565b5b90600052602060002090600c020160000160009054906101000a900473ffffffffffffffffffffffffffffffffffffffff1673ffffffffffffffffffffffffffffffffffffffff1603611489576040517ffa21e398000000000000000000000000000000000000000000000000000000008152600401611480906142f1565b60405180910390fd5b600073ffffffffffffffffffffffffffffffffffffffff16600082815481106114b5576114b4613c41565b5b90600052602060002090600c020160010160009054906101000a900473ffffffffffffffffffffffffffffffffffffffff1673ffffffffffffffffffffffffffffffffffffffff161461153d576040517ffa21e3980000000000000000000000000000000000000000000000000000000081526004016115349061435d565b60405180910390fd5b336000828154811061155257611551613c41565b5b90600052602060002090600c020160010160006101000a81548173ffffffffffffffffffffffffffffffffffffffff021916908373ffffffffffffffffffffffffffffffffffffffff160217905550600160008154809291906115b490613f8d565b9190505550600191505b8380156115c9575081155b156118c55760006115d86132a2565b90506000600180548360001c6115ee91906143ac565b6115f891906143dd565b905060005b6000805490508110156118c157600073ffffffffffffffffffffffffffffffffffffffff166000828154811061163657611635613c41565b5b90600052602060002090600c020160010160009054906101000a900473ffffffffffffffffffffffffffffffffffffffff1673ffffffffffffffffffffffffffffffffffffffff161480156116fd5750600073ffffffffffffffffffffffffffffffffffffffff16600082815481106116b2576116b1613c41565b5b90600052602060002090600c020160000160009054906101000a900473ffffffffffffffffffffffffffffffffffffffff1673ffffffffffffffffffffffffffffffffffffffff1614155b80156117095750600182115b1561172157818061171990613f8d565b9250506118ae565b600073ffffffffffffffffffffffffffffffffffffffff166000828154811061174d5761174c613c41565b5b90600052602060002090600c020160010160009054906101000a900473ffffffffffffffffffffffffffffffffffffffff1673ffffffffffffffffffffffffffffffffffffffff161480156118145750600073ffffffffffffffffffffffffffffffffffffffff16600082815481106117c9576117c8613c41565b5b90600052602060002090600c020160000160009054906101000a900473ffffffffffffffffffffffffffffffffffffffff1673ffffffffffffffffffffffffffffffffffffffff1614155b80156118205750600182145b156118ad57336000828154811061183a57611839613c41565b5b90600052602060002090600c020160010160006101000a81548173ffffffffffffffffffffffffffffffffffffffff021916908373ffffffffffffffffffffffffffffffffffffffff1602179055508093506001600081548092919061189f90613f8d565b9190505550600194506118c1565b5b80806118b990614411565b9150506115fd565b5050505b8115611a2f5780600082815481106118e0576118df613c41565b5b90600052602060002090600c020160010160009054906101000a900473ffffffffffffffffffffffffffffffffffffffff1673ffffffffffffffffffffffffffffffffffffffff166000838154811061193c5761193b613c41565b5b90600052602060002090600c020160000160009054906101000a900473ffffffffffffffffffffffffffffffffffffffff1673ffffffffffffffffffffffffffffffffffffffff167f876ac2516429760d6f5b364659f4881cf65156ff3dd68d19b720d7f45d31ebd6600085815481106119b9576119b8613c41565b5b90600052602060002090600c020160050154600086815481106119df576119de613c41565b5b90600052602060002090600c02016002015460008781548110611a0557611a04613c41565b5b90600052602060002090600c0201600a0154604051611a2693929190614459565b60405180910390a45b81611a6f576040517ffa21e398000000000000000000000000000000000000000000000000000000008152600401611a66906144dc565b60405180910390fd5b50505050565b6000808054905082108015611afc5750600073ffffffffffffffffffffffffffffffffffffffff1660008381548110611ab157611ab0613c41565b5b90600052602060002090600c020160000160009054906101000a900473ffffffffffffffffffffffffffffffffffffffff1673ffffffffffffffffffffffffffffffffffffffff1614155b8015611b7a5750600073ffffffffffffffffffffffffffffffffffffffff1660008381548110611b2f57611b2e613c41565b5b90600052602060002090600c020160010160009054906101000a900473ffffffffffffffffffffffffffffffffffffffff1673ffffffffffffffffffffffffffffffffffffffff1614155b8015611c7157503373ffffffffffffffffffffffffffffffffffffffff1660008381548110611bac57611bab613c41565b5b90600052602060002090600c020160000160009054906101000a900473ffffffffffffffffffffffffffffffffffffffff1673ffffffffffffffffffffffffffffffffffffffff161480611c7057503373ffffffffffffffffffffffffffffffffffffffff1660008381548110611c2657611c25613c41565b5b90600052602060002090600c020160010160009054906101000a900473ffffffffffffffffffffffffffffffffffffffff1673ffffffffffffffffffffffffffffffffffffffff16145b5b905080611cb3576040517f08c379a0000000000000000000000000000000000000000000000000000000008152600401611caa9061408a565b60405180910390fd5b60003411611cf6576040517f08c379a0000000000000000000000000000000000000000000000000000000008152600401611ced90614548565b60405180910390fd5b3373ffffffffffffffffffffffffffffffffffffffff1660008381548110611d2157611d20613c41565b5b90600052602060002090600c020160000160009054906101000a900473ffffffffffffffffffffffffffffffffffffffff1673ffffffffffffffffffffffffffffffffffffffff1603611d9d573460008381548110611d8357611d82613c41565b5b90600052602060002090600c020160080181905550611dc8565b3460008381548110611db257611db1613c41565b5b90600052602060002090600c0201600901819055505b5050565b6000808054905085108015611e535750600073ffffffffffffffffffffffffffffffffffffffff1660008681548110611e0857611e07613c41565b5b90600052602060002090600c020160000160009054906101000a900473ffffffffffffffffffffffffffffffffffffffff1673ffffffffffffffffffffffffffffffffffffffff1614155b8015611ed15750600073ffffffffffffffffffffffffffffffffffffffff1660008681548110611e8657611e85613c41565b5b90600052602060002090600c020160010160009054906101000a900473ffffffffffffffffffffffffffffffffffffffff1673ffffffffffffffffffffffffffffffffffffffff1614155b8015611fc857503373ffffffffffffffffffffffffffffffffffffffff1660008681548110611f0357611f02613c41565b5b90600052602060002090600c020160000160009054906101000a900473ffffffffffffffffffffffffffffffffffffffff1673ffffffffffffffffffffffffffffffffffffffff161480611fc757503373ffffffffffffffffffffffffffffffffffffffff1660008681548110611f7d57611f7c613c41565b5b90600052602060002090600c020160010160009054906101000a900473ffffffffffffffffffffffffffffffffffffffff1673ffffffffffffffffffffffffffffffffffffffff16145b5b90508061200a576040517f08c379a00000000000000000000000000000000000000000000000000000000081526004016120019061408a565b60405180910390fd5b60008360405160200161201d9190614589565b60405160208183030381529060405290506060600080600090505b85518110156120dd5785818151811061205457612053613c41565b5b602002602001015160405160200161206c9190614589565b604051602081830303815290604052925083836040516020016120909291906145eb565b604051602081830303815290604052805190602001209150816040516020016120b9919061460f565b604051602081830303815290604052935080806120d590614411565b915050612038565b503373ffffffffffffffffffffffffffffffffffffffff166000898154811061210957612108613c41565b5b90600052602060002090600c020160000160009054906101000a900473ffffffffffffffffffffffffffffffffffffffff1673ffffffffffffffffffffffffffffffffffffffff160361261a576000816040516020016121699190614589565b6040516020818303038152906040528051906020012090506000808a8154811061219657612195613c41565b5b90600052602060002090600c0201600601546040516020016121b89190614589565b6040516020818303038152906040528051906020012090508082036122fb577f15982a83e4c674f8e36a5110d7aa80c6b1ed46412083733a9dde69fb362779ca600160008c8154811061220e5761220d613c41565b5b90600052602060002090600c020160010160009054906101000a900473ffffffffffffffffffffffffffffffffffffffff1660405161224e92919061466f565b60405180910390a1612295896040518060400160405280600181526020017f3100000000000000000000000000000000000000000000000000000000000000815250610a2f565b156122f657600160008b815481106122b0576122af613c41565b5b90600052602060002090600c0201600a01546122cc9190614698565b60008b815481106122e0576122df613c41565b5b90600052602060002090600c0201600a01819055505b612471565b897fd5562679467aef873d023ef06602fe4cb4a987be45e933b3255bbc7d6225ffb060008c8154811061233157612330613c41565b5b90600052602060002090600c020160010160009054906101000a900473ffffffffffffffffffffffffffffffffffffffff1660008d8154811061237757612376613c41565b5b90600052602060002090600c020160000160009054906101000a900473ffffffffffffffffffffffffffffffffffffffff166040516123b792919061473e565b60405180910390a260008a815481106123d3576123d2613c41565b5b90600052602060002090600c020160010160009054906101000a900473ffffffffffffffffffffffffffffffffffffffff1673ffffffffffffffffffffffffffffffffffffffff166108fc60008c8154811061243257612431613c41565b5b90600052602060002090600c0201600301549081150290604051600060405180830381858888f1935050505015801561246f573d6000803e3d6000fd5b505b6000808b8154811061248657612485613c41565b5b90600052602060002090600c0201600a0154116126135760008a815481106124b1576124b0613c41565b5b90600052602060002090600c020160010160009054906101000a900473ffffffffffffffffffffffffffffffffffffffff1673ffffffffffffffffffffffffffffffffffffffff166108fc60008c815481106125105761250f613c41565b5b90600052602060002090600c0201600301549081150290604051600060405180830381858888f1935050505015801561254d573d6000803e3d6000fd5b50897fd5562679467aef873d023ef06602fe4cb4a987be45e933b3255bbc7d6225ffb060008c8154811061258457612583613c41565b5b90600052602060002090600c020160010160009054906101000a900473ffffffffffffffffffffffffffffffffffffffff1660008d815481106125ca576125c9613c41565b5b90600052602060002090600c020160000160009054906101000a900473ffffffffffffffffffffffffffffffffffffffff1660405161260a9291906147c6565b60405180910390a25b5050612ada565b60008160405160200161262d9190614589565b6040516020818303038152906040528051906020012090506000808a8154811061265a57612659613c41565b5b90600052602060002090600c02016007015460405160200161267c9190614589565b6040516020818303038152906040528051906020012090508082036127bf577f15982a83e4c674f8e36a5110d7aa80c6b1ed46412083733a9dde69fb362779ca600160008c815481106126d2576126d1613c41565b5b90600052602060002090600c020160000160009054906101000a900473ffffffffffffffffffffffffffffffffffffffff1660405161271292919061466f565b60405180910390a1612759896040518060400160405280600181526020017f3100000000000000000000000000000000000000000000000000000000000000815250610a2f565b156127ba57600160008b8154811061277457612773613c41565b5b90600052602060002090600c0201600b01546127909190614698565b60008b815481106127a4576127a3613c41565b5b90600052602060002090600c0201600b01819055505b612935565b897fd5562679467aef873d023ef06602fe4cb4a987be45e933b3255bbc7d6225ffb060008c815481106127f5576127f4613c41565b5b90600052602060002090600c020160000160009054906101000a900473ffffffffffffffffffffffffffffffffffffffff1660008d8154811061283b5761283a613c41565b5b90600052602060002090600c020160010160009054906101000a900473ffffffffffffffffffffffffffffffffffffffff1660405161287b92919061473e565b60405180910390a260008a8154811061289757612896613c41565b5b90600052602060002090600c020160000160009054906101000a900473ffffffffffffffffffffffffffffffffffffffff1673ffffffffffffffffffffffffffffffffffffffff166108fc60008c815481106128f6576128f5613c41565b5b90600052602060002090600c0201600301549081150290604051600060405180830381858888f19350505050158015612933573d6000803e3d6000fd5b505b6000808b8154811061294a57612949613c41565b5b90600052602060002090600c0201600b015411612ad75760008a8154811061297557612974613c41565b5b90600052602060002090600c020160000160009054906101000a900473ffffffffffffffffffffffffffffffffffffffff1673ffffffffffffffffffffffffffffffffffffffff166108fc60008c815481106129d4576129d3613c41565b5b90600052602060002090600c0201600301549081150290604051600060405180830381858888f19350505050158015612a11573d6000803e3d6000fd5b50897fd5562679467aef873d023ef06602fe4cb4a987be45e933b3255bbc7d6225ffb060008c81548110612a4857612a47613c41565b5b90600052602060002090600c020160000160009054906101000a900473ffffffffffffffffffffffffffffffffffffffff1660008d81548110612a8e57612a8d613c41565b5b90600052602060002090600c020160010160009054906101000a900473ffffffffffffffffffffffffffffffffffffffff16604051612ace9291906147c6565b60405180910390a25b50505b5050505050505050565b60006040518061018001604052803373ffffffffffffffffffffffffffffffffffffffff168152602001600073ffffffffffffffffffffffffffffffffffffffff16815260200184815260200160008152602001600073ffffffffffffffffffffffffffffffffffffffff168152602001600081526020016000801b81526020016000801b815260200160008152602001600081526020018381526020018381525090806001815401808255809150506001900390600052602060002090600c020160009091909190915060008201518160000160006101000a81548173ffffffffffffffffffffffffffffffffffffffff021916908373ffffffffffffffffffffffffffffffffffffffff16021790555060208201518160010160006101000a81548173ffffffffffffffffffffffffffffffffffffffff021916908373ffffffffffffffffffffffffffffffffffffffff160217905550604082015181600201556060820151816003015560808201518160040160006101000a81548173ffffffffffffffffffffffffffffffffffffffff021916908373ffffffffffffffffffffffffffffffffffffffff16021790555060a0820151816005015560c0820151816006015560e082015181600701556101008201518160080155610120820151816009015561014082015181600a015561016082015181600b0155505060016000815480929190612cf790614411565b91905055503373ffffffffffffffffffffffffffffffffffffffff167f98fe6bfadae13408aaa640b94cce01ef446d3cb316585dd37dcfc4ebe23f73296001600080549050612d469190614698565b604051612d539190613be6565b60405180910390a25050565b600080825114159050919050565b60008181548110612d7d57600080fd5b90600052602060002090600c02016000915090508060000160009054906101000a900473ffffffffffffffffffffffffffffffffffffffff16908060010160009054906101000a900473ffffffffffffffffffffffffffffffffffffffff16908060020154908060030154908060040160009054906101000a900473ffffffffffffffffffffffffffffffffffffffff169080600501549080600601549080600701549080600801549080600901549080600a01549080600b015490508c565b60015481565b6000808054905082108015612eca5750600073ffffffffffffffffffffffffffffffffffffffff1660008381548110612e7f57612e7e613c41565b5b90600052602060002090600c020160000160009054906101000a900473ffffffffffffffffffffffffffffffffffffffff1673ffffffffffffffffffffffffffffffffffffffff1614155b8015612f485750600073ffffffffffffffffffffffffffffffffffffffff1660008381548110612efd57612efc613c41565b5b90600052602060002090600c020160010160009054906101000a900473ffffffffffffffffffffffffffffffffffffffff1673ffffffffffffffffffffffffffffffffffffffff1614155b801561303f57503373ffffffffffffffffffffffffffffffffffffffff1660008381548110612f7a57612f79613c41565b5b90600052602060002090600c020160000160009054906101000a900473ffffffffffffffffffffffffffffffffffffffff1673ffffffffffffffffffffffffffffffffffffffff16148061303e57503373ffffffffffffffffffffffffffffffffffffffff1660008381548110612ff457612ff3613c41565b5b90600052602060002090600c020160010160009054906101000a900473ffffffffffffffffffffffffffffffffffffffff1673ffffffffffffffffffffffffffffffffffffffff16145b5b905080613081576040517f08c379a00000000000000000000000000000000000000000000000000000000081526004016130789061408a565b60405180910390fd5b3373ffffffffffffffffffffffffffffffffffffffff16600083815481106130ac576130ab613c41565b5b90600052602060002090600c020160000160009054906101000a900473ffffffffffffffffffffffffffffffffffffffff1673ffffffffffffffffffffffffffffffffffffffff160361312857826000838154811061310e5761310d613c41565b5b90600052602060002090600c020160060181905550613153565b826000838154811061313d5761313c613c41565b5b90600052602060002090600c0201600701819055505b6000801b6000838154811061316b5761316a613c41565b5b90600052602060002090600c020160070154141580156131b357506000801b6000838154811061319e5761319d613c41565b5b90600052602060002090600c02016006015414155b1561329d57600082815481106131cc576131cb613c41565b5b90600052602060002090600c020160010160009054906101000a900473ffffffffffffffffffffffffffffffffffffffff1673ffffffffffffffffffffffffffffffffffffffff166000838154811061322857613227613c41565b5b90600052602060002090600c020160000160009054906101000a900473ffffffffffffffffffffffffffffffffffffffff1673ffffffffffffffffffffffffffffffffffffffff167f55b25d7f9b5bf8ea934ba7079455d2ba00c68ea7e66c13695275f6b75b95e5f860405160405180910390a35b505050565b6000806001436132b29190614698565b4090506000602067ffffffffffffffff8111156132d2576132d161368b565b5b6040519080825280601f01601f1916602001820160405280156133045781602001600182028036833780820191505090505b50905060005b602081101561337f5782816020811061332657613325613c41565b5b1a60f81b82828151811061333d5761333c613c41565b5b60200101907effffffffffffffffffffffffffffffffffffffffffffffffffffffffffffff1916908160001a905350808061337790614411565b91505061330a565b5060008180519060200120905080935050505090565b604051806101800160405280600073ffffffffffffffffffffffffffffffffffffffff168152602001600073ffffffffffffffffffffffffffffffffffffffff1681526020016000815260200160008152602001600073ffffffffffffffffffffffffffffffffffffffff168152602001600081526020016000801916815260200160008019168152602001600081526020016000815260200160008152602001600081525090565b6000604051905090565b600080fd5b600080fd5b6000819050919050565b61346581613452565b811461347057600080fd5b50565b6000813590506134828161345c565b92915050565b6000806040838503121561349f5761349e613448565b5b60006134ad85828601613473565b92505060206134be85828601613473565b9150509250929050565b6000602082840312156134de576134dd613448565b5b60006134ec84828501613473565b91505092915050565b600073ffffffffffffffffffffffffffffffffffffffff82169050919050565b6000613520826134f5565b9050919050565b61353081613515565b82525050565b61353f81613452565b82525050565b6000819050919050565b61355881613545565b82525050565b610180820160008201516135756000850182613527565b5060208201516135886020850182613527565b50604082015161359b6040850182613536565b5060608201516135ae6060850182613536565b5060808201516135c16080850182613527565b5060a08201516135d460a0850182613536565b5060c08201516135e760c085018261354f565b5060e08201516135fa60e085018261354f565b5061010082015161360f610100850182613536565b50610120820151613624610120850182613536565b50610140820151613639610140850182613536565b5061016082015161364e610160850182613536565b50505050565b60006101808201905061366a600083018461355e565b92915050565b600080fd5b600080fd5b6000601f19601f8301169050919050565b7f4e487b7100000000000000000000000000000000000000000000000000000000600052604160045260246000fd5b6136c38261367a565b810181811067ffffffffffffffff821117156136e2576136e161368b565b5b80604052505050565b60006136f561343e565b905061370182826136ba565b919050565b600067ffffffffffffffff8211156137215761372061368b565b5b61372a8261367a565b9050602081019050919050565b82818337600083830152505050565b600061375961375484613706565b6136eb565b90508281526020810184848401111561377557613774613675565b5b613780848285613737565b509392505050565b600082601f83011261379d5761379c613670565b5b81356137ad848260208601613746565b91505092915050565b600080604083850312156137cd576137cc613448565b5b600083013567ffffffffffffffff8111156137eb576137ea61344d565b5b6137f785828601613788565b925050602083013567ffffffffffffffff8111156138185761381761344d565b5b61382485828601613788565b9150509250929050565b60008115159050919050565b6138438161382e565b82525050565b600060208201905061385e600083018461383a565b92915050565b60008060006060848603121561387d5761387c613448565b5b600061388b86828701613473565b935050602061389c86828701613473565b92505060406138ad86828701613473565b9150509250925092565b6138c08161382e565b81146138cb57600080fd5b50565b6000813590506138dd816138b7565b92915050565b600080604083850312156138fa576138f9613448565b5b6000613908858286016138ce565b925050602061391985828601613473565b9150509250929050565b61392c81613545565b811461393757600080fd5b50565b60008135905061394981613923565b92915050565b600067ffffffffffffffff82111561396a5761396961368b565b5b602082029050602081019050919050565b600080fd5b600061399361398e8461394f565b6136eb565b905080838252602082019050602084028301858111156139b6576139b561397b565b5b835b818110156139df57806139cb888261393a565b8452602084019350506020810190506139b8565b5050509392505050565b600082601f8301126139fe576139fd613670565b5b8135613a0e848260208601613980565b91505092915050565b60008060008060808587031215613a3157613a30613448565b5b6000613a3f87828801613473565b945050602085013567ffffffffffffffff811115613a6057613a5f61344d565b5b613a6c87828801613788565b9350506040613a7d8782880161393a565b925050606085013567ffffffffffffffff811115613a9e57613a9d61344d565b5b613aaa878288016139e9565b91505092959194509250565b600060208284031215613acc57613acb613448565b5b600082013567ffffffffffffffff811115613aea57613ae961344d565b5b613af684828501613788565b91505092915050565b613b0881613515565b82525050565b613b1781613452565b82525050565b613b2681613545565b82525050565b600061018082019050613b42600083018f613aff565b613b4f602083018e613aff565b613b5c604083018d613b0e565b613b69606083018c613b0e565b613b76608083018b613aff565b613b8360a083018a613b0e565b613b9060c0830189613b1d565b613b9d60e0830188613b1d565b613bab610100830187613b0e565b613bb9610120830186613b0e565b613bc7610140830185613b0e565b613bd5610160830184613b0e565b9d9c50505050505050505050505050565b6000602082019050613bfb6000830184613b0e565b92915050565b60008060408385031215613c1857613c17613448565b5b6000613c268582860161393a565b9250506020613c3785828601613473565b9150509250929050565b7f4e487b7100000000000000000000000000000000000000000000000000000000600052603260045260246000fd5b600082825260208201905092915050565b7f5468652063726561746f72206964206973206e756c6c00000000000000000000600082015250565b6000613cb7601683613c70565b9150613cc282613c81565b602082019050919050565b60006020820190508181036000830152613ce681613caa565b9050919050565b7f54686520616d6f756e74206f72207468652067616d65496420617265206e756c60008201527f6c21000000000000000000000000000000000000000000000000000000000000602082015250565b6000613d49602283613c70565b9150613d5482613ced565b604082019050919050565b60006020820190508181036000830152613d7881613d3c565b9050919050565b7f746869732075736572206973206e6f742070617274206f66207468652067616d60008201527f6521000000000000000000000000000000000000000000000000000000000000602082015250565b6000613ddb602283613c70565b9150613de682613d7f565b604082019050919050565b60006020820190508181036000830152613e0a81613dce565b9050919050565b7f54686520616d6f756e7420666f7220746869732067616d652068617320616c7260008201527f65616479206265656e2064656369646564000000000000000000000000000000602082015250565b6000613e6d603183613c70565b9150613e7882613e11565b604082019050919050565b60006020820190508181036000830152613e9c81613e60565b9050919050565b6000604082019050613eb86000830185613b0e565b613ec56020830184613aff565b9392505050565b7f596f752063616e2774206c65617665207468652067616d6520696620796f752760008201527f7265206e6f7420746865206f776e657221000000000000000000000000000000602082015250565b6000613f28603183613c70565b9150613f3382613ecc565b604082019050919050565b60006020820190508181036000830152613f5781613f1b565b9050919050565b7f4e487b7100000000000000000000000000000000000000000000000000000000600052601160045260246000fd5b6000613f9882613452565b915060008203613fab57613faa613f5e565b5b600182039050919050565b600081519050919050565b600081905092915050565b60005b83811015613fea578082015181840152602081019050613fcf565b60008484015250505050565b600061400182613fb6565b61400b8185613fc1565b935061401b818560208601613fcc565b80840191505092915050565b60006140338284613ff6565b915081905092915050565b7f536f6d657468696e672077656e742077726f6e67210000000000000000000000600082015250565b6000614074601583613c70565b915061407f8261403e565b602082019050919050565b600060208201905081810360008301526140a381614067565b9050919050565b7f54686520616d6f756e7420666f7220746869732067616d652068617320616c7260008201527f65616479206265656e2064656369646564210000000000000000000000000000602082015250565b6000614106603283613c70565b9150614111826140aa565b604082019050919050565b60006020820190508181036000830152614135816140f9565b9050919050565b7f54686520616d6f756e7420666f7220746869732067616d65207761736e27742060008201527f6465636964656420796574210000000000000000000000000000000000000000602082015250565b6000614198602c83613c70565b91506141a38261413c565b604082019050919050565b600060208201905081810360008301526141c78161418b565b9050919050565b60006080820190506141e36000830187613aff565b6141f06020830186613aff565b6141fd6040830185613b0e565b61420a6060830184613b0e565b95945050505050565b7f4e6f206f70656e2067616d657300000000000000000000000000000000000000600082015250565b6000614249600d83613c70565b915061425482614213565b602082019050919050565b600060208201905081810360008301526142788161423c565b9050919050565b7f596f752063616e2774206a6f696e20746869732067616d652c2062656361757360008201527f652074686572652773206e6f20706c6179657220686572652100000000000000602082015250565b60006142db603983613c70565b91506142e68261427f565b604082019050919050565b6000602082019050818103600083015261430a816142ce565b9050919050565b7f47616d65206973206e6f74204672656500000000000000000000000000000000600082015250565b6000614347601083613c70565b915061435282614311565b602082019050919050565b600060208201905081810360008301526143768161433a565b9050919050565b7f4e487b7100000000000000000000000000000000000000000000000000000000600052601260045260246000fd5b60006143b782613452565b91506143c283613452565b9250826143d2576143d161437d565b5b828206905092915050565b60006143e882613452565b91506143f383613452565b925082820190508082111561440b5761440a613f5e565b5b92915050565b600061441c82613452565b91507fffffffffffffffffffffffffffffffffffffffffffffffffffffffffffffffff820361444e5761444d613f5e565b5b600182019050919050565b600060608201905061446e6000830186613b0e565b61447b6020830185613b0e565b6144886040830184613b0e565b949350505050565b7f4e6f742061626c6520746f2066696e6420616e206f70656e2067616d65000000600082015250565b60006144c6601d83613c70565b91506144d182614490565b602082019050919050565b600060208201905081810360008301526144f5816144b9565b9050919050565b7f4574682061726520302100000000000000000000000000000000000000000000600082015250565b6000614532600a83613c70565b915061453d826144fc565b602082019050919050565b6000602082019050818103600083015261456181614525565b9050919050565b6000819050919050565b61458361457e82613545565b614568565b82525050565b60006145958284614572565b60208201915081905092915050565b600081519050919050565b600081905092915050565b60006145c5826145a4565b6145cf81856145af565b93506145df818560208601613fcc565b80840191505092915050565b60006145f782856145ba565b915061460382846145ba565b91508190509392505050565b60006020820190506146246000830184613b1d565b92915050565b6000819050919050565b6000819050919050565b600061465961465461464f8461462a565b614634565b613452565b9050919050565b6146698161463e565b82525050565b60006040820190506146846000830185614660565b6146916020830184613aff565b9392505050565b60006146a382613452565b91506146ae83613452565b92508282039050818111156146c6576146c5613f5e565b5b92915050565b7f436865617465722064657465637465642c20746865206574682077696c6c206260008201527f652073656e7420746f207468652077696e6e6572210000000000000000000000602082015250565b6000614728603583613c70565b9150614733826146cc565b604082019050919050565b60006060820190506147536000830185613aff565b6147606020830184613aff565b81810360408301526147718161471b565b90509392505050565b7f456e64204f662047616d65210000000000000000000000000000000000000000600082015250565b60006147b0600c83613c70565b91506147bb8261477a565b602082019050919050565b60006060820190506147db6000830185613aff565b6147e86020830184613aff565b81810360408301526147f9816147a3565b9050939250505056fea26469706673582212207554a3526481b25c7a6144c63f584ce8390cf897e75cf46ba3088ef1d1f3261664736f6c63430008130033",
  "immutableReferences": {},
  "source": "// SPDX-License-Identifier: MIT\npragma solidity >=0.4.22 <0.9.0;\ncontract Battleship {\n  //struct for the Game\n  struct Game {\n        address first;\n        address second;\n        uint boardDim;\n        uint amount;\n        address amountRequester;//used to don't allow a user to commit an amount and accept it all by himself.\n        uint tempAmount;\n        bytes32 merkleFirst;\n        bytes32 merkleSecond;\n        uint ethFirst;\n        uint ethSecond;\n        uint firstNumShips;\n        uint secondNumShips;\n  }\n  //event to send when game starts\n  event GameCreated(address indexed _first,address indexed _second,uint _amountTemp ,uint indexed _gameId,uint _boardDim,uint _numberOfShips);\n  //event to declare the amount of money the game will have, it is used during the decision of how much money to spend in the game\n  event AmountToSpend(uint indexed _gameId,uint _amount,address _from);\n  //event for the amount that the game will have\n  event AmountDecided(uint indexed _gameId,uint _amount);\n  //event for outputting an uint value\n  event UintOutput(address indexed _from,uint _value);\n  //ErrorOut string\n  error ErrorOut(string err);\n  //The game has officially started.\n  event GameStarted(address indexed _first, address indexed _second);\n  //Attack the opponent\n  event AttackOpp(uint indexed _gameId ,address _attacker, address _opponent, uint _row, uint _col);\n  //event after attack\n  event AttackRes(uint _result,address _attacker);\n  //event game end\n  event GameEnd(uint indexed _gameId,address _winner,address _loser,string _cause);\n  //Array of games\n  Game[] public listOfGames;\n  //variable to keep the number of open games.\n  uint public openGames = 0;\n  constructor() {\n  }\n\n  function CreateGame(uint _boardDim,uint _numberOfShips) public{ //Game Creation, creates a game with only the first player saved.\n    listOfGames.push(Game(msg.sender,address(0),_boardDim,0,address(0),0,0,0,0,0,_numberOfShips,_numberOfShips));\n    openGames++;\n    emit UintOutput(msg.sender,listOfGames.length - 1); \n  }\n  function JoinGame(bool _isRand,uint _gameIndex) public {//Join a game.\n    if(openGames <= 0) revert ErrorOut({err:\"No open games\"});\n    \n    bool found = false;\n    uint returnIndex = 0;\n    if(!_isRand) { //can be joined specifically by passing a game id.\n      require(_gameIndex < listOfGames.length,\"Something went wrong!\");\n      returnIndex = _gameIndex;\n      if(listOfGames[returnIndex].first == address(0)) revert ErrorOut({err:\"You can't join this game, because there's no player here!\"});\n      //if(listOfGames[returnIndex].first == msg.sender) revert(\"User can't access his own game!\");\n      if(listOfGames[returnIndex].second != address(0)) revert ErrorOut({err:\"Game is not Free\"});\n      listOfGames[(returnIndex)].second = msg.sender;\n      openGames--;\n      found = true;\n    }\n    //can be joined randomly, the contract will find a random game from the open ones.\n\n    if(_isRand && !found){\n      bytes32 rand = randGenerator();\n      uint index = uint(rand) % openGames + 1;\n      for(uint i = 0; i < listOfGames.length; i++){\n        if(listOfGames[i].second == address(0) && listOfGames[i].first != address(0) && index > 1) index--;\n        else if (listOfGames[i].second == address(0) && listOfGames[i].first != address(0) && index == 1) {\n          listOfGames[i].second = msg.sender;\n          returnIndex = i;\n          openGames--;\n          found = true;\n          break;\n        }\n      }\n    }\n\n    if(found) emit GameCreated(listOfGames[returnIndex].first,listOfGames[returnIndex].second,listOfGames[returnIndex].tempAmount,returnIndex,listOfGames[returnIndex].boardDim,listOfGames[returnIndex].firstNumShips);\n      \n    if(!found)revert ErrorOut({err:\"Not able to find an open game\"});\n  }\n\n  function AmountCommit(uint _gameId,uint _amount) public{\n    if(listOfGames[_gameId].first == address(0)) revert ErrorOut({err:\"The creator id is null\"});\n    require(_amount > 0 && _gameId < listOfGames.length,\"The amount or the gameId are null!\");\n    require(listOfGames[_gameId].first == msg.sender || listOfGames[_gameId].second == msg.sender,\"this user is not part of the game!\");\n    if(listOfGames[_gameId].amount != 0) revert ErrorOut({err:\"The amount for this game has already been decided\"});\n    listOfGames[_gameId].tempAmount = _amount;\n    listOfGames[_gameId].amountRequester = msg.sender;\n    emit AmountToSpend(_gameId, _amount,msg.sender);\n  }\n  function AcceptedAmount(uint _gameId) public{\n    bool condition = _gameId < listOfGames.length && listOfGames[_gameId].first != address(0) && listOfGames[_gameId].second != address(0) && (listOfGames[_gameId].first == msg.sender || listOfGames[_gameId].second == msg.sender);\n    require(condition,\"Something went wrong!\");\n    require(listOfGames[_gameId].amountRequester != address(0) && listOfGames[_gameId].amountRequester != msg.sender,\"Something went wrong!\");\n    if(listOfGames[_gameId].amount != 0) revert ErrorOut({err:\"The amount for this game has already been decided!\"});\n    if(listOfGames[_gameId].tempAmount == 0) revert ErrorOut({err:\"The amount for this game wasn't decided yet!\"});\n    listOfGames[_gameId].amount = listOfGames[_gameId].tempAmount;\n    emit AmountDecided(_gameId,listOfGames[_gameId].amount);\n  }\n  function SendEther(uint _gameId) public payable {\n    bool condition = _gameId < listOfGames.length && listOfGames[_gameId].first != address(0) && listOfGames[_gameId].second != address(0) && (listOfGames[_gameId].first == msg.sender || listOfGames[_gameId].second == msg.sender);\n    require(condition,\"Something went wrong!\");\n    require(msg.value > 0,\"Eth are 0!\");\n    if(listOfGames[_gameId].first == msg.sender) listOfGames[_gameId].ethFirst = msg.value;\n    else listOfGames[_gameId].ethSecond = msg.value;\n    }\n    function AttackOpponent(uint _gameId, uint _row, uint _col) public {\n    bool condition = _gameId < listOfGames.length && listOfGames[_gameId].first != address(0) && listOfGames[_gameId].second != address(0) && (listOfGames[_gameId].first == msg.sender || listOfGames[_gameId].second == msg.sender);\n    require(condition,\"Something went wrong!\");\n    if(listOfGames[_gameId].first == msg.sender) emit AttackOpp(_gameId,msg.sender,listOfGames[_gameId].second,_row,_col);\n    else emit AttackOpp(_gameId,msg.sender,listOfGames[_gameId].first,_row,_col);\n    }\n\n    function MerkleProofAttack(uint _gameId,string memory _attackRes,bytes32 _attackHash,bytes32[] memory merkleProof) public{\n    bool condition = _gameId < listOfGames.length && listOfGames[_gameId].first != address(0) && listOfGames[_gameId].second != address(0) && (listOfGames[_gameId].first == msg.sender || listOfGames[_gameId].second == msg.sender);\n    require(condition,\"Something went wrong!\");\n    bytes memory byteArray = abi.encodePacked(_attackHash);\n    bytes memory byteArraytemp;\n\n    bytes32 temp;\n    for(uint i = 0; i < merkleProof.length; i++){\n        byteArraytemp = abi.encodePacked(merkleProof[i]);\n        temp = keccak256(abi.encodePacked(byteArray,byteArraytemp));\n        byteArray = abi.encode(temp);\n      }\n      \n    if(listOfGames[_gameId].first == msg.sender) {\n      bytes32 temp1_el = keccak256(abi.encodePacked(temp));\n      bytes32 temp2_el = keccak256(abi.encodePacked(listOfGames[_gameId].merkleFirst));\n      if(temp1_el == temp2_el ) {\n        emit AttackRes(1,listOfGames[_gameId].second);\n        if(compare(_attackRes,\"1\")) listOfGames[_gameId].firstNumShips = listOfGames[_gameId].firstNumShips - 1;\n      }\n      else {\n        emit GameEnd(_gameId,listOfGames[_gameId].second,listOfGames[_gameId].first,\"Cheater detected, the eth will be sent to the winner!\");\n        payable(listOfGames[_gameId].second).transfer(listOfGames[_gameId].amount);\n      }\n      if(listOfGames[_gameId].firstNumShips <= 0) {payable(listOfGames[_gameId].second).transfer(listOfGames[_gameId].amount);\n      emit GameEnd(_gameId,listOfGames[_gameId].second,listOfGames[_gameId].first,\"End Of Game!\");\n      }\n    }\n    else {\n          bytes32 temp1_el = keccak256(abi.encodePacked(temp));\n          bytes32 temp2_el = keccak256(abi.encodePacked(listOfGames[_gameId].merkleSecond));\n\n          if(temp1_el == temp2_el) {\n            emit AttackRes(1,listOfGames[_gameId].first);\n            if(compare(_attackRes,\"1\")) listOfGames[_gameId].secondNumShips = listOfGames[_gameId].secondNumShips - 1;\n\n          }\n      else {\n        emit GameEnd(_gameId,listOfGames[_gameId].first,listOfGames[_gameId].second,\"Cheater detected, the eth will be sent to the winner!\");\n        payable(listOfGames[_gameId].first).transfer(listOfGames[_gameId].amount);\n      }\n      if(listOfGames[_gameId].secondNumShips <= 0) {payable(listOfGames[_gameId].first).transfer(listOfGames[_gameId].amount);\n      emit GameEnd(_gameId,listOfGames[_gameId].first,listOfGames[_gameId].second,\"End Of Game!\");\n      }\n    }\n    \n    }\n\n\n\n     function compare(string memory str1, string memory str2) public pure returns (bool) {\n        return keccak256(abi.encodePacked(str1)) == keccak256(abi.encodePacked(str2));\n    }\n\n\n\n    function getList(uint _gameId) public view returns (Game memory){\n      return listOfGames[_gameId];\n    }\n\n  function SendMerkleRoot(bytes32 _merkleroot, uint _gameId) public{//Done at the start of the game by both players, otherwise the game don't start.\n    bool condition = _gameId < listOfGames.length && listOfGames[_gameId].first != address(0) && listOfGames[_gameId].second != address(0) && (listOfGames[_gameId].first == msg.sender || listOfGames[_gameId].second == msg.sender);\n    require(condition,\"Something went wrong!\");\n    if(listOfGames[_gameId].first == msg.sender) listOfGames[_gameId].merkleFirst = _merkleroot;\n    else listOfGames[_gameId].merkleSecond = _merkleroot;\n    if(listOfGames[_gameId].merkleSecond != 0 && listOfGames[_gameId].merkleFirst != 0) emit GameStarted(listOfGames[_gameId].first, listOfGames[_gameId].second);\n  }\n\n   function checkStringNotEmpty(string memory inString) public pure returns (bool) {\n        return bytes(inString).length != 0;\n    }\n\n  function LeaveGame(uint _gameId) public { //you can leave the game only if you are the creator and before the game has started.\n    require(_gameId < listOfGames.length && listOfGames[_gameId].first == msg.sender && listOfGames[_gameId].second == address(0),\"You can't leave the game if you're not the owner!\");\n    listOfGames[_gameId].first = address(0);\n    openGames--;\n  }\n\n\n  //TO DO START GAME, CONTROLLO CHE AMOUNT  STATO DECISO\n\n\n  function randGenerator() private view returns (bytes32){\n    //Helps with random number generation\n    bytes32 bhash=blockhash(block.number-1);\n    bytes memory bytesArray = new bytes(32);\n    for (uint i; i <32; i++)\n    {bytesArray[i] =bhash[i];}\n    bytes32 rand = keccak256(bytesArray);\n    return rand;\n  }\n\n\n}\n",
  "sourcePath": "C:\\Users\\given\\Desktop\\Appunti\\p2p\\Progetto\\Battleship\\contracts\\Battleship.sol",
  "compiler": {
    "name": "solc",
    "version": "0.8.19+commit.7dd6d404.Emscripten.clang"
  },
  "schemaVersion": "3.4.13",
  "updatedAt": "2023-05-27T17:07:18.086Z",
  "networkType": "ethereum",
  "devdoc": {
    "kind": "dev",
    "methods": {},
    "version": 1
  },
  "userdoc": {
    "kind": "user",
    "methods": {},
    "version": 1
  }
}