{
  "contractName": "Battleship",
  "abi": [
    {
      "inputs": [],
      "stateMutability": "nonpayable",
      "type": "constructor"
    },
    {
      "anonymous": false,
      "inputs": [
        {
          "indexed": true,
          "internalType": "uint256",
          "name": "_gameId",
          "type": "uint256"
        },
        {
          "indexed": false,
          "internalType": "uint256",
          "name": "_amount",
          "type": "uint256"
        }
      ],
      "name": "AmountDecided",
      "type": "event"
    },
    {
      "anonymous": false,
      "inputs": [
        {
          "indexed": true,
          "internalType": "uint256",
          "name": "_gameId",
          "type": "uint256"
        },
        {
          "indexed": false,
          "internalType": "uint256",
          "name": "_amount",
          "type": "uint256"
        }
      ],
      "name": "AmountToSpend",
      "type": "event"
    },
    {
      "anonymous": false,
      "inputs": [
        {
          "indexed": true,
          "internalType": "address",
          "name": "_first",
          "type": "address"
        },
        {
          "indexed": true,
          "internalType": "address",
          "name": "_second",
          "type": "address"
        },
        {
          "indexed": true,
          "internalType": "uint256",
          "name": "_gameId",
          "type": "uint256"
        }
      ],
      "name": "GameStarted",
      "type": "event"
    },
    {
      "anonymous": false,
      "inputs": [
        {
          "indexed": true,
          "internalType": "address",
          "name": "_from",
          "type": "address"
        },
        {
          "indexed": false,
          "internalType": "uint256",
          "name": "_value",
          "type": "uint256"
        }
      ],
      "name": "UintOutput",
      "type": "event"
    },
    {
      "inputs": [
        {
          "internalType": "uint256",
          "name": "",
          "type": "uint256"
        }
      ],
      "name": "listOfGames",
      "outputs": [
        {
          "internalType": "address",
          "name": "first",
          "type": "address"
        },
        {
          "internalType": "address",
          "name": "second",
          "type": "address"
        },
        {
          "internalType": "uint256",
          "name": "amount",
          "type": "uint256"
        },
        {
          "internalType": "address",
          "name": "amountRequester",
          "type": "address"
        },
        {
          "internalType": "uint256",
          "name": "tempAmount",
          "type": "uint256"
        },
        {
          "internalType": "string",
          "name": "merkle_first",
          "type": "string"
        },
        {
          "internalType": "string",
          "name": "merkle_second",
          "type": "string"
        }
      ],
      "stateMutability": "view",
      "type": "function",
      "constant": true
    },
    {
      "inputs": [],
      "name": "openGames",
      "outputs": [
        {
          "internalType": "uint256",
          "name": "",
          "type": "uint256"
        }
      ],
      "stateMutability": "view",
      "type": "function",
      "constant": true
    },
    {
      "inputs": [],
      "name": "CreateGame",
      "outputs": [],
      "stateMutability": "nonpayable",
      "type": "function"
    },
    {
      "inputs": [
        {
          "internalType": "bool",
          "name": "_isRand",
          "type": "bool"
        },
        {
          "internalType": "uint256",
          "name": "_gameIndex",
          "type": "uint256"
        }
      ],
      "name": "JoinGame",
      "outputs": [],
      "stateMutability": "nonpayable",
      "type": "function"
    },
    {
      "inputs": [
        {
          "internalType": "uint256",
          "name": "_gameId",
          "type": "uint256"
        },
        {
          "internalType": "uint256",
          "name": "_amount",
          "type": "uint256"
        }
      ],
      "name": "AmountCommit",
      "outputs": [],
      "stateMutability": "nonpayable",
      "type": "function"
    },
    {
      "inputs": [
        {
          "internalType": "uint256",
          "name": "_gameId",
          "type": "uint256"
        }
      ],
      "name": "AcceptedAmount",
      "outputs": [],
      "stateMutability": "nonpayable",
      "type": "function"
    }
  ],
  "bytecode": "0x6080604052600060015534801561001557600080fd5b50611e47806100256000396000f3fe608060405234801561001057600080fd5b50600436106100615760003560e01c80628bdd7d146100665780634dd99ed114610082578063810ff1fd1461009e578063a8c35c41146100ba578063f4023d28146100c4578063fac196e6146100fa575b600080fd5b610080600480360381019061007b91906113aa565b610118565b005b61009c600480360381019061009791906113ea565b61045a565b005b6100b860048036038101906100b3919061144f565b6108dc565b005b6100c2610e62565b005b6100de60048036038101906100d991906113ea565b6110b4565b6040516100f1979695949392919061156f565b60405180910390f35b610102611276565b60405161010f91906115ec565b60405180910390f35b60008111801561012c575060008054905082105b80156101aa5750600073ffffffffffffffffffffffffffffffffffffffff166000838154811061015f5761015e611607565b5b906000526020600020906007020160000160009054906101000a900473ffffffffffffffffffffffffffffffffffffffff1673ffffffffffffffffffffffffffffffffffffffff1614155b80156102285750600073ffffffffffffffffffffffffffffffffffffffff16600083815481106101dd576101dc611607565b5b906000526020600020906007020160010160009054906101000a900473ffffffffffffffffffffffffffffffffffffffff1673ffffffffffffffffffffffffffffffffffffffff1614155b61023157600080fd5b3373ffffffffffffffffffffffffffffffffffffffff166000838154811061025c5761025b611607565b5b906000526020600020906007020160000160009054906101000a900473ffffffffffffffffffffffffffffffffffffffff1673ffffffffffffffffffffffffffffffffffffffff16148061032057503373ffffffffffffffffffffffffffffffffffffffff16600083815481106102d6576102d5611607565b5b906000526020600020906007020160010160009054906101000a900473ffffffffffffffffffffffffffffffffffffffff1673ffffffffffffffffffffffffffffffffffffffff16145b61032957600080fd5b600080838154811061033e5761033d611607565b5b90600052602060002090600702016002015414610390576040517f08c379a0000000000000000000000000000000000000000000000000000000008152600401610387906116a8565b60405180910390fd5b80600083815481106103a5576103a4611607565b5b90600052602060002090600702016004018190555033600083815481106103cf576103ce611607565b5b906000526020600020906007020160030160006101000a81548173ffffffffffffffffffffffffffffffffffffffff021916908373ffffffffffffffffffffffffffffffffffffffff160217905550817f05d149a2b872dbeeb51193436602a8f57ca195dba699ee3d79e444db108443d28260405161044e91906115ec565b60405180910390a25050565b60008080549050821080156104e15750600073ffffffffffffffffffffffffffffffffffffffff166000838154811061049657610495611607565b5b906000526020600020906007020160000160009054906101000a900473ffffffffffffffffffffffffffffffffffffffff1673ffffffffffffffffffffffffffffffffffffffff1614155b801561055f5750600073ffffffffffffffffffffffffffffffffffffffff166000838154811061051457610513611607565b5b906000526020600020906007020160010160009054906101000a900473ffffffffffffffffffffffffffffffffffffffff1673ffffffffffffffffffffffffffffffffffffffff1614155b801561065657503373ffffffffffffffffffffffffffffffffffffffff166000838154811061059157610590611607565b5b906000526020600020906007020160000160009054906101000a900473ffffffffffffffffffffffffffffffffffffffff1673ffffffffffffffffffffffffffffffffffffffff16148061065557503373ffffffffffffffffffffffffffffffffffffffff166000838154811061060b5761060a611607565b5b906000526020600020906007020160010160009054906101000a900473ffffffffffffffffffffffffffffffffffffffff1673ffffffffffffffffffffffffffffffffffffffff16145b5b90508061066257600080fd5b600073ffffffffffffffffffffffffffffffffffffffff166000838154811061068e5761068d611607565b5b906000526020600020906007020160030160009054906101000a900473ffffffffffffffffffffffffffffffffffffffff1673ffffffffffffffffffffffffffffffffffffffff161415801561075557503373ffffffffffffffffffffffffffffffffffffffff166000838154811061070a57610709611607565b5b906000526020600020906007020160030160009054906101000a900473ffffffffffffffffffffffffffffffffffffffff1673ffffffffffffffffffffffffffffffffffffffff1614155b61075e57600080fd5b600080838154811061077357610772611607565b5b906000526020600020906007020160020154146107c5576040517f08c379a00000000000000000000000000000000000000000000000000000000081526004016107bc9061173a565b60405180910390fd5b60008083815481106107da576107d9611607565b5b9060005260206000209060070201600401540361082c576040517f08c379a0000000000000000000000000000000000000000000000000000000008152600401610823906117cc565b60405180910390fd5b600082815481106108405761083f611607565b5b9060005260206000209060070201600401546000838154811061086657610865611607565b5b906000526020600020906007020160020181905550817f387ea7507bd65e609b1530432f9974fcb6227f213d6141475c009b49447bd879600084815481106108b1576108b0611607565b5b9060005260206000209060070201600201546040516108d091906115ec565b60405180910390a25050565b600060015411610921576040517f08c379a000000000000000000000000000000000000000000000000000000000815260040161091890611838565b60405180910390fd5b60008083610b2557600080549050831061093a57600080fd5b8290503373ffffffffffffffffffffffffffffffffffffffff166000828154811061096857610967611607565b5b906000526020600020906007020160000160009054906101000a900473ffffffffffffffffffffffffffffffffffffffff1673ffffffffffffffffffffffffffffffffffffffff16036109f0576040517f08c379a00000000000000000000000000000000000000000000000000000000081526004016109e7906118a4565b60405180910390fd5b600073ffffffffffffffffffffffffffffffffffffffff1660008281548110610a1c57610a1b611607565b5b906000526020600020906007020160010160009054906101000a900473ffffffffffffffffffffffffffffffffffffffff1673ffffffffffffffffffffffffffffffffffffffff1614610aa4576040517f08c379a0000000000000000000000000000000000000000000000000000000008152600401610a9b90611910565b60405180910390fd5b3360008281548110610ab957610ab8611607565b5b906000526020600020906007020160010160006101000a81548173ffffffffffffffffffffffffffffffffffffffff021916908373ffffffffffffffffffffffffffffffffffffffff16021790555060016000815480929190610b1b9061195f565b9190505550600191505b838015610b30575081155b15610d30576000610b3f61127c565b90506000600180548360001c610b5591906119b7565b610b5f91906119e8565b905060005b600080549050811015610d2c57600073ffffffffffffffffffffffffffffffffffffffff1660008281548110610b9d57610b9c611607565b5b906000526020600020906007020160010160009054906101000a900473ffffffffffffffffffffffffffffffffffffffff1673ffffffffffffffffffffffffffffffffffffffff16148015610bf25750600182115b15610c0a578180610c029061195f565b925050610d19565b600073ffffffffffffffffffffffffffffffffffffffff1660008281548110610c3657610c35611607565b5b906000526020600020906007020160010160009054906101000a900473ffffffffffffffffffffffffffffffffffffffff1673ffffffffffffffffffffffffffffffffffffffff16148015610c8b5750600182145b15610d18573360008281548110610ca557610ca4611607565b5b906000526020600020906007020160010160006101000a81548173ffffffffffffffffffffffffffffffffffffffff021916908373ffffffffffffffffffffffffffffffffffffffff16021790555080935060016000815480929190610d0a9061195f565b919050555060019450610d2c565b5b8080610d2490611a1c565b915050610b64565b5050505b8115610e1c578060008281548110610d4b57610d4a611607565b5b906000526020600020906007020160010160009054906101000a900473ffffffffffffffffffffffffffffffffffffffff1673ffffffffffffffffffffffffffffffffffffffff1660008381548110610da757610da6611607565b5b906000526020600020906007020160000160009054906101000a900473ffffffffffffffffffffffffffffffffffffffff1673ffffffffffffffffffffffffffffffffffffffff167fee0dca10a9957dad74da3fe318a3ccc561c46d96be0ab0b66e7aff32aab94cf360405160405180910390a45b81610e5c576040517f08c379a0000000000000000000000000000000000000000000000000000000008152600401610e5390611ab0565b60405180910390fd5b50505050565b60006040518060e001604052803373ffffffffffffffffffffffffffffffffffffffff168152602001600073ffffffffffffffffffffffffffffffffffffffff16815260200160008152602001600073ffffffffffffffffffffffffffffffffffffffff1681526020016000815260200160405180602001604052806000815250815260200160405180602001604052806000815250815250908060018154018082558091505060019003906000526020600020906007020160009091909190915060008201518160000160006101000a81548173ffffffffffffffffffffffffffffffffffffffff021916908373ffffffffffffffffffffffffffffffffffffffff16021790555060208201518160010160006101000a81548173ffffffffffffffffffffffffffffffffffffffff021916908373ffffffffffffffffffffffffffffffffffffffff1602179055506040820151816002015560608201518160030160006101000a81548173ffffffffffffffffffffffffffffffffffffffff021916908373ffffffffffffffffffffffffffffffffffffffff1602179055506080820151816004015560a08201518160050190816110229190611d0b565b5060c08201518160060190816110389190611d0b565b5050506001600081548092919061104e90611a1c565b91905055503373ffffffffffffffffffffffffffffffffffffffff167f98fe6bfadae13408aaa640b94cce01ef446d3cb316585dd37dcfc4ebe23f7329600160008054905061109d9190611ddd565b6040516110aa91906115ec565b60405180910390a2565b600081815481106110c457600080fd5b90600052602060002090600702016000915090508060000160009054906101000a900473ffffffffffffffffffffffffffffffffffffffff16908060010160009054906101000a900473ffffffffffffffffffffffffffffffffffffffff16908060020154908060030160009054906101000a900473ffffffffffffffffffffffffffffffffffffffff169080600401549080600501805461116590611b2e565b80601f016020809104026020016040519081016040528092919081815260200182805461119190611b2e565b80156111de5780601f106111b3576101008083540402835291602001916111de565b820191906000526020600020905b8154815290600101906020018083116111c157829003601f168201915b5050505050908060060180546111f390611b2e565b80601f016020809104026020016040519081016040528092919081815260200182805461121f90611b2e565b801561126c5780601f106112415761010080835404028352916020019161126c565b820191906000526020600020905b81548152906001019060200180831161124f57829003601f168201915b5050505050905087565b60015481565b60008060014361128c9190611ddd565b4090506000602067ffffffffffffffff8111156112ac576112ab611ad0565b5b6040519080825280601f01601f1916602001820160405280156112de5781602001600182028036833780820191505090505b50905060005b602081101561135957828160208110611300576112ff611607565b5b1a60f81b82828151811061131757611316611607565b5b60200101907effffffffffffffffffffffffffffffffffffffffffffffffffffffffffffff1916908160001a905350808061135190611a1c565b9150506112e4565b5060008180519060200120905080935050505090565b600080fd5b6000819050919050565b61138781611374565b811461139257600080fd5b50565b6000813590506113a48161137e565b92915050565b600080604083850312156113c1576113c061136f565b5b60006113cf85828601611395565b92505060206113e085828601611395565b9150509250929050565b600060208284031215611400576113ff61136f565b5b600061140e84828501611395565b91505092915050565b60008115159050919050565b61142c81611417565b811461143757600080fd5b50565b60008135905061144981611423565b92915050565b600080604083850312156114665761146561136f565b5b60006114748582860161143a565b925050602061148585828601611395565b9150509250929050565b600073ffffffffffffffffffffffffffffffffffffffff82169050919050565b60006114ba8261148f565b9050919050565b6114ca816114af565b82525050565b6114d981611374565b82525050565b600081519050919050565b600082825260208201905092915050565b60005b838110156115195780820151818401526020810190506114fe565b60008484015250505050565b6000601f19601f8301169050919050565b6000611541826114df565b61154b81856114ea565b935061155b8185602086016114fb565b61156481611525565b840191505092915050565b600060e082019050611584600083018a6114c1565b61159160208301896114c1565b61159e60408301886114d0565b6115ab60608301876114c1565b6115b860808301866114d0565b81810360a08301526115ca8185611536565b905081810360c08301526115de8184611536565b905098975050505050505050565b600060208201905061160160008301846114d0565b92915050565b7f4e487b7100000000000000000000000000000000000000000000000000000000600052603260045260246000fd5b7f54686520616d6f756e7420666f7220746869732067616d652068617320616c7260008201527f65616479206265656e2064656369646564000000000000000000000000000000602082015250565b60006116926031836114ea565b915061169d82611636565b604082019050919050565b600060208201905081810360008301526116c181611685565b9050919050565b7f54686520616d6f756e7420666f7220746869732067616d652068617320616c7260008201527f65616479206265656e2064656369646564210000000000000000000000000000602082015250565b60006117246032836114ea565b915061172f826116c8565b604082019050919050565b6000602082019050818103600083015261175381611717565b9050919050565b7f54686520616d6f756e7420666f7220746869732067616d65207761736e27742060008201527f6465636964656420796574210000000000000000000000000000000000000000602082015250565b60006117b6602c836114ea565b91506117c18261175a565b604082019050919050565b600060208201905081810360008301526117e5816117a9565b9050919050565b7f4e6f206f70656e2067616d657300000000000000000000000000000000000000600082015250565b6000611822600d836114ea565b915061182d826117ec565b602082019050919050565b6000602082019050818103600083015261185181611815565b9050919050565b7f557365722063616e27742061636365737320686973206f776e2067616d652100600082015250565b600061188e601f836114ea565b915061189982611858565b602082019050919050565b600060208201905081810360008301526118bd81611881565b9050919050565b7f47616d65206973206e6f74204672656500000000000000000000000000000000600082015250565b60006118fa6010836114ea565b9150611905826118c4565b602082019050919050565b60006020820190508181036000830152611929816118ed565b9050919050565b7f4e487b7100000000000000000000000000000000000000000000000000000000600052601160045260246000fd5b600061196a82611374565b91506000820361197d5761197c611930565b5b600182039050919050565b7f4e487b7100000000000000000000000000000000000000000000000000000000600052601260045260246000fd5b60006119c282611374565b91506119cd83611374565b9250826119dd576119dc611988565b5b828206905092915050565b60006119f382611374565b91506119fe83611374565b9250828201905080821115611a1657611a15611930565b5b92915050565b6000611a2782611374565b91507fffffffffffffffffffffffffffffffffffffffffffffffffffffffffffffffff8203611a5957611a58611930565b5b600182019050919050565b7f4e6f742061626c6520746f2066696e6420616e206f70656e2067616d65000000600082015250565b6000611a9a601d836114ea565b9150611aa582611a64565b602082019050919050565b60006020820190508181036000830152611ac981611a8d565b9050919050565b7f4e487b7100000000000000000000000000000000000000000000000000000000600052604160045260246000fd5b7f4e487b7100000000000000000000000000000000000000000000000000000000600052602260045260246000fd5b60006002820490506001821680611b4657607f821691505b602082108103611b5957611b58611aff565b5b50919050565b60008190508160005260206000209050919050565b60006020601f8301049050919050565b600082821b905092915050565b600060088302611bc17fffffffffffffffffffffffffffffffffffffffffffffffffffffffffffffffff82611b84565b611bcb8683611b84565b95508019841693508086168417925050509392505050565b6000819050919050565b6000611c08611c03611bfe84611374565b611be3565b611374565b9050919050565b6000819050919050565b611c2283611bed565b611c36611c2e82611c0f565b848454611b91565b825550505050565b600090565b611c4b611c3e565b611c56818484611c19565b505050565b5b81811015611c7a57611c6f600082611c43565b600181019050611c5c565b5050565b601f821115611cbf57611c9081611b5f565b611c9984611b74565b81016020851015611ca8578190505b611cbc611cb485611b74565b830182611c5b565b50505b505050565b600082821c905092915050565b6000611ce260001984600802611cc4565b1980831691505092915050565b6000611cfb8383611cd1565b9150826002028217905092915050565b611d14826114df565b67ffffffffffffffff811115611d2d57611d2c611ad0565b5b611d378254611b2e565b611d42828285611c7e565b600060209050601f831160018114611d755760008415611d63578287015190505b611d6d8582611cef565b865550611dd5565b601f198416611d8386611b5f565b60005b82811015611dab57848901518255600182019150602085019450602081019050611d86565b86831015611dc85784890151611dc4601f891682611cd1565b8355505b6001600288020188555050505b505050505050565b6000611de882611374565b9150611df383611374565b9250828203905081811115611e0b57611e0a611930565b5b9291505056fea26469706673582212204cfde5797c9bb002bfe2c2884840ce04e168b30f1666b797cae4a3cb325734e764736f6c63430008130033",
  "immutableReferences": {},
  "source": "// SPDX-License-Identifier: MIT\npragma solidity >=0.4.22 <0.9.0;\n\ncontract Battleship {\n  //struct for the Game\n  struct Game {\n        address first;\n        address second;\n        uint amount;\n        address amountRequester;//used to don't allow a user to commit an amount and accept it all by himself.\n        uint tempAmount;\n        string merkle_first;\n        string merkle_second;\n  }\n  //event to send when game starts\n  event GameStarted(address indexed _first,address indexed _second, uint indexed _gameId);\n  //event to declare the amount of money the game will have, it is used during the decision of how much money to spend in the game\n  event AmountToSpend(uint indexed _gameId,uint _amount);\n  //event for the amount that the game will have\n  event AmountDecided(uint indexed _gameId,uint _amount);\n  //event for outputting an uint value\n  event UintOutput(address indexed _from,uint _value);\n\n  //Array of games\n  Game[] public listOfGames;\n  //variable to keep the number of open games.\n  uint public openGames = 0;\n  constructor() {\n  }\n\n  function CreateGame() public{ //Game Creation, creates a game with only the first player saved.\n    listOfGames.push(Game(msg.sender,address(0),0,address(0),0,\"\",\"\"));\n    openGames++;\n    emit UintOutput(msg.sender,listOfGames.length - 1); \n  }\n  function JoinGame(bool _isRand,uint _gameIndex) public{//Join a game.\n    if(openGames <= 0) revert(\"No open games\");\n    \n    bool found = false;\n    uint returnIndex = 0;\n    if(!_isRand) { //can be joined specifically by passing a game id.\n      require(_gameIndex < listOfGames.length);\n      returnIndex = _gameIndex;\n      if(listOfGames[returnIndex].first == msg.sender) revert(\"User can't access his own game!\");\n      if(listOfGames[returnIndex].second != address(0)) revert(\"Game is not Free\");\n      listOfGames[(returnIndex)].second = msg.sender;\n      openGames--;\n      found = true;\n    }\n    //can be joined randomly, the contract will find a random game from the open ones.\n\n    if(_isRand && !found){\n      bytes32 rand = randGenerator();\n      uint index = uint(rand) % openGames + 1;\n      for(uint i = 0; i < listOfGames.length; i++){\n        if(listOfGames[i].second == address(0) && index > 1) index--;\n        else if (listOfGames[i].second == address(0) && index == 1) {\n          listOfGames[i].second = msg.sender;\n          returnIndex = i;\n          openGames--;\n          found = true;\n          break;\n        }\n      }\n    }\n\n    if(found) emit GameStarted(listOfGames[returnIndex].first,listOfGames[returnIndex].second,returnIndex);\n      \n    if(!found) revert(\"Not able to find an open game\");\n  }\n\n  function AmountCommit(uint _gameId,uint _amount) public{\n    require(_amount > 0 && _gameId < listOfGames.length && listOfGames[_gameId].first != address(0) && listOfGames[_gameId].second != address(0));\n    require(listOfGames[_gameId].first == msg.sender || listOfGames[_gameId].second == msg.sender);\n    if(listOfGames[_gameId].amount != 0) revert(\"The amount for this game has already been decided\");\n    listOfGames[_gameId].tempAmount = _amount;\n    listOfGames[_gameId].amountRequester = msg.sender;\n    emit AmountToSpend(_gameId, _amount);\n  }\n  function AcceptedAmount(uint _gameId) public {\n    bool condition = _gameId < listOfGames.length && listOfGames[_gameId].first != address(0) && listOfGames[_gameId].second != address(0) && (listOfGames[_gameId].first == msg.sender || listOfGames[_gameId].second == msg.sender);\n    require(condition);\n    require(listOfGames[_gameId].amountRequester != address(0) && listOfGames[_gameId].amountRequester != msg.sender);\n    if(listOfGames[_gameId].amount != 0) revert(\"The amount for this game has already been decided!\");\n    if(listOfGames[_gameId].tempAmount == 0) revert(\"The amount for this game wasn't decided yet!\");\n    listOfGames[_gameId].amount = listOfGames[_gameId].tempAmount;\n    emit AmountDecided(_gameId,listOfGames[_gameId].amount);\n  }\n\n  //TO DO START GAME, CONTROLLO CHE AMOUNT  STATO DECISO\n\n\n  function randGenerator() private view returns (bytes32){\n    //Helps with random number generation\n    bytes32 bhash=blockhash(block.number-1);\n    bytes memory bytesArray = new bytes(32);\n    for (uint i; i <32; i++)\n    {bytesArray[i] =bhash[i];}\n    bytes32 rand = keccak256(bytesArray);\n    return rand;\n  }\n\n\n}\n",
  "sourcePath": "C:\\Users\\given\\Desktop\\Appunti\\p2p\\Progetto\\Battleship\\contracts\\Battleship.sol",
  "compiler": {
    "name": "solc",
    "version": "0.8.19+commit.7dd6d404.Emscripten.clang"
  },
  "schemaVersion": "3.4.13",
  "updatedAt": "2023-05-22T09:54:52.100Z",
  "networkType": "ethereum",
  "devdoc": {
    "kind": "dev",
    "methods": {},
    "version": 1
  },
  "userdoc": {
    "kind": "user",
    "methods": {},
    "version": 1
  }
}