{
  "contractName": "Battleship",
  "abi": [
    {
      "inputs": [],
      "stateMutability": "nonpayable",
      "type": "constructor"
    },
    {
      "inputs": [
        {
          "internalType": "string",
          "name": "err",
          "type": "string"
        }
      ],
      "name": "ErrorOut",
      "type": "error"
    },
    {
      "anonymous": false,
      "inputs": [
        {
          "indexed": true,
          "internalType": "uint256",
          "name": "_gameId",
          "type": "uint256"
        },
        {
          "indexed": false,
          "internalType": "uint256",
          "name": "_amount",
          "type": "uint256"
        }
      ],
      "name": "AmountDecided",
      "type": "event"
    },
    {
      "anonymous": false,
      "inputs": [
        {
          "indexed": true,
          "internalType": "uint256",
          "name": "_gameId",
          "type": "uint256"
        },
        {
          "indexed": false,
          "internalType": "uint256",
          "name": "_amount",
          "type": "uint256"
        },
        {
          "indexed": false,
          "internalType": "address",
          "name": "_from",
          "type": "address"
        }
      ],
      "name": "AmountToSpend",
      "type": "event"
    },
    {
      "anonymous": false,
      "inputs": [
        {
          "indexed": true,
          "internalType": "uint256",
          "name": "_gameId",
          "type": "uint256"
        },
        {
          "indexed": false,
          "internalType": "address",
          "name": "_attacker",
          "type": "address"
        },
        {
          "indexed": false,
          "internalType": "address",
          "name": "_opponent",
          "type": "address"
        },
        {
          "indexed": false,
          "internalType": "uint256",
          "name": "_row",
          "type": "uint256"
        },
        {
          "indexed": false,
          "internalType": "uint256",
          "name": "_col",
          "type": "uint256"
        }
      ],
      "name": "AttackOpp",
      "type": "event"
    },
    {
      "anonymous": false,
      "inputs": [
        {
          "indexed": false,
          "internalType": "uint256",
          "name": "_result",
          "type": "uint256"
        }
      ],
      "name": "AttackRes",
      "type": "event"
    },
    {
      "anonymous": false,
      "inputs": [
        {
          "indexed": true,
          "internalType": "address",
          "name": "_first",
          "type": "address"
        },
        {
          "indexed": true,
          "internalType": "address",
          "name": "_second",
          "type": "address"
        },
        {
          "indexed": false,
          "internalType": "uint256",
          "name": "_amountTemp",
          "type": "uint256"
        },
        {
          "indexed": true,
          "internalType": "uint256",
          "name": "_gameId",
          "type": "uint256"
        },
        {
          "indexed": false,
          "internalType": "uint256",
          "name": "_boardDim",
          "type": "uint256"
        },
        {
          "indexed": false,
          "internalType": "uint256",
          "name": "_numberOfShips",
          "type": "uint256"
        }
      ],
      "name": "GameCreated",
      "type": "event"
    },
    {
      "anonymous": false,
      "inputs": [
        {
          "indexed": true,
          "internalType": "address",
          "name": "_first",
          "type": "address"
        },
        {
          "indexed": true,
          "internalType": "address",
          "name": "_second",
          "type": "address"
        }
      ],
      "name": "GameStarted",
      "type": "event"
    },
    {
      "anonymous": false,
      "inputs": [
        {
          "indexed": true,
          "internalType": "address",
          "name": "_from",
          "type": "address"
        },
        {
          "indexed": false,
          "internalType": "uint256",
          "name": "_value",
          "type": "uint256"
        }
      ],
      "name": "UintOutput",
      "type": "event"
    },
    {
      "inputs": [
        {
          "internalType": "uint256",
          "name": "",
          "type": "uint256"
        }
      ],
      "name": "listOfGames",
      "outputs": [
        {
          "internalType": "address",
          "name": "first",
          "type": "address"
        },
        {
          "internalType": "address",
          "name": "second",
          "type": "address"
        },
        {
          "internalType": "uint256",
          "name": "boardDim",
          "type": "uint256"
        },
        {
          "internalType": "uint256",
          "name": "amount",
          "type": "uint256"
        },
        {
          "internalType": "address",
          "name": "amountRequester",
          "type": "address"
        },
        {
          "internalType": "uint256",
          "name": "tempAmount",
          "type": "uint256"
        },
        {
          "internalType": "string",
          "name": "merkleFirst",
          "type": "string"
        },
        {
          "internalType": "string",
          "name": "merkleSecond",
          "type": "string"
        },
        {
          "internalType": "uint256",
          "name": "ethFirst",
          "type": "uint256"
        },
        {
          "internalType": "uint256",
          "name": "ethSecond",
          "type": "uint256"
        },
        {
          "internalType": "uint256",
          "name": "firstNumShips",
          "type": "uint256"
        },
        {
          "internalType": "uint256",
          "name": "secondNumShips",
          "type": "uint256"
        }
      ],
      "stateMutability": "view",
      "type": "function",
      "constant": true
    },
    {
      "inputs": [],
      "name": "openGames",
      "outputs": [
        {
          "internalType": "uint256",
          "name": "",
          "type": "uint256"
        }
      ],
      "stateMutability": "view",
      "type": "function",
      "constant": true
    },
    {
      "inputs": [
        {
          "internalType": "uint256",
          "name": "_boardDim",
          "type": "uint256"
        },
        {
          "internalType": "uint256",
          "name": "_numberOfShips",
          "type": "uint256"
        }
      ],
      "name": "CreateGame",
      "outputs": [],
      "stateMutability": "nonpayable",
      "type": "function"
    },
    {
      "inputs": [
        {
          "internalType": "bool",
          "name": "_isRand",
          "type": "bool"
        },
        {
          "internalType": "uint256",
          "name": "_gameIndex",
          "type": "uint256"
        }
      ],
      "name": "JoinGame",
      "outputs": [],
      "stateMutability": "nonpayable",
      "type": "function"
    },
    {
      "inputs": [
        {
          "internalType": "uint256",
          "name": "_gameId",
          "type": "uint256"
        },
        {
          "internalType": "uint256",
          "name": "_amount",
          "type": "uint256"
        }
      ],
      "name": "AmountCommit",
      "outputs": [],
      "stateMutability": "nonpayable",
      "type": "function"
    },
    {
      "inputs": [
        {
          "internalType": "uint256",
          "name": "_gameId",
          "type": "uint256"
        }
      ],
      "name": "AcceptedAmount",
      "outputs": [],
      "stateMutability": "nonpayable",
      "type": "function"
    },
    {
      "inputs": [
        {
          "internalType": "uint256",
          "name": "_gameId",
          "type": "uint256"
        }
      ],
      "name": "SendEther",
      "outputs": [],
      "stateMutability": "payable",
      "type": "function",
      "payable": true
    },
    {
      "inputs": [
        {
          "internalType": "uint256",
          "name": "_gameId",
          "type": "uint256"
        },
        {
          "internalType": "uint256",
          "name": "_row",
          "type": "uint256"
        },
        {
          "internalType": "uint256",
          "name": "_col",
          "type": "uint256"
        }
      ],
      "name": "AttackOpponent",
      "outputs": [],
      "stateMutability": "nonpayable",
      "type": "function"
    },
    {
      "inputs": [
        {
          "internalType": "uint256",
          "name": "_gameId",
          "type": "uint256"
        },
        {
          "internalType": "string",
          "name": "_attackRes",
          "type": "string"
        },
        {
          "internalType": "bytes32",
          "name": "_attackHash",
          "type": "bytes32"
        },
        {
          "internalType": "bytes32[]",
          "name": "merkleProof",
          "type": "bytes32[]"
        }
      ],
      "name": "MerkleProofAttack",
      "outputs": [
        {
          "internalType": "bytes32",
          "name": "",
          "type": "bytes32"
        }
      ],
      "stateMutability": "nonpayable",
      "type": "function"
    },
    {
      "inputs": [
        {
          "internalType": "string",
          "name": "str1",
          "type": "string"
        },
        {
          "internalType": "string",
          "name": "str2",
          "type": "string"
        }
      ],
      "name": "compare",
      "outputs": [
        {
          "internalType": "bool",
          "name": "",
          "type": "bool"
        }
      ],
      "stateMutability": "pure",
      "type": "function",
      "constant": true
    },
    {
      "inputs": [
        {
          "internalType": "uint256",
          "name": "_gameId",
          "type": "uint256"
        }
      ],
      "name": "getList",
      "outputs": [
        {
          "components": [
            {
              "internalType": "address",
              "name": "first",
              "type": "address"
            },
            {
              "internalType": "address",
              "name": "second",
              "type": "address"
            },
            {
              "internalType": "uint256",
              "name": "boardDim",
              "type": "uint256"
            },
            {
              "internalType": "uint256",
              "name": "amount",
              "type": "uint256"
            },
            {
              "internalType": "address",
              "name": "amountRequester",
              "type": "address"
            },
            {
              "internalType": "uint256",
              "name": "tempAmount",
              "type": "uint256"
            },
            {
              "internalType": "string",
              "name": "merkleFirst",
              "type": "string"
            },
            {
              "internalType": "string",
              "name": "merkleSecond",
              "type": "string"
            },
            {
              "internalType": "uint256",
              "name": "ethFirst",
              "type": "uint256"
            },
            {
              "internalType": "uint256",
              "name": "ethSecond",
              "type": "uint256"
            },
            {
              "internalType": "uint256",
              "name": "firstNumShips",
              "type": "uint256"
            },
            {
              "internalType": "uint256",
              "name": "secondNumShips",
              "type": "uint256"
            }
          ],
          "internalType": "struct Battleship.Game",
          "name": "",
          "type": "tuple"
        }
      ],
      "stateMutability": "view",
      "type": "function",
      "constant": true
    },
    {
      "inputs": [
        {
          "internalType": "string",
          "name": "_merkleroot",
          "type": "string"
        },
        {
          "internalType": "uint256",
          "name": "_gameId",
          "type": "uint256"
        }
      ],
      "name": "SendMerkleRoot",
      "outputs": [],
      "stateMutability": "nonpayable",
      "type": "function"
    },
    {
      "inputs": [
        {
          "internalType": "string",
          "name": "inString",
          "type": "string"
        }
      ],
      "name": "checkStringNotEmpty",
      "outputs": [
        {
          "internalType": "bool",
          "name": "",
          "type": "bool"
        }
      ],
      "stateMutability": "pure",
      "type": "function",
      "constant": true
    },
    {
      "inputs": [
        {
          "internalType": "uint256",
          "name": "_gameId",
          "type": "uint256"
        }
      ],
      "name": "LeaveGame",
      "outputs": [],
      "stateMutability": "nonpayable",
      "type": "function"
    }
  ],
  "bytecode": "0x6080604052600060015534801561001557600080fd5b506143ba806100256000396000f3fe6080604052600436106100dc5760003560e01c8063810ff1fd1161007f578063efdb129e11610059578063efdb129e146102aa578063f2415a32146102d3578063f4023d2814610310578063fac196e614610358576100dc565b8063810ff1fd14610228578063925def7114610251578063cd0d37311461026d576100dc565b80633757767b116100bb5780633757767b146101705780633a96fdd7146101995780634dd99ed1146101d657806364f238a9146101ff576100dc565b80628bdd7d146100e15780630247bd751461010a5780631ab5b38314610133575b600080fd5b3480156100ed57600080fd5b5061010860048036038101906101039190612e17565b610383565b005b34801561011657600080fd5b50610131600480360381019061012c9190612e57565b6106eb565b005b34801561013f57600080fd5b5061015a60048036038101906101559190612e57565b6108aa565b604051610167919061306f565b60405180910390f35b34801561017c57600080fd5b50610197600480360381019061019291906131c6565b610b53565b005b3480156101a557600080fd5b506101c060048036038101906101bb9190613222565b6110d8565b6040516101cd91906132b5565b60405180910390f35b3480156101e257600080fd5b506101fd60048036038101906101f89190612e57565b611131565b005b34801561020b57600080fd5b50610226600480360381019061022191906132d0565b61161f565b005b34801561023457600080fd5b5061024f600480360381019061024a919061334f565b6119e7565b005b61026b60048036038101906102669190612e57565b61211e565b005b34801561027957600080fd5b50610294600480360381019061028f919061348d565b612475565b6040516102a1919061353b565b60405180910390f35b3480156102b657600080fd5b506102d160048036038101906102cc9190612e17565b612798565b005b3480156102df57600080fd5b506102fa60048036038101906102f59190613556565b612a43565b60405161030791906132b5565b60405180910390f35b34801561031c57600080fd5b5061033760048036038101906103329190612e57565b612a51565b60405161034f9c9b9a99989796959493929190613607565b60405180910390f35b34801561036457600080fd5b5061036d612c31565b60405161037a91906136cf565b60405180910390f35b600073ffffffffffffffffffffffffffffffffffffffff16600083815481106103af576103ae6136ea565b5b90600052602060002090600c020160000160009054906101000a900473ffffffffffffffffffffffffffffffffffffffff1673ffffffffffffffffffffffffffffffffffffffff1603610437576040517ffa21e39800000000000000000000000000000000000000000000000000000000815260040161042e90613765565b60405180910390fd5b60008111801561044b575060008054905082105b61048a576040517f08c379a0000000000000000000000000000000000000000000000000000000008152600401610481906137f7565b60405180910390fd5b3373ffffffffffffffffffffffffffffffffffffffff16600083815481106104b5576104b46136ea565b5b90600052602060002090600c020160000160009054906101000a900473ffffffffffffffffffffffffffffffffffffffff1673ffffffffffffffffffffffffffffffffffffffff16148061057957503373ffffffffffffffffffffffffffffffffffffffff166000838154811061052f5761052e6136ea565b5b90600052602060002090600c020160010160009054906101000a900473ffffffffffffffffffffffffffffffffffffffff1673ffffffffffffffffffffffffffffffffffffffff16145b6105b8576040517f08c379a00000000000000000000000000000000000000000000000000000000081526004016105af90613889565b60405180910390fd5b60008083815481106105cd576105cc6136ea565b5b90600052602060002090600c0201600301541461061f576040517ffa21e3980000000000000000000000000000000000000000000000000000000081526004016106169061391b565b60405180910390fd5b8060008381548110610634576106336136ea565b5b90600052602060002090600c020160050181905550336000838154811061065e5761065d6136ea565b5b90600052602060002090600c020160040160006101000a81548173ffffffffffffffffffffffffffffffffffffffff021916908373ffffffffffffffffffffffffffffffffffffffff160217905550817f409c1c0e3993d3b6e249eb7b3e4e216febc2b296f8bcfff69abc401c06998e5482336040516106df92919061393b565b60405180910390a25050565b6000805490508110801561076f57503373ffffffffffffffffffffffffffffffffffffffff1660008281548110610725576107246136ea565b5b90600052602060002090600c020160000160009054906101000a900473ffffffffffffffffffffffffffffffffffffffff1673ffffffffffffffffffffffffffffffffffffffff16145b80156107ec5750600073ffffffffffffffffffffffffffffffffffffffff16600082815481106107a2576107a16136ea565b5b90600052602060002090600c020160010160009054906101000a900473ffffffffffffffffffffffffffffffffffffffff1673ffffffffffffffffffffffffffffffffffffffff16145b61082b576040517f08c379a0000000000000000000000000000000000000000000000000000000008152600401610822906139d6565b60405180910390fd5b60008082815481106108405761083f6136ea565b5b90600052602060002090600c020160000160006101000a81548173ffffffffffffffffffffffffffffffffffffffff021916908373ffffffffffffffffffffffffffffffffffffffff160217905550600160008154809291906108a290613a25565b919050555050565b6108b2612d2a565b600082815481106108c6576108c56136ea565b5b90600052602060002090600c0201604051806101800160405290816000820160009054906101000a900473ffffffffffffffffffffffffffffffffffffffff1673ffffffffffffffffffffffffffffffffffffffff1673ffffffffffffffffffffffffffffffffffffffff1681526020016001820160009054906101000a900473ffffffffffffffffffffffffffffffffffffffff1673ffffffffffffffffffffffffffffffffffffffff1673ffffffffffffffffffffffffffffffffffffffff16815260200160028201548152602001600382015481526020016004820160009054906101000a900473ffffffffffffffffffffffffffffffffffffffff1673ffffffffffffffffffffffffffffffffffffffff1673ffffffffffffffffffffffffffffffffffffffff16815260200160058201548152602001600682018054610a1090613a7d565b80601f0160208091040260200160405190810160405280929190818152602001828054610a3c90613a7d565b8015610a895780601f10610a5e57610100808354040283529160200191610a89565b820191906000526020600020905b815481529060010190602001808311610a6c57829003601f168201915b50505050508152602001600782018054610aa290613a7d565b80601f0160208091040260200160405190810160405280929190818152602001828054610ace90613a7d565b8015610b1b5780601f10610af057610100808354040283529160200191610b1b565b820191906000526020600020905b815481529060010190602001808311610afe57829003601f168201915b505050505081526020016008820154815260200160098201548152602001600a8201548152602001600b820154815250509050919050565b6000808054905082108015610bda5750600073ffffffffffffffffffffffffffffffffffffffff1660008381548110610b8f57610b8e6136ea565b5b90600052602060002090600c020160000160009054906101000a900473ffffffffffffffffffffffffffffffffffffffff1673ffffffffffffffffffffffffffffffffffffffff1614155b8015610c585750600073ffffffffffffffffffffffffffffffffffffffff1660008381548110610c0d57610c0c6136ea565b5b90600052602060002090600c020160010160009054906101000a900473ffffffffffffffffffffffffffffffffffffffff1673ffffffffffffffffffffffffffffffffffffffff1614155b8015610d4f57503373ffffffffffffffffffffffffffffffffffffffff1660008381548110610c8a57610c896136ea565b5b90600052602060002090600c020160000160009054906101000a900473ffffffffffffffffffffffffffffffffffffffff1673ffffffffffffffffffffffffffffffffffffffff161480610d4e57503373ffffffffffffffffffffffffffffffffffffffff1660008381548110610d0457610d036136ea565b5b90600052602060002090600c020160010160009054906101000a900473ffffffffffffffffffffffffffffffffffffffff1673ffffffffffffffffffffffffffffffffffffffff16145b5b905080610d91576040517f08c379a0000000000000000000000000000000000000000000000000000000008152600401610d8890613afa565b60405180910390fd5b3373ffffffffffffffffffffffffffffffffffffffff1660008381548110610dbc57610dbb6136ea565b5b90600052602060002090600c020160000160009054906101000a900473ffffffffffffffffffffffffffffffffffffffff1673ffffffffffffffffffffffffffffffffffffffff1603610e41578260008381548110610e1e57610e1d6136ea565b5b90600052602060002090600c02016006019081610e3b9190613cc6565b50610e75565b8260008381548110610e5657610e556136ea565b5b90600052602060002090600c02016007019081610e739190613cc6565b505b610f2b60008381548110610e8c57610e8b6136ea565b5b90600052602060002090600c02016007018054610ea890613a7d565b80601f0160208091040260200160405190810160405280929190818152602001828054610ed490613a7d565b8015610f215780601f10610ef657610100808354040283529160200191610f21565b820191906000526020600020905b815481529060010190602001808311610f0457829003601f168201915b5050505050612a43565b8015610fe95750610fe860008381548110610f4957610f486136ea565b5b90600052602060002090600c02016006018054610f6590613a7d565b80601f0160208091040260200160405190810160405280929190818152602001828054610f9190613a7d565b8015610fde5780601f10610fb357610100808354040283529160200191610fde565b820191906000526020600020905b815481529060010190602001808311610fc157829003601f168201915b5050505050612a43565b5b156110d35760008281548110611002576110016136ea565b5b90600052602060002090600c020160010160009054906101000a900473ffffffffffffffffffffffffffffffffffffffff1673ffffffffffffffffffffffffffffffffffffffff166000838154811061105e5761105d6136ea565b5b90600052602060002090600c020160000160009054906101000a900473ffffffffffffffffffffffffffffffffffffffff1673ffffffffffffffffffffffffffffffffffffffff167f55b25d7f9b5bf8ea934ba7079455d2ba00c68ea7e66c13695275f6b75b95e5f860405160405180910390a35b505050565b6000816040516020016110eb9190613dd4565b60405160208183030381529060405280519060200120836040516020016111129190613dd4565b6040516020818303038152906040528051906020012014905092915050565b60008080549050821080156111b85750600073ffffffffffffffffffffffffffffffffffffffff166000838154811061116d5761116c6136ea565b5b90600052602060002090600c020160000160009054906101000a900473ffffffffffffffffffffffffffffffffffffffff1673ffffffffffffffffffffffffffffffffffffffff1614155b80156112365750600073ffffffffffffffffffffffffffffffffffffffff16600083815481106111eb576111ea6136ea565b5b90600052602060002090600c020160010160009054906101000a900473ffffffffffffffffffffffffffffffffffffffff1673ffffffffffffffffffffffffffffffffffffffff1614155b801561132d57503373ffffffffffffffffffffffffffffffffffffffff1660008381548110611268576112676136ea565b5b90600052602060002090600c020160000160009054906101000a900473ffffffffffffffffffffffffffffffffffffffff1673ffffffffffffffffffffffffffffffffffffffff16148061132c57503373ffffffffffffffffffffffffffffffffffffffff16600083815481106112e2576112e16136ea565b5b90600052602060002090600c020160010160009054906101000a900473ffffffffffffffffffffffffffffffffffffffff1673ffffffffffffffffffffffffffffffffffffffff16145b5b90508061136f576040517f08c379a000000000000000000000000000000000000000000000000000000000815260040161136690613afa565b60405180910390fd5b600073ffffffffffffffffffffffffffffffffffffffff166000838154811061139b5761139a6136ea565b5b90600052602060002090600c020160040160009054906101000a900473ffffffffffffffffffffffffffffffffffffffff1673ffffffffffffffffffffffffffffffffffffffff161415801561146257503373ffffffffffffffffffffffffffffffffffffffff1660008381548110611417576114166136ea565b5b90600052602060002090600c020160040160009054906101000a900473ffffffffffffffffffffffffffffffffffffffff1673ffffffffffffffffffffffffffffffffffffffff1614155b6114a1576040517f08c379a000000000000000000000000000000000000000000000000000000000815260040161149890613afa565b60405180910390fd5b60008083815481106114b6576114b56136ea565b5b90600052602060002090600c02016003015414611508576040517ffa21e3980000000000000000000000000000000000000000000000000000000081526004016114ff90613e5d565b60405180910390fd5b600080838154811061151d5761151c6136ea565b5b90600052602060002090600c0201600501540361156f576040517ffa21e39800000000000000000000000000000000000000000000000000000000815260040161156690613eef565b60405180910390fd5b60008281548110611583576115826136ea565b5b90600052602060002090600c020160050154600083815481106115a9576115a86136ea565b5b90600052602060002090600c020160030181905550817f387ea7507bd65e609b1530432f9974fcb6227f213d6141475c009b49447bd879600084815481106115f4576115f36136ea565b5b90600052602060002090600c02016003015460405161161391906136cf565b60405180910390a25050565b60008080549050841080156116a65750600073ffffffffffffffffffffffffffffffffffffffff166000858154811061165b5761165a6136ea565b5b90600052602060002090600c020160000160009054906101000a900473ffffffffffffffffffffffffffffffffffffffff1673ffffffffffffffffffffffffffffffffffffffff1614155b80156117245750600073ffffffffffffffffffffffffffffffffffffffff16600085815481106116d9576116d86136ea565b5b90600052602060002090600c020160010160009054906101000a900473ffffffffffffffffffffffffffffffffffffffff1673ffffffffffffffffffffffffffffffffffffffff1614155b801561181b57503373ffffffffffffffffffffffffffffffffffffffff1660008581548110611756576117556136ea565b5b90600052602060002090600c020160000160009054906101000a900473ffffffffffffffffffffffffffffffffffffffff1673ffffffffffffffffffffffffffffffffffffffff16148061181a57503373ffffffffffffffffffffffffffffffffffffffff16600085815481106117d0576117cf6136ea565b5b90600052602060002090600c020160010160009054906101000a900473ffffffffffffffffffffffffffffffffffffffff1673ffffffffffffffffffffffffffffffffffffffff16145b5b90508061185d576040517f08c379a000000000000000000000000000000000000000000000000000000000815260040161185490613afa565b60405180910390fd5b3373ffffffffffffffffffffffffffffffffffffffff1660008581548110611888576118876136ea565b5b90600052602060002090600c020160000160009054906101000a900473ffffffffffffffffffffffffffffffffffffffff1673ffffffffffffffffffffffffffffffffffffffff160361195d57837f6c096652adb4aef1dc8abccd5f4fdd2a52d0ba9a42dda148b22cc824e02dc764336000878154811061190c5761190b6136ea565b5b90600052602060002090600c020160010160009054906101000a900473ffffffffffffffffffffffffffffffffffffffff1686866040516119509493929190613f0f565b60405180910390a26119e1565b837f6c096652adb4aef1dc8abccd5f4fdd2a52d0ba9a42dda148b22cc824e02dc7643360008781548110611994576119936136ea565b5b90600052602060002090600c020160000160009054906101000a900473ffffffffffffffffffffffffffffffffffffffff1686866040516119d89493929190613f0f565b60405180910390a25b50505050565b600060015411611a2c576040517ffa21e398000000000000000000000000000000000000000000000000000000008152600401611a2390613fa0565b60405180910390fd5b60008083611c67576000805490508310611a7b576040517f08c379a0000000000000000000000000000000000000000000000000000000008152600401611a7290613afa565b60405180910390fd5b829050600073ffffffffffffffffffffffffffffffffffffffff1660008281548110611aaa57611aa96136ea565b5b90600052602060002090600c020160000160009054906101000a900473ffffffffffffffffffffffffffffffffffffffff1673ffffffffffffffffffffffffffffffffffffffff1603611b32576040517ffa21e398000000000000000000000000000000000000000000000000000000008152600401611b2990614032565b60405180910390fd5b600073ffffffffffffffffffffffffffffffffffffffff1660008281548110611b5e57611b5d6136ea565b5b90600052602060002090600c020160010160009054906101000a900473ffffffffffffffffffffffffffffffffffffffff1673ffffffffffffffffffffffffffffffffffffffff1614611be6576040517ffa21e398000000000000000000000000000000000000000000000000000000008152600401611bdd9061409e565b60405180910390fd5b3360008281548110611bfb57611bfa6136ea565b5b90600052602060002090600c020160010160006101000a81548173ffffffffffffffffffffffffffffffffffffffff021916908373ffffffffffffffffffffffffffffffffffffffff16021790555060016000815480929190611c5d90613a25565b9190505550600191505b838015611c72575081155b15611f6e576000611c81612c37565b90506000600180548360001c611c9791906140ed565b611ca1919061411e565b905060005b600080549050811015611f6a57600073ffffffffffffffffffffffffffffffffffffffff1660008281548110611cdf57611cde6136ea565b5b90600052602060002090600c020160010160009054906101000a900473ffffffffffffffffffffffffffffffffffffffff1673ffffffffffffffffffffffffffffffffffffffff16148015611da65750600073ffffffffffffffffffffffffffffffffffffffff1660008281548110611d5b57611d5a6136ea565b5b90600052602060002090600c020160000160009054906101000a900473ffffffffffffffffffffffffffffffffffffffff1673ffffffffffffffffffffffffffffffffffffffff1614155b8015611db25750600182115b15611dca578180611dc290613a25565b925050611f57565b600073ffffffffffffffffffffffffffffffffffffffff1660008281548110611df657611df56136ea565b5b90600052602060002090600c020160010160009054906101000a900473ffffffffffffffffffffffffffffffffffffffff1673ffffffffffffffffffffffffffffffffffffffff16148015611ebd5750600073ffffffffffffffffffffffffffffffffffffffff1660008281548110611e7257611e716136ea565b5b90600052602060002090600c020160000160009054906101000a900473ffffffffffffffffffffffffffffffffffffffff1673ffffffffffffffffffffffffffffffffffffffff1614155b8015611ec95750600182145b15611f56573360008281548110611ee357611ee26136ea565b5b90600052602060002090600c020160010160006101000a81548173ffffffffffffffffffffffffffffffffffffffff021916908373ffffffffffffffffffffffffffffffffffffffff16021790555080935060016000815480929190611f4890613a25565b919050555060019450611f6a565b5b8080611f6290614152565b915050611ca6565b5050505b81156120d8578060008281548110611f8957611f886136ea565b5b90600052602060002090600c020160010160009054906101000a900473ffffffffffffffffffffffffffffffffffffffff1673ffffffffffffffffffffffffffffffffffffffff1660008381548110611fe557611fe46136ea565b5b90600052602060002090600c020160000160009054906101000a900473ffffffffffffffffffffffffffffffffffffffff1673ffffffffffffffffffffffffffffffffffffffff167f876ac2516429760d6f5b364659f4881cf65156ff3dd68d19b720d7f45d31ebd660008581548110612062576120616136ea565b5b90600052602060002090600c02016005015460008681548110612088576120876136ea565b5b90600052602060002090600c020160020154600087815481106120ae576120ad6136ea565b5b90600052602060002090600c0201600a01546040516120cf9392919061419a565b60405180910390a45b81612118576040517ffa21e39800000000000000000000000000000000000000000000000000000000815260040161210f9061421d565b60405180910390fd5b50505050565b60008080549050821080156121a55750600073ffffffffffffffffffffffffffffffffffffffff166000838154811061215a576121596136ea565b5b90600052602060002090600c020160000160009054906101000a900473ffffffffffffffffffffffffffffffffffffffff1673ffffffffffffffffffffffffffffffffffffffff1614155b80156122235750600073ffffffffffffffffffffffffffffffffffffffff16600083815481106121d8576121d76136ea565b5b90600052602060002090600c020160010160009054906101000a900473ffffffffffffffffffffffffffffffffffffffff1673ffffffffffffffffffffffffffffffffffffffff1614155b801561231a57503373ffffffffffffffffffffffffffffffffffffffff1660008381548110612255576122546136ea565b5b90600052602060002090600c020160000160009054906101000a900473ffffffffffffffffffffffffffffffffffffffff1673ffffffffffffffffffffffffffffffffffffffff16148061231957503373ffffffffffffffffffffffffffffffffffffffff16600083815481106122cf576122ce6136ea565b5b90600052602060002090600c020160010160009054906101000a900473ffffffffffffffffffffffffffffffffffffffff1673ffffffffffffffffffffffffffffffffffffffff16145b5b90508061235c576040517f08c379a000000000000000000000000000000000000000000000000000000000815260040161235390613afa565b60405180910390fd5b6000341161239f576040517f08c379a000000000000000000000000000000000000000000000000000000000815260040161239690614289565b60405180910390fd5b3373ffffffffffffffffffffffffffffffffffffffff16600083815481106123ca576123c96136ea565b5b90600052602060002090600c020160000160009054906101000a900473ffffffffffffffffffffffffffffffffffffffff1673ffffffffffffffffffffffffffffffffffffffff160361244657346000838154811061242c5761242b6136ea565b5b90600052602060002090600c020160080181905550612471565b346000838154811061245b5761245a6136ea565b5b90600052602060002090600c0201600901819055505b5050565b600080600080549050861080156124fe5750600073ffffffffffffffffffffffffffffffffffffffff16600087815481106124b3576124b26136ea565b5b90600052602060002090600c020160000160009054906101000a900473ffffffffffffffffffffffffffffffffffffffff1673ffffffffffffffffffffffffffffffffffffffff1614155b801561257c5750600073ffffffffffffffffffffffffffffffffffffffff1660008781548110612531576125306136ea565b5b90600052602060002090600c020160010160009054906101000a900473ffffffffffffffffffffffffffffffffffffffff1673ffffffffffffffffffffffffffffffffffffffff1614155b801561267357503373ffffffffffffffffffffffffffffffffffffffff16600087815481106125ae576125ad6136ea565b5b90600052602060002090600c020160000160009054906101000a900473ffffffffffffffffffffffffffffffffffffffff1673ffffffffffffffffffffffffffffffffffffffff16148061267257503373ffffffffffffffffffffffffffffffffffffffff1660008781548110612628576126276136ea565b5b90600052602060002090600c020160010160009054906101000a900473ffffffffffffffffffffffffffffffffffffffff1673ffffffffffffffffffffffffffffffffffffffff16145b5b9050806126b5576040517f08c379a00000000000000000000000000000000000000000000000000000000081526004016126ac90613afa565b60405180910390fd5b6000846040516020016126c891906142ca565b60405160208183030381529060405290506060600080600090505b8651811015612788578681815181106126ff576126fe6136ea565b5b602002602001015160405160200161271791906142ca565b6040516020818303038152906040529250838360405160200161273b92919061432c565b60405160208183030381529060405280519060200120915081604051602001612764919061353b565b6040516020818303038152906040529350808061278090614152565b9150506126e3565b5080945050505050949350505050565b60006040518061018001604052803373ffffffffffffffffffffffffffffffffffffffff168152602001600073ffffffffffffffffffffffffffffffffffffffff16815260200184815260200160008152602001600073ffffffffffffffffffffffffffffffffffffffff1681526020016000815260200160405180602001604052806000815250815260200160405180602001604052806000815250815260200160008152602001600081526020018381526020018381525090806001815401808255809150506001900390600052602060002090600c020160009091909190915060008201518160000160006101000a81548173ffffffffffffffffffffffffffffffffffffffff021916908373ffffffffffffffffffffffffffffffffffffffff16021790555060208201518160010160006101000a81548173ffffffffffffffffffffffffffffffffffffffff021916908373ffffffffffffffffffffffffffffffffffffffff160217905550604082015181600201556060820151816003015560808201518160040160006101000a81548173ffffffffffffffffffffffffffffffffffffffff021916908373ffffffffffffffffffffffffffffffffffffffff16021790555060a0820151816005015560c08201518160060190816129839190613cc6565b5060e08201518160070190816129999190613cc6565b506101008201518160080155610120820151816009015561014082015181600a015561016082015181600b01555050600160008154809291906129db90614152565b91905055503373ffffffffffffffffffffffffffffffffffffffff167f98fe6bfadae13408aaa640b94cce01ef446d3cb316585dd37dcfc4ebe23f73296001600080549050612a2a9190614350565b604051612a3791906136cf565b60405180910390a25050565b600080825114159050919050565b60008181548110612a6157600080fd5b90600052602060002090600c02016000915090508060000160009054906101000a900473ffffffffffffffffffffffffffffffffffffffff16908060010160009054906101000a900473ffffffffffffffffffffffffffffffffffffffff16908060020154908060030154908060040160009054906101000a900473ffffffffffffffffffffffffffffffffffffffff1690806005015490806006018054612b0890613a7d565b80601f0160208091040260200160405190810160405280929190818152602001828054612b3490613a7d565b8015612b815780601f10612b5657610100808354040283529160200191612b81565b820191906000526020600020905b815481529060010190602001808311612b6457829003601f168201915b505050505090806007018054612b9690613a7d565b80601f0160208091040260200160405190810160405280929190818152602001828054612bc290613a7d565b8015612c0f5780601f10612be457610100808354040283529160200191612c0f565b820191906000526020600020905b815481529060010190602001808311612bf257829003601f168201915b50505050509080600801549080600901549080600a01549080600b015490508c565b60015481565b600080600143612c479190614350565b4090506000602067ffffffffffffffff811115612c6757612c6661309b565b5b6040519080825280601f01601f191660200182016040528015612c995781602001600182028036833780820191505090505b50905060005b6020811015612d1457828160208110612cbb57612cba6136ea565b5b1a60f81b828281518110612cd257612cd16136ea565b5b60200101907effffffffffffffffffffffffffffffffffffffffffffffffffffffffffffff1916908160001a9053508080612d0c90614152565b915050612c9f565b5060008180519060200120905080935050505090565b604051806101800160405280600073ffffffffffffffffffffffffffffffffffffffff168152602001600073ffffffffffffffffffffffffffffffffffffffff1681526020016000815260200160008152602001600073ffffffffffffffffffffffffffffffffffffffff168152602001600081526020016060815260200160608152602001600081526020016000815260200160008152602001600081525090565b6000604051905090565b600080fd5b600080fd5b6000819050919050565b612df481612de1565b8114612dff57600080fd5b50565b600081359050612e1181612deb565b92915050565b60008060408385031215612e2e57612e2d612dd7565b5b6000612e3c85828601612e02565b9250506020612e4d85828601612e02565b9150509250929050565b600060208284031215612e6d57612e6c612dd7565b5b6000612e7b84828501612e02565b91505092915050565b600073ffffffffffffffffffffffffffffffffffffffff82169050919050565b6000612eaf82612e84565b9050919050565b612ebf81612ea4565b82525050565b612ece81612de1565b82525050565b600081519050919050565b600082825260208201905092915050565b60005b83811015612f0e578082015181840152602081019050612ef3565b60008484015250505050565b6000601f19601f8301169050919050565b6000612f3682612ed4565b612f408185612edf565b9350612f50818560208601612ef0565b612f5981612f1a565b840191505092915050565b600061018083016000830151612f7d6000860182612eb6565b506020830151612f906020860182612eb6565b506040830151612fa36040860182612ec5565b506060830151612fb66060860182612ec5565b506080830151612fc96080860182612eb6565b5060a0830151612fdc60a0860182612ec5565b5060c083015184820360c0860152612ff48282612f2b565b91505060e083015184820360e086015261300e8282612f2b565b915050610100830151613025610100860182612ec5565b5061012083015161303a610120860182612ec5565b5061014083015161304f610140860182612ec5565b50610160830151613064610160860182612ec5565b508091505092915050565b600060208201905081810360008301526130898184612f64565b905092915050565b600080fd5b600080fd5b7f4e487b7100000000000000000000000000000000000000000000000000000000600052604160045260246000fd5b6130d382612f1a565b810181811067ffffffffffffffff821117156130f2576130f161309b565b5b80604052505050565b6000613105612dcd565b905061311182826130ca565b919050565b600067ffffffffffffffff8211156131315761313061309b565b5b61313a82612f1a565b9050602081019050919050565b82818337600083830152505050565b600061316961316484613116565b6130fb565b90508281526020810184848401111561318557613184613096565b5b613190848285613147565b509392505050565b600082601f8301126131ad576131ac613091565b5b81356131bd848260208601613156565b91505092915050565b600080604083850312156131dd576131dc612dd7565b5b600083013567ffffffffffffffff8111156131fb576131fa612ddc565b5b61320785828601613198565b925050602061321885828601612e02565b9150509250929050565b6000806040838503121561323957613238612dd7565b5b600083013567ffffffffffffffff81111561325757613256612ddc565b5b61326385828601613198565b925050602083013567ffffffffffffffff81111561328457613283612ddc565b5b61329085828601613198565b9150509250929050565b60008115159050919050565b6132af8161329a565b82525050565b60006020820190506132ca60008301846132a6565b92915050565b6000806000606084860312156132e9576132e8612dd7565b5b60006132f786828701612e02565b935050602061330886828701612e02565b925050604061331986828701612e02565b9150509250925092565b61332c8161329a565b811461333757600080fd5b50565b60008135905061334981613323565b92915050565b6000806040838503121561336657613365612dd7565b5b60006133748582860161333a565b925050602061338585828601612e02565b9150509250929050565b6000819050919050565b6133a28161338f565b81146133ad57600080fd5b50565b6000813590506133bf81613399565b92915050565b600067ffffffffffffffff8211156133e0576133df61309b565b5b602082029050602081019050919050565b600080fd5b6000613409613404846133c5565b6130fb565b9050808382526020820190506020840283018581111561342c5761342b6133f1565b5b835b81811015613455578061344188826133b0565b84526020840193505060208101905061342e565b5050509392505050565b600082601f83011261347457613473613091565b5b81356134848482602086016133f6565b91505092915050565b600080600080608085870312156134a7576134a6612dd7565b5b60006134b587828801612e02565b945050602085013567ffffffffffffffff8111156134d6576134d5612ddc565b5b6134e287828801613198565b93505060406134f3878288016133b0565b925050606085013567ffffffffffffffff81111561351457613513612ddc565b5b6135208782880161345f565b91505092959194509250565b6135358161338f565b82525050565b6000602082019050613550600083018461352c565b92915050565b60006020828403121561356c5761356b612dd7565b5b600082013567ffffffffffffffff81111561358a57613589612ddc565b5b61359684828501613198565b91505092915050565b6135a881612ea4565b82525050565b6135b781612de1565b82525050565b600082825260208201905092915050565b60006135d982612ed4565b6135e381856135bd565b93506135f3818560208601612ef0565b6135fc81612f1a565b840191505092915050565b60006101808201905061361d600083018f61359f565b61362a602083018e61359f565b613637604083018d6135ae565b613644606083018c6135ae565b613651608083018b61359f565b61365e60a083018a6135ae565b81810360c083015261367081896135ce565b905081810360e083015261368481886135ce565b90506136946101008301876135ae565b6136a26101208301866135ae565b6136b06101408301856135ae565b6136be6101608301846135ae565b9d9c50505050505050505050505050565b60006020820190506136e460008301846135ae565b92915050565b7f4e487b7100000000000000000000000000000000000000000000000000000000600052603260045260246000fd5b7f5468652063726561746f72206964206973206e756c6c00000000000000000000600082015250565b600061374f6016836135bd565b915061375a82613719565b602082019050919050565b6000602082019050818103600083015261377e81613742565b9050919050565b7f54686520616d6f756e74206f72207468652067616d65496420617265206e756c60008201527f6c21000000000000000000000000000000000000000000000000000000000000602082015250565b60006137e16022836135bd565b91506137ec82613785565b604082019050919050565b60006020820190508181036000830152613810816137d4565b9050919050565b7f746869732075736572206973206e6f742070617274206f66207468652067616d60008201527f6521000000000000000000000000000000000000000000000000000000000000602082015250565b60006138736022836135bd565b915061387e82613817565b604082019050919050565b600060208201905081810360008301526138a281613866565b9050919050565b7f54686520616d6f756e7420666f7220746869732067616d652068617320616c7260008201527f65616479206265656e2064656369646564000000000000000000000000000000602082015250565b60006139056031836135bd565b9150613910826138a9565b604082019050919050565b60006020820190508181036000830152613934816138f8565b9050919050565b600060408201905061395060008301856135ae565b61395d602083018461359f565b9392505050565b7f596f752063616e2774206c65617665207468652067616d6520696620796f752760008201527f7265206e6f7420746865206f776e657221000000000000000000000000000000602082015250565b60006139c06031836135bd565b91506139cb82613964565b604082019050919050565b600060208201905081810360008301526139ef816139b3565b9050919050565b7f4e487b7100000000000000000000000000000000000000000000000000000000600052601160045260246000fd5b6000613a3082612de1565b915060008203613a4357613a426139f6565b5b600182039050919050565b7f4e487b7100000000000000000000000000000000000000000000000000000000600052602260045260246000fd5b60006002820490506001821680613a9557607f821691505b602082108103613aa857613aa7613a4e565b5b50919050565b7f536f6d657468696e672077656e742077726f6e67210000000000000000000000600082015250565b6000613ae46015836135bd565b9150613aef82613aae565b602082019050919050565b60006020820190508181036000830152613b1381613ad7565b9050919050565b60008190508160005260206000209050919050565b60006020601f8301049050919050565b600082821b905092915050565b600060088302613b7c7fffffffffffffffffffffffffffffffffffffffffffffffffffffffffffffffff82613b3f565b613b868683613b3f565b95508019841693508086168417925050509392505050565b6000819050919050565b6000613bc3613bbe613bb984612de1565b613b9e565b612de1565b9050919050565b6000819050919050565b613bdd83613ba8565b613bf1613be982613bca565b848454613b4c565b825550505050565b600090565b613c06613bf9565b613c11818484613bd4565b505050565b5b81811015613c3557613c2a600082613bfe565b600181019050613c17565b5050565b601f821115613c7a57613c4b81613b1a565b613c5484613b2f565b81016020851015613c63578190505b613c77613c6f85613b2f565b830182613c16565b50505b505050565b600082821c905092915050565b6000613c9d60001984600802613c7f565b1980831691505092915050565b6000613cb68383613c8c565b9150826002028217905092915050565b613ccf82612ed4565b67ffffffffffffffff811115613ce857613ce761309b565b5b613cf28254613a7d565b613cfd828285613c39565b600060209050601f831160018114613d305760008415613d1e578287015190505b613d288582613caa565b865550613d90565b601f198416613d3e86613b1a565b60005b82811015613d6657848901518255600182019150602085019450602081019050613d41565b86831015613d835784890151613d7f601f891682613c8c565b8355505b6001600288020188555050505b505050505050565b600081905092915050565b6000613dae82612ed4565b613db88185613d98565b9350613dc8818560208601612ef0565b80840191505092915050565b6000613de08284613da3565b915081905092915050565b7f54686520616d6f756e7420666f7220746869732067616d652068617320616c7260008201527f65616479206265656e2064656369646564210000000000000000000000000000602082015250565b6000613e476032836135bd565b9150613e5282613deb565b604082019050919050565b60006020820190508181036000830152613e7681613e3a565b9050919050565b7f54686520616d6f756e7420666f7220746869732067616d65207761736e27742060008201527f6465636964656420796574210000000000000000000000000000000000000000602082015250565b6000613ed9602c836135bd565b9150613ee482613e7d565b604082019050919050565b60006020820190508181036000830152613f0881613ecc565b9050919050565b6000608082019050613f24600083018761359f565b613f31602083018661359f565b613f3e60408301856135ae565b613f4b60608301846135ae565b95945050505050565b7f4e6f206f70656e2067616d657300000000000000000000000000000000000000600082015250565b6000613f8a600d836135bd565b9150613f9582613f54565b602082019050919050565b60006020820190508181036000830152613fb981613f7d565b9050919050565b7f596f752063616e2774206a6f696e20746869732067616d652c2062656361757360008201527f652074686572652773206e6f20706c6179657220686572652100000000000000602082015250565b600061401c6039836135bd565b915061402782613fc0565b604082019050919050565b6000602082019050818103600083015261404b8161400f565b9050919050565b7f47616d65206973206e6f74204672656500000000000000000000000000000000600082015250565b60006140886010836135bd565b915061409382614052565b602082019050919050565b600060208201905081810360008301526140b78161407b565b9050919050565b7f4e487b7100000000000000000000000000000000000000000000000000000000600052601260045260246000fd5b60006140f882612de1565b915061410383612de1565b925082614113576141126140be565b5b828206905092915050565b600061412982612de1565b915061413483612de1565b925082820190508082111561414c5761414b6139f6565b5b92915050565b600061415d82612de1565b91507fffffffffffffffffffffffffffffffffffffffffffffffffffffffffffffffff820361418f5761418e6139f6565b5b600182019050919050565b60006060820190506141af60008301866135ae565b6141bc60208301856135ae565b6141c960408301846135ae565b949350505050565b7f4e6f742061626c6520746f2066696e6420616e206f70656e2067616d65000000600082015250565b6000614207601d836135bd565b9150614212826141d1565b602082019050919050565b60006020820190508181036000830152614236816141fa565b9050919050565b7f4574682061726520302100000000000000000000000000000000000000000000600082015250565b6000614273600a836135bd565b915061427e8261423d565b602082019050919050565b600060208201905081810360008301526142a281614266565b9050919050565b6000819050919050565b6142c46142bf8261338f565b6142a9565b82525050565b60006142d682846142b3565b60208201915081905092915050565b600081519050919050565b600081905092915050565b6000614306826142e5565b61431081856142f0565b9350614320818560208601612ef0565b80840191505092915050565b600061433882856142fb565b915061434482846142fb565b91508190509392505050565b600061435b82612de1565b915061436683612de1565b925082820390508181111561437e5761437d6139f6565b5b9291505056fea264697066735822122008aeb87bb9fdd18a93253ac3df554e3e5edc5312af91deed3ba20bbd15ffd79964736f6c63430008130033",
  "immutableReferences": {},
  "source": "// SPDX-License-Identifier: MIT\npragma solidity >=0.4.22 <0.9.0;\ncontract Battleship {\n  //struct for the Game\n  struct Game {\n        address first;\n        address second;\n        uint boardDim;\n        uint amount;\n        address amountRequester;//used to don't allow a user to commit an amount and accept it all by himself.\n        uint tempAmount;\n        string merkleFirst;\n        string merkleSecond;\n        uint ethFirst;\n        uint ethSecond;\n        uint firstNumShips;\n        uint secondNumShips;\n  }\n  //event to send when game starts\n  event GameCreated(address indexed _first,address indexed _second,uint _amountTemp ,uint indexed _gameId,uint _boardDim,uint _numberOfShips);\n  //event to declare the amount of money the game will have, it is used during the decision of how much money to spend in the game\n  event AmountToSpend(uint indexed _gameId,uint _amount,address _from);\n  //event for the amount that the game will have\n  event AmountDecided(uint indexed _gameId,uint _amount);\n  //event for outputting an uint value\n  event UintOutput(address indexed _from,uint _value);\n  //ErrorOut string\n  error ErrorOut(string err);\n  //The game has officially started.\n  event GameStarted(address indexed _first, address indexed _second);\n  //Attack the opponent\n  event AttackOpp(uint indexed _gameId ,address _attacker, address _opponent, uint _row, uint _col);\n  //event after attack\n  event AttackRes(uint _result);\n\n  //Array of games\n  Game[] public listOfGames;\n  //variable to keep the number of open games.\n  uint public openGames = 0;\n  constructor() {\n  }\n\n  function CreateGame(uint _boardDim,uint _numberOfShips) public{ //Game Creation, creates a game with only the first player saved.\n    listOfGames.push(Game(msg.sender,address(0),_boardDim,0,address(0),0,\"\",\"\",0,0,_numberOfShips,_numberOfShips));\n    openGames++;\n    emit UintOutput(msg.sender,listOfGames.length - 1); \n  }\n  function JoinGame(bool _isRand,uint _gameIndex) public {//Join a game.\n    if(openGames <= 0) revert ErrorOut({err:\"No open games\"});\n    \n    bool found = false;\n    uint returnIndex = 0;\n    if(!_isRand) { //can be joined specifically by passing a game id.\n      require(_gameIndex < listOfGames.length,\"Something went wrong!\");\n      returnIndex = _gameIndex;\n      if(listOfGames[returnIndex].first == address(0)) revert ErrorOut({err:\"You can't join this game, because there's no player here!\"});\n      //if(listOfGames[returnIndex].first == msg.sender) revert(\"User can't access his own game!\");\n      if(listOfGames[returnIndex].second != address(0)) revert ErrorOut({err:\"Game is not Free\"});\n      listOfGames[(returnIndex)].second = msg.sender;\n      openGames--;\n      found = true;\n    }\n    //can be joined randomly, the contract will find a random game from the open ones.\n\n    if(_isRand && !found){\n      bytes32 rand = randGenerator();\n      uint index = uint(rand) % openGames + 1;\n      for(uint i = 0; i < listOfGames.length; i++){\n        if(listOfGames[i].second == address(0) && listOfGames[i].first != address(0) && index > 1) index--;\n        else if (listOfGames[i].second == address(0) && listOfGames[i].first != address(0) && index == 1) {\n          listOfGames[i].second = msg.sender;\n          returnIndex = i;\n          openGames--;\n          found = true;\n          break;\n        }\n      }\n    }\n\n    if(found) emit GameCreated(listOfGames[returnIndex].first,listOfGames[returnIndex].second,listOfGames[returnIndex].tempAmount,returnIndex,listOfGames[returnIndex].boardDim,listOfGames[returnIndex].firstNumShips);\n      \n    if(!found)revert ErrorOut({err:\"Not able to find an open game\"});\n  }\n\n  function AmountCommit(uint _gameId,uint _amount) public{\n    if(listOfGames[_gameId].first == address(0)) revert ErrorOut({err:\"The creator id is null\"});\n    require(_amount > 0 && _gameId < listOfGames.length,\"The amount or the gameId are null!\");\n    require(listOfGames[_gameId].first == msg.sender || listOfGames[_gameId].second == msg.sender,\"this user is not part of the game!\");\n    if(listOfGames[_gameId].amount != 0) revert ErrorOut({err:\"The amount for this game has already been decided\"});\n    listOfGames[_gameId].tempAmount = _amount;\n    listOfGames[_gameId].amountRequester = msg.sender;\n    emit AmountToSpend(_gameId, _amount,msg.sender);\n  }\n  function AcceptedAmount(uint _gameId) public{\n    bool condition = _gameId < listOfGames.length && listOfGames[_gameId].first != address(0) && listOfGames[_gameId].second != address(0) && (listOfGames[_gameId].first == msg.sender || listOfGames[_gameId].second == msg.sender);\n    require(condition,\"Something went wrong!\");\n    require(listOfGames[_gameId].amountRequester != address(0) && listOfGames[_gameId].amountRequester != msg.sender,\"Something went wrong!\");\n    if(listOfGames[_gameId].amount != 0) revert ErrorOut({err:\"The amount for this game has already been decided!\"});\n    if(listOfGames[_gameId].tempAmount == 0) revert ErrorOut({err:\"The amount for this game wasn't decided yet!\"});\n    listOfGames[_gameId].amount = listOfGames[_gameId].tempAmount;\n    emit AmountDecided(_gameId,listOfGames[_gameId].amount);\n  }\n  function SendEther(uint _gameId) public payable {\n    bool condition = _gameId < listOfGames.length && listOfGames[_gameId].first != address(0) && listOfGames[_gameId].second != address(0) && (listOfGames[_gameId].first == msg.sender || listOfGames[_gameId].second == msg.sender);\n    require(condition,\"Something went wrong!\");\n    require(msg.value > 0,\"Eth are 0!\");\n    if(listOfGames[_gameId].first == msg.sender) listOfGames[_gameId].ethFirst = msg.value;\n    else listOfGames[_gameId].ethSecond = msg.value;\n    }\n    function AttackOpponent(uint _gameId, uint _row, uint _col) public {\n    bool condition = _gameId < listOfGames.length && listOfGames[_gameId].first != address(0) && listOfGames[_gameId].second != address(0) && (listOfGames[_gameId].first == msg.sender || listOfGames[_gameId].second == msg.sender);\n    require(condition,\"Something went wrong!\");\n    if(listOfGames[_gameId].first == msg.sender) emit AttackOpp(_gameId,msg.sender,listOfGames[_gameId].second,_row,_col);\n    else emit AttackOpp(_gameId,msg.sender,listOfGames[_gameId].first,_row,_col);\n    }\n\n    function MerkleProofAttack(uint _gameId,string memory _attackRes,bytes32 _attackHash,bytes32[] memory merkleProof) public returns (bytes32) {\n    bool condition = _gameId < listOfGames.length && listOfGames[_gameId].first != address(0) && listOfGames[_gameId].second != address(0) && (listOfGames[_gameId].first == msg.sender || listOfGames[_gameId].second == msg.sender);\n    require(condition,\"Something went wrong!\");\n    bytes memory byteArray = abi.encodePacked(_attackHash);\n    bytes memory byteArraytemp;\n\n    bytes32 temp;\n    for(uint i = 0; i < merkleProof.length; i++){\n        byteArraytemp = abi.encodePacked(merkleProof[i]);\n        temp = keccak256(abi.encodePacked(byteArray,byteArraytemp));\n        byteArray = abi.encode(temp);\n      }\n      return temp;\n   /* if(listOfGames[_gameId].first == msg.sender) {\n      if(compare(string(abi.encode(temp)),listOfGames[_gameId].merkleFirst)) {\n        emit AttackRes(1);\n        if(compare(_attackRes,\"1\")) listOfGames[_gameId].firstNumShips = listOfGames[_gameId].firstNumShips - 1;\n      }\n      else revert(\"Merkle proof failed!\");\n    }\n    else {\n          if(compare(string(abi.encode(temp)),listOfGames[_gameId].merkleSecond)) {\n            emit AttackRes(1);\n            if(compare(_attackRes,\"1\")) listOfGames[_gameId].firstNumShips = listOfGames[_gameId].firstNumShips - 1;\n\n          }\n      else revert(\"Merkle proof failed!\");\n    }*/\n    \n    }\n\n\n\n     function compare(string memory str1, string memory str2) public pure returns (bool) {\n        return keccak256(abi.encodePacked(str1)) == keccak256(abi.encodePacked(str2));\n    }\n\n\n\n    function getList(uint _gameId) public view returns (Game memory){\n      return listOfGames[_gameId];\n    }\n\n  function SendMerkleRoot(string memory _merkleroot, uint _gameId) public{//Done at the start of the game by both players, otherwise the game don't start.\n    bool condition = _gameId < listOfGames.length && listOfGames[_gameId].first != address(0) && listOfGames[_gameId].second != address(0) && (listOfGames[_gameId].first == msg.sender || listOfGames[_gameId].second == msg.sender);\n    require(condition,\"Something went wrong!\");\n    if(listOfGames[_gameId].first == msg.sender) listOfGames[_gameId].merkleFirst = _merkleroot;\n    else listOfGames[_gameId].merkleSecond = _merkleroot;\n    if(checkStringNotEmpty(listOfGames[_gameId].merkleSecond) && checkStringNotEmpty(listOfGames[_gameId].merkleFirst)) emit GameStarted(listOfGames[_gameId].first, listOfGames[_gameId].second);\n  }\n\n   function checkStringNotEmpty(string memory inString) public pure returns (bool) {\n        return bytes(inString).length != 0;\n    }\n\n  function LeaveGame(uint _gameId) public { //you can leave the game only if you are the creator and before the game has started.\n    require(_gameId < listOfGames.length && listOfGames[_gameId].first == msg.sender && listOfGames[_gameId].second == address(0),\"You can't leave the game if you're not the owner!\");\n    listOfGames[_gameId].first = address(0);\n    openGames--;\n  }\n\n\n  //TO DO START GAME, CONTROLLO CHE AMOUNT  STATO DECISO\n\n\n  function randGenerator() private view returns (bytes32){\n    //Helps with random number generation\n    bytes32 bhash=blockhash(block.number-1);\n    bytes memory bytesArray = new bytes(32);\n    for (uint i; i <32; i++)\n    {bytesArray[i] =bhash[i];}\n    bytes32 rand = keccak256(bytesArray);\n    return rand;\n  }\n\n\n}\n",
  "sourcePath": "C:\\Users\\given\\Desktop\\Appunti\\p2p\\Progetto\\Battleship\\contracts\\Battleship.sol",
  "compiler": {
    "name": "solc",
    "version": "0.8.19+commit.7dd6d404.Emscripten.clang"
  },
  "schemaVersion": "3.4.13",
  "updatedAt": "2023-05-27T07:35:54.526Z",
  "networkType": "ethereum",
  "devdoc": {
    "kind": "dev",
    "methods": {},
    "version": 1
  },
  "userdoc": {
    "kind": "user",
    "methods": {},
    "version": 1
  }
}