{
  "contractName": "Battleship",
  "abi": [
    {
      "inputs": [],
      "stateMutability": "nonpayable",
      "type": "constructor"
    },
    {
      "inputs": [
        {
          "internalType": "string",
          "name": "err",
          "type": "string"
        }
      ],
      "name": "ErrorOut",
      "type": "error"
    },
    {
      "anonymous": false,
      "inputs": [
        {
          "indexed": true,
          "internalType": "uint256",
          "name": "_gameId",
          "type": "uint256"
        },
        {
          "indexed": false,
          "internalType": "uint256",
          "name": "_amount",
          "type": "uint256"
        }
      ],
      "name": "AmountDecided",
      "type": "event"
    },
    {
      "anonymous": false,
      "inputs": [
        {
          "indexed": true,
          "internalType": "uint256",
          "name": "_gameId",
          "type": "uint256"
        },
        {
          "indexed": false,
          "internalType": "uint256",
          "name": "_amount",
          "type": "uint256"
        },
        {
          "indexed": false,
          "internalType": "address",
          "name": "_from",
          "type": "address"
        }
      ],
      "name": "AmountToSpend",
      "type": "event"
    },
    {
      "anonymous": false,
      "inputs": [
        {
          "indexed": true,
          "internalType": "uint256",
          "name": "_gameId",
          "type": "uint256"
        },
        {
          "indexed": false,
          "internalType": "address",
          "name": "_attacker",
          "type": "address"
        },
        {
          "indexed": false,
          "internalType": "address",
          "name": "_opponent",
          "type": "address"
        },
        {
          "indexed": false,
          "internalType": "uint256",
          "name": "_row",
          "type": "uint256"
        },
        {
          "indexed": false,
          "internalType": "uint256",
          "name": "_col",
          "type": "uint256"
        }
      ],
      "name": "AttackOpp",
      "type": "event"
    },
    {
      "anonymous": false,
      "inputs": [
        {
          "indexed": false,
          "internalType": "string",
          "name": "_result",
          "type": "string"
        },
        {
          "indexed": false,
          "internalType": "address",
          "name": "_attacker",
          "type": "address"
        },
        {
          "indexed": false,
          "internalType": "uint256",
          "name": "_gameId",
          "type": "uint256"
        }
      ],
      "name": "AttackRes",
      "type": "event"
    },
    {
      "anonymous": false,
      "inputs": [
        {
          "indexed": true,
          "internalType": "address",
          "name": "_first",
          "type": "address"
        },
        {
          "indexed": true,
          "internalType": "address",
          "name": "_second",
          "type": "address"
        },
        {
          "indexed": false,
          "internalType": "uint256",
          "name": "_amountTemp",
          "type": "uint256"
        },
        {
          "indexed": true,
          "internalType": "uint256",
          "name": "_gameId",
          "type": "uint256"
        },
        {
          "indexed": false,
          "internalType": "uint256",
          "name": "_boardDim",
          "type": "uint256"
        },
        {
          "indexed": false,
          "internalType": "uint256",
          "name": "_numberOfShips",
          "type": "uint256"
        }
      ],
      "name": "GameCreated",
      "type": "event"
    },
    {
      "anonymous": false,
      "inputs": [
        {
          "indexed": true,
          "internalType": "uint256",
          "name": "_gameId",
          "type": "uint256"
        },
        {
          "indexed": false,
          "internalType": "address",
          "name": "_winner",
          "type": "address"
        },
        {
          "indexed": false,
          "internalType": "address",
          "name": "_loser",
          "type": "address"
        },
        {
          "indexed": false,
          "internalType": "string",
          "name": "_cause",
          "type": "string"
        }
      ],
      "name": "GameEnd",
      "type": "event"
    },
    {
      "anonymous": false,
      "inputs": [
        {
          "indexed": true,
          "internalType": "address",
          "name": "_first",
          "type": "address"
        },
        {
          "indexed": true,
          "internalType": "address",
          "name": "_second",
          "type": "address"
        }
      ],
      "name": "GameStarted",
      "type": "event"
    },
    {
      "anonymous": false,
      "inputs": [
        {
          "indexed": true,
          "internalType": "address",
          "name": "_from",
          "type": "address"
        },
        {
          "indexed": false,
          "internalType": "uint256",
          "name": "_value",
          "type": "uint256"
        }
      ],
      "name": "UintOutput",
      "type": "event"
    },
    {
      "inputs": [
        {
          "internalType": "uint256",
          "name": "",
          "type": "uint256"
        }
      ],
      "name": "listOfGames",
      "outputs": [
        {
          "internalType": "address",
          "name": "first",
          "type": "address"
        },
        {
          "internalType": "address",
          "name": "second",
          "type": "address"
        },
        {
          "internalType": "uint256",
          "name": "boardDim",
          "type": "uint256"
        },
        {
          "internalType": "uint256",
          "name": "amount",
          "type": "uint256"
        },
        {
          "internalType": "address",
          "name": "amountRequester",
          "type": "address"
        },
        {
          "internalType": "uint256",
          "name": "tempAmount",
          "type": "uint256"
        },
        {
          "internalType": "bytes32",
          "name": "merkleFirst",
          "type": "bytes32"
        },
        {
          "internalType": "bytes32",
          "name": "merkleSecond",
          "type": "bytes32"
        },
        {
          "internalType": "uint256",
          "name": "ethFirst",
          "type": "uint256"
        },
        {
          "internalType": "uint256",
          "name": "ethSecond",
          "type": "uint256"
        },
        {
          "internalType": "uint256",
          "name": "firstNumShips",
          "type": "uint256"
        },
        {
          "internalType": "uint256",
          "name": "secondNumShips",
          "type": "uint256"
        }
      ],
      "stateMutability": "view",
      "type": "function",
      "constant": true
    },
    {
      "inputs": [],
      "name": "openGames",
      "outputs": [
        {
          "internalType": "uint256",
          "name": "",
          "type": "uint256"
        }
      ],
      "stateMutability": "view",
      "type": "function",
      "constant": true
    },
    {
      "inputs": [
        {
          "internalType": "uint256",
          "name": "_boardDim",
          "type": "uint256"
        },
        {
          "internalType": "uint256",
          "name": "_numberOfShips",
          "type": "uint256"
        }
      ],
      "name": "CreateGame",
      "outputs": [],
      "stateMutability": "nonpayable",
      "type": "function"
    },
    {
      "inputs": [
        {
          "internalType": "bool",
          "name": "_isRand",
          "type": "bool"
        },
        {
          "internalType": "uint256",
          "name": "_gameIndex",
          "type": "uint256"
        }
      ],
      "name": "JoinGame",
      "outputs": [],
      "stateMutability": "nonpayable",
      "type": "function"
    },
    {
      "inputs": [
        {
          "internalType": "uint256",
          "name": "_gameId",
          "type": "uint256"
        },
        {
          "internalType": "uint256",
          "name": "_amount",
          "type": "uint256"
        }
      ],
      "name": "AmountCommit",
      "outputs": [],
      "stateMutability": "nonpayable",
      "type": "function"
    },
    {
      "inputs": [
        {
          "internalType": "uint256",
          "name": "_gameId",
          "type": "uint256"
        }
      ],
      "name": "AcceptedAmount",
      "outputs": [],
      "stateMutability": "nonpayable",
      "type": "function"
    },
    {
      "inputs": [
        {
          "internalType": "uint256",
          "name": "_gameId",
          "type": "uint256"
        }
      ],
      "name": "SendEther",
      "outputs": [],
      "stateMutability": "payable",
      "type": "function",
      "payable": true
    },
    {
      "inputs": [
        {
          "internalType": "uint256",
          "name": "_gameId",
          "type": "uint256"
        },
        {
          "internalType": "uint256",
          "name": "_row",
          "type": "uint256"
        },
        {
          "internalType": "uint256",
          "name": "_col",
          "type": "uint256"
        }
      ],
      "name": "AttackOpponent",
      "outputs": [],
      "stateMutability": "nonpayable",
      "type": "function"
    },
    {
      "inputs": [
        {
          "internalType": "uint256",
          "name": "_gameId",
          "type": "uint256"
        },
        {
          "internalType": "string",
          "name": "_attackRes",
          "type": "string"
        },
        {
          "internalType": "bytes32",
          "name": "_attackHash",
          "type": "bytes32"
        },
        {
          "internalType": "bytes32[]",
          "name": "merkleProof",
          "type": "bytes32[]"
        }
      ],
      "name": "MerkleProofAttack",
      "outputs": [],
      "stateMutability": "nonpayable",
      "type": "function"
    },
    {
      "inputs": [
        {
          "internalType": "string",
          "name": "str1",
          "type": "string"
        },
        {
          "internalType": "string",
          "name": "str2",
          "type": "string"
        }
      ],
      "name": "compare",
      "outputs": [
        {
          "internalType": "bool",
          "name": "",
          "type": "bool"
        }
      ],
      "stateMutability": "pure",
      "type": "function",
      "constant": true
    },
    {
      "inputs": [
        {
          "internalType": "uint256",
          "name": "_gameId",
          "type": "uint256"
        }
      ],
      "name": "getList",
      "outputs": [
        {
          "components": [
            {
              "internalType": "address",
              "name": "first",
              "type": "address"
            },
            {
              "internalType": "address",
              "name": "second",
              "type": "address"
            },
            {
              "internalType": "uint256",
              "name": "boardDim",
              "type": "uint256"
            },
            {
              "internalType": "uint256",
              "name": "amount",
              "type": "uint256"
            },
            {
              "internalType": "address",
              "name": "amountRequester",
              "type": "address"
            },
            {
              "internalType": "uint256",
              "name": "tempAmount",
              "type": "uint256"
            },
            {
              "internalType": "bytes32",
              "name": "merkleFirst",
              "type": "bytes32"
            },
            {
              "internalType": "bytes32",
              "name": "merkleSecond",
              "type": "bytes32"
            },
            {
              "internalType": "uint256",
              "name": "ethFirst",
              "type": "uint256"
            },
            {
              "internalType": "uint256",
              "name": "ethSecond",
              "type": "uint256"
            },
            {
              "internalType": "uint256",
              "name": "firstNumShips",
              "type": "uint256"
            },
            {
              "internalType": "uint256",
              "name": "secondNumShips",
              "type": "uint256"
            }
          ],
          "internalType": "struct Battleship.Game",
          "name": "",
          "type": "tuple"
        }
      ],
      "stateMutability": "view",
      "type": "function",
      "constant": true
    },
    {
      "inputs": [
        {
          "internalType": "bytes32",
          "name": "_merkleroot",
          "type": "bytes32"
        },
        {
          "internalType": "uint256",
          "name": "_gameId",
          "type": "uint256"
        }
      ],
      "name": "SendMerkleRoot",
      "outputs": [],
      "stateMutability": "nonpayable",
      "type": "function"
    },
    {
      "inputs": [
        {
          "internalType": "string",
          "name": "inString",
          "type": "string"
        }
      ],
      "name": "checkStringNotEmpty",
      "outputs": [
        {
          "internalType": "bool",
          "name": "",
          "type": "bool"
        }
      ],
      "stateMutability": "pure",
      "type": "function",
      "constant": true
    },
    {
      "inputs": [
        {
          "internalType": "uint256",
          "name": "_gameId",
          "type": "uint256"
        }
      ],
      "name": "LeaveGame",
      "outputs": [],
      "stateMutability": "nonpayable",
      "type": "function"
    }
  ],
  "bytecode": "0x6080806040523461001b576000600155611c1c90816100218239f35b600080fdfe6080604052600436101561001257600080fd5b6000803560e01c80628bdd7d1461166e5780630247bd75146115815780631ab5b383146113e75780633a96fdd71461138c5780634dd99ed11461115b57806364f238a914610fe2578063810ff1fd14610bb0578063925def7114610a87578063cd0d3731146104e9578063efdb129e14610345578063f2415a3214610306578063f4023d2814610249578063fac196e61461022b5763fb205000146100b657600080fd5b346102285760403660031901126102285760043560243590825482108061020c575b806101ed575b806101a8575b6100ed906119f3565b6100f682611980565b50546001600160a01b039190339083160361019557600661011684611980565b5001555b600761012583611980565b50015415158061017f575b610138578280f35b60016101508261014785611980565b50541693611980565b50015416907f55b25d7f9b5bf8ea934ba7079455d2ba00c68ea7e66c13695275f6b75b95e5f88380a338808280f35b50600661018b83611980565b5001541515610130565b60076101a084611980565b50015561011a565b506100ed6101b583611980565b5054336001600160a01b03918216149081156101d4575b5090506100e4565b90506101df84611980565b5060010154163314386101cc565b506101f782611980565b50600101546001600160a01b031615156100de565b5061021682611980565b50546001600160a01b031615156100d8565b80fd5b50346102285780600319360112610228576020600154604051908152f35b5034610228576020366003190112610228576004359080548210156102285761018061027483611980565b5060018060a01b03808254169181600182015416916002820154906003830154906004840154166005840154600685015490600786015492600887015494600988015496600b600a8a0154990154996040519b8c5260208c015260408b015260608a0152608089015260a088015260c087015260e0860152610100850152610120840152610140830152610160820152f35b5034610228576020366003190112610228576004359067ffffffffffffffff821161022857602061033a3660048501611929565b511515604051908152f35b5034610228576103543661189d565b60409291925190610364826118b8565b33825260208201918383526040810194855260608101928484526080820185815260a0830186815260c0840187815260e08501918883526101008601938985526101208701958a87526101408801978989526101608101998a528b54680100000000000000008110156104d557600181018d556103e090611980565b9b909b6104c1578b6002600b9d9e9f60018060a01b0380955116956bffffffffffffffffffffffff60a01b9687855416178455856001850191511687825416179055519101555160038d015560048c019251169082541617905551600589015551600688015551600787015551600886015551600985015551600a8401555191015561046d6001546119ce565b600155805460001981019081116104ad576040519081527f98fe6bfadae13408aaa640b94cce01ef446d3cb316585dd37dcfc4ebe23f732960203392a280f35b634e487b7160e01b82526011600452602482fd5b634e487b7160e01b8d5260048d905260248dfd5b634e487b7160e01b8d52604160045260248dfd5b503461022857608036600319011261022857600435602480359267ffffffffffffffff93848111610a8357610522903690600401611929565b92606435918583116102285736602384011215610228578260040135958611610a705760059186831b936040519460209861055f8a830188611907565b8652868987019183010191368311610a6c5790878a9201905b838210610a5d57505050508154811080610a41575b80610a22575b806109dd575b6105a2906119f3565b6044359482955b85518710156105e3576105dd908988871b88010151186040518a81019182528a81526105d4816118eb565b519020966119ce565b956105a9565b9087896105ef85611980565b50546001600160a01b039490339086160361080f57604051828101918252828152610619816118eb565b51902090600661062887611980565b50015490604051908082019283528152610641816118eb565b51902003610789576106a0907fad935eddb312669e1ca7d5b3712ab4db975dc97d4dc4cb2cb5a997991dd989108585600161067b83611980565b5001541661068f6040519283928684611ad4565b0390a161069a611b16565b90611b71565b610747575b505b600a6106b283611980565b500154156106bf57505080f35b828080808460016106cf88611980565b5001541660036106de88611980565b5001549082821561073e575bf1156107335780600080516020611bc783398151915291600161070c85611980565b500154169061071a84611980565b5054169061072d60405192839283611b33565b0390a280f35b6040513d84823e3d90fd5b506108fc6106ea565b600a61075284611980565b5001546000198101919082116107775750600a61076e84611980565b500155836106a5565b634e487b7160e01b8552601160045284fd5b505081600080516020611bc78339815191528260016107a784611980565b50015416836107b584611980565b505416906107c860405192839283611a44565b0390a2828080808460016107db88611980565b5001541660036107ea88611980565b50015490828215610806575bf16106a7576040513d84823e3d90fd5b506108fc6107f6565b604051828101918252828152610824816118eb565b51902090600761083387611980565b5001549060405190808201928352815261084c816118eb565b5190200361095a57610897907fad935eddb312669e1ca7d5b3712ab4db975dc97d4dc4cb2cb5a997991dd98910858561088482611980565b50541661068f6040519283928684611ad4565b61092a575b505b600b6108a983611980565b500154156108b657505080f35b82808080846108c487611980565b50541660036108d288611980565b50015490828215610921575bf1156107335780600080516020611bc7833981519152916108fe84611980565b50541690600161090d85611980565b500154169061072d60405192839283611b33565b506108fc6108de565b600b61093584611980565b5001546000198101919082116107775750600b61095184611980565b5001558361089c565b505081600080516020611bc78339815191528261097683611980565b50541683600161098585611980565b500154169061099960405192839283611a44565b0390a282808080846109aa87611980565b50541660036109b888611980565b500154908282156109d4575bf161089e576040513d84823e3d90fd5b506108fc6109c4565b506105a26109ea82611980565b5054336001600160a01b0391821614908115610a09575b509050610599565b9050610a1483611980565b506001015416331438610a01565b50610a2c81611980565b50600101546001600160a01b03161515610593565b50610a4b81611980565b50546001600160a01b0316151561058d565b81358152908201908201610578565b8480fd5b634e487b7160e01b815260416004528390fd5b5080fd5b506020366003190112610228576004358154811080610b94575b80610b75575b80610b30575b610ab6906119f3565b3415610afe57610ac581611980565b5054336001600160a01b0390911603610aeb57610ae190611980565b5060083491015580f35b610af490611980565b5060093491015580f35b60405162461bcd60e51b815260206004820152600a6024820152694574682061726520302160b01b6044820152606490fd5b50610ab6610b3d82611980565b5054336001600160a01b0391821614908115610b5c575b509050610aad565b9050610b6783611980565b506001015416331438610b54565b50610b7f81611980565b50600101546001600160a01b03161515610aa7565b50610b9e81611980565b50546001600160a01b03161515610aa1565b50346102285760403660031901126102285760043580159081158103610fde57602491823591600190815415610fa95785938693610e97575b50839080610e8f575b610cd7575b610c4c575b505015610c07575080f35b606490601d60405191631f443c7360e31b8352602060048401528201527f4e6f742061626c6520746f2066696e6420616e206f70656e2067616d650000006044820152fd5b610c5582611980565b50546001600160a01b0390811691610c6c84611980565b50015416907f876ac2516429760d6f5b364659f4881cf65156ff3dd68d19b720d7f45d31ebd660606005610c9f86611980565b5001546002610cad87611980565b500154600a610cbb88611980565b5001549060405192835260208301526040820152a43880610bfc565b506000194301438111610e365740604051610cf1816118eb565b6020918282528282019280368537885b818110610e5c575050505190208154908115610e495706818101809111610e36578180859288925b610d36575b505050610bf7565b9091928854841015610e2d575081610d4d84611980565b5001546001600160a01b039081161580610e18575b80610e0f575b15610d895750610d7a610d8091611a37565b926119ce565b90859281610d29565b8392610d96829395611980565b50015416159081610df9575b5080610df0575b610db757610d8083916119ce565b829450809350610dc79150611980565b500180546001600160a01b031916331790558154610de490611a37565b82558182388281610d2e565b50828214610da9565b9050610e0482611980565b505416151538610da2565b50828211610d68565b5080610e2385611980565b5054161515610d62565b92829150610d2e565b634e487b7160e01b865260116004528486fd5b634e487b7160e01b875260126004528587fd5b8351811015610e7c578083610e77921a8382870101536119ce565b610d01565b634e487b7160e01b8a526032600452888afd5b508015610bf2565b92509250610ea7855483106119f3565b81610eb181611980565b50546001600160a01b0390811615610f3e5782610ecd83611980565b50015416610f0657610edf8291611980565b500180546001600160a01b031916331790558054610efc90611a37565b8155809238610be9565b604051631f443c7360e31b8152602060048201526010818701526f47616d65206973206e6f74204672656560801b6044820152606490fd5b604051631f443c7360e31b8152602060048201526039818801527f596f752063616e2774206a6f696e20746869732067616d652c2062656361757360448201527f652074686572652773206e6f20706c61796572206865726521000000000000006064820152608490fd5b604051631f443c7360e31b815260206004820152600d818701526c4e6f206f70656e2067616d657360981b6044820152606490fd5b8280fd5b5034610228576060366003190112610228576004357f6c096652adb4aef1dc8abccd5f4fdd2a52d0ba9a42dda148b22cc824e02dc764602435604435845484108061113f575b80611120575b806110db575b61103d906119f3565b61104684611980565b50546001600160a01b0390339082160361109c5761072d90600161106987611980565b50015460408051338152929091166001600160a01b03166020830152810193909352606083019190915281906080820190565b61072d906110a986611980565b505460408051338152929091166001600160a01b03166020830152810193909352606083019190915281906080820190565b5061103d6110e885611980565b5054336001600160a01b0391821614908115611107575b509050611034565b905061111286611980565b5060010154163314386110ff565b5061112a84611980565b50600101546001600160a01b0316151561102e565b5061114984611980565b50546001600160a01b03161515611028565b5034610228576020366003190112610228576004358154811080611370575b80611351575b8061130c575b61118f906119f3565b6111ba600461119d83611980565b5001546001600160a01b03908116151590816112f2575b506119f3565b60036111c582611980565b5001546112915760056111d782611980565b500154156112365760056111ea82611980565b50015460036111f883611980565b5001557f387ea7507bd65e609b1530432f9974fcb6227f213d6141475c009b49447bd8796020600361122984611980565b500154604051908152a280f35b604051631f443c7360e31b815260206004820152602c60248201527f54686520616d6f756e7420666f7220746869732067616d65207761736e27742060448201526b64656369646564207965742160a01b6064820152608490fd5b604051631f443c7360e31b815260206004820152603260248201527f54686520616d6f756e7420666f7220746869732067616d652068617320616c7260448201527165616479206265656e20646563696465642160701b6064820152608490fd5b905060046112ff84611980565b50015416331415386111b4565b5061118f61131982611980565b5054336001600160a01b0391821614908115611338575b509050611186565b905061134383611980565b506001015416331438611330565b5061135b81611980565b50600101546001600160a01b03161515611180565b5061137a81611980565b50546001600160a01b0316151561117a565b50346102285760403660031901126102285767ffffffffffffffff600435818111610fde576113bf903690600401611929565b916024359182116102285760206113dd8461069a3660048701611929565b6040519015158152f35b503461022857602036600319011261022857610160604051611408816118b8565b8281528260208201528260408201528260608201528260808201528260a08201528260c08201528260e0820152826101008201528261012082015282610140820152015261018061145a600435611980565b5061016060405161146a816118b8565b600b60018060a01b038454169384835260018060a01b036001820154166020840152600281015460408401526003810154606084015260018060a01b036004820154166080840152600581015460a0840152600681015460c0840152600781015460e084015260088101546101008401526009810154610120840152600a81015461014084015201548282015260405192835260018060a01b036020820151166020840152604081015160408401526060810151606084015260018060a01b03608082015116608084015260a081015160a084015260c081015160c084015260e081015160e08401526101008101516101008401526101208101516101208401526101408101516101408401520151610160820152f35b5034610228576020366003190112610228576004358154811080611652575b80611634575b156115d5576115b490611980565b5080546001600160a01b03191690556001546115cf90611a37565b60015580f35b60405162461bcd60e51b815260206004820152603160248201527f596f752063616e2774206c65617665207468652067616d6520696620796f75276044820152707265206e6f7420746865206f776e65722160781b6064820152608490fd5b5061163e81611980565b50600101546001600160a01b0316156115a6565b5061165c81611980565b50546001600160a01b031633146115a0565b50346102285761167d3661189d565b61168682611980565b50546001600160a01b039081161561185e5781151580611854575b1561180457806116b084611980565b50541633149081156117eb575b501561179b5760036116ce83611980565b50015461173b576040817f409c1c0e3993d3b6e249eb7b3e4e216febc2b296f8bcfff69abc401c06998e5492600561170586611980565b500155600461171385611980565b5001336bffffffffffffffffffffffff60a01b8254161790558151908152336020820152a280f35b604051631f443c7360e31b815260206004820152603160248201527f54686520616d6f756e7420666f7220746869732067616d652068617320616c726044820152701958591e481899595b88191958da591959607a1b6064820152608490fd5b60405162461bcd60e51b815260206004820152602260248201527f746869732075736572206973206e6f742070617274206f66207468652067616d604482015261652160f01b6064820152608490fd5b90506117f683611980565b5060010154163314386116bd565b60405162461bcd60e51b815260206004820152602260248201527f54686520616d6f756e74206f72207468652067616d65496420617265206e756c6044820152616c2160f01b6064820152608490fd5b50835483106116a1565b604051631f443c7360e31b8152602060048201526016602482015275151a194818dc99585d1bdc881a59081a5cc81b9d5b1b60521b6044820152606490fd5b60409060031901126118b3576004359060243590565b600080fd5b610180810190811067ffffffffffffffff8211176118d557604052565b634e487b7160e01b600052604160045260246000fd5b6040810190811067ffffffffffffffff8211176118d557604052565b90601f8019910116810190811067ffffffffffffffff8211176118d557604052565b81601f820112156118b35780359067ffffffffffffffff82116118d5576040519261195e601f8401601f191660200185611907565b828452602083830101116118b357816000926020809301838601378301015290565b9060009182548110156119ba57600c90838052027f290decd9548b62a8d60345a988386fc84ba6bc95484008f6362f93160ef3e563019190565b634e487b7160e01b83526032600452602483fd5b60001981146119dd5760010190565b634e487b7160e01b600052601160045260246000fd5b156119fa57565b60405162461bcd60e51b8152602060048201526015602482015274536f6d657468696e672077656e742077726f6e672160581b6044820152606490fd5b80156119dd576000190190565b6001600160a01b039182168152911660208201526060604082018190526035908201527f436865617465722064657465637465642c20746865206574682077696c6c2062608082015274652073656e7420746f207468652077696e6e65722160581b60a082015260c00190565b60005b838110611ac45750506000910152565b8181015183820152602001611ab4565b60806040929594939560608352611afa8151809281606087015260208587019101611ab1565b601f80199101168201019460018060a01b031660208201520152565b60405190611b23826118eb565b60018252603160f81b6020830152565b6001600160a01b03918216815291166020820152606060408201819052600c908201526b456e64204f662047616d652160a01b608082015260a00190565b9060405191602092611b9f848281611b928183019687815193849201611ab1565b8101038084520182611907565b51902091611bbf604051918281611b928183019687815193849201611ab1565b519020149056fed5562679467aef873d023ef06602fe4cb4a987be45e933b3255bbc7d6225ffb0a2646970667358221220e9547b092105677abbae11c00ee68239cb2d52a19bc97c7c2f740690340f034164736f6c63430008130033",
  "immutableReferences": {},
  "source": "// SPDX-License-Identifier: MIT\npragma solidity >=0.4.22 <0.9.0;\ncontract Battleship {\n  //struct for the Game\n  struct Game {\n        address first;\n        address second;\n        uint boardDim;\n        uint amount;\n        address amountRequester;//used to don't allow a user to commit an amount and accept it all by himself.\n        uint tempAmount;\n        bytes32 merkleFirst;\n        bytes32 merkleSecond;\n        uint ethFirst;\n        uint ethSecond;\n        uint firstNumShips;\n        uint secondNumShips;\n  }\n\n  //event to send when game starts\n  event GameCreated(address indexed _first,address indexed _second,uint _amountTemp ,uint indexed _gameId,uint _boardDim,uint _numberOfShips);\n  //event to declare the amount of money the game will have, it is used during the decision of how much money to spend in the game\n  event AmountToSpend(uint indexed _gameId,uint _amount,address _from);\n  //event for the amount that the game will have\n  event AmountDecided(uint indexed _gameId,uint _amount);\n  //event for outputting an uint value\n  event UintOutput(address indexed _from,uint _value);\n  //ErrorOut string\n  error ErrorOut(string err);\n  //The game has officially started.\n  event GameStarted(address indexed _first, address indexed _second);\n  //Attack the opponent\n  event AttackOpp(uint indexed _gameId ,address _attacker, address _opponent, uint _row, uint _col);\n  //event after attack\n  event AttackRes(string  _result,address _attacker,uint _gameId);\n  //event game end\n  event GameEnd(uint indexed _gameId,address _winner,address _loser,string _cause);\n  //Array of games\n  Game[] public listOfGames;\n  //variable to keep the number of open games.\n  uint public openGames = 0;\n  constructor() {\n  }\n\n  function CreateGame(uint _boardDim,uint _numberOfShips) public{ //Game Creation, creates a game with only the first player saved.\n    listOfGames.push(Game(msg.sender,address(0),_boardDim,0,address(0),0,0,0,0,0,_numberOfShips,_numberOfShips));\n    openGames++;\n    emit UintOutput(msg.sender,listOfGames.length - 1); \n  }\n  function JoinGame(bool _isRand,uint _gameIndex) public {//Join a game.\n    if(openGames <= 0) revert ErrorOut({err:\"No open games\"});\n    \n    bool found = false;\n    uint returnIndex = 0;\n    if(!_isRand) { //can be joined specifically by passing a game id.\n      require(_gameIndex < listOfGames.length,\"Something went wrong!\");\n      returnIndex = _gameIndex;\n      if(listOfGames[returnIndex].first == address(0)) revert ErrorOut({err:\"You can't join this game, because there's no player here!\"});\n      //if(listOfGames[returnIndex].first == msg.sender) revert(\"User can't access his own game!\");\n      if(listOfGames[returnIndex].second != address(0)) revert ErrorOut({err:\"Game is not Free\"});\n      listOfGames[(returnIndex)].second = msg.sender;\n      openGames--;\n      found = true;\n    }\n    //can be joined randomly, the contract will find a random game from the open ones.\n\n    if(_isRand && !found){\n      bytes32 rand = randGenerator();\n      uint index = uint(rand) % openGames + 1;\n      for(uint i = 0; i < listOfGames.length; i++){\n        if(listOfGames[i].second == address(0) && listOfGames[i].first != address(0) && index > 1) index--;\n        else if (listOfGames[i].second == address(0) && listOfGames[i].first != address(0) && index == 1) {\n          listOfGames[i].second = msg.sender;\n          returnIndex = i;\n          openGames--;\n          found = true;\n          break;\n        }\n      }\n    }\n\n    if(found) emit GameCreated(listOfGames[returnIndex].first,listOfGames[returnIndex].second,listOfGames[returnIndex].tempAmount,returnIndex,listOfGames[returnIndex].boardDim,listOfGames[returnIndex].firstNumShips);\n      \n    if(!found)revert ErrorOut({err:\"Not able to find an open game\"});\n  }\n\n  function AmountCommit(uint _gameId,uint _amount) public{\n    if(listOfGames[_gameId].first == address(0)) revert ErrorOut({err:\"The creator id is null\"});\n    require(_amount > 0 && _gameId < listOfGames.length,\"The amount or the gameId are null!\");\n    require(listOfGames[_gameId].first == msg.sender || listOfGames[_gameId].second == msg.sender,\"this user is not part of the game!\");\n    if(listOfGames[_gameId].amount != 0) revert ErrorOut({err:\"The amount for this game has already been decided\"});\n    listOfGames[_gameId].tempAmount = _amount;\n    listOfGames[_gameId].amountRequester = msg.sender;\n    emit AmountToSpend(_gameId, _amount,msg.sender);\n  }\n  function AcceptedAmount(uint _gameId) public{\n    bool condition = _gameId < listOfGames.length && listOfGames[_gameId].first != address(0) && listOfGames[_gameId].second != address(0) && (listOfGames[_gameId].first == msg.sender || listOfGames[_gameId].second == msg.sender);\n    require(condition,\"Something went wrong!\");\n    require(listOfGames[_gameId].amountRequester != address(0) && listOfGames[_gameId].amountRequester != msg.sender,\"Something went wrong!\");\n    if(listOfGames[_gameId].amount != 0) revert ErrorOut({err:\"The amount for this game has already been decided!\"});\n    if(listOfGames[_gameId].tempAmount == 0) revert ErrorOut({err:\"The amount for this game wasn't decided yet!\"});\n    listOfGames[_gameId].amount = listOfGames[_gameId].tempAmount;\n    emit AmountDecided(_gameId,listOfGames[_gameId].amount);\n  }\n  function SendEther(uint _gameId) public payable {\n    bool condition = _gameId < listOfGames.length && listOfGames[_gameId].first != address(0) && listOfGames[_gameId].second != address(0) && (listOfGames[_gameId].first == msg.sender || listOfGames[_gameId].second == msg.sender);\n    require(condition,\"Something went wrong!\");\n    require(msg.value > 0,\"Eth are 0!\");\n    if(listOfGames[_gameId].first == msg.sender) listOfGames[_gameId].ethFirst = msg.value;\n    else listOfGames[_gameId].ethSecond = msg.value;\n    }\n    function AttackOpponent(uint _gameId, uint _row, uint _col) public {\n    bool condition = _gameId < listOfGames.length && listOfGames[_gameId].first != address(0) && listOfGames[_gameId].second != address(0) && (listOfGames[_gameId].first == msg.sender || listOfGames[_gameId].second == msg.sender);\n    require(condition,\"Something went wrong!\");\n    if(listOfGames[_gameId].first == msg.sender) emit AttackOpp(_gameId,msg.sender,listOfGames[_gameId].second,_row,_col);\n    else emit AttackOpp(_gameId,msg.sender,listOfGames[_gameId].first,_row,_col);\n    }\n\n\n\n    function MerkleProofAttack(uint _gameId,string memory _attackRes,bytes32 _attackHash,bytes32[] memory merkleProof) public{\n    bool condition = _gameId < listOfGames.length && listOfGames[_gameId].first != address(0) && listOfGames[_gameId].second != address(0) && (listOfGames[_gameId].first == msg.sender || listOfGames[_gameId].second == msg.sender);\n    require(condition,\"Something went wrong!\");\n    bytes memory byteArraytemp;\n\n    bytes32 temp = _attackHash;\n    for(uint i = 0; i < merkleProof.length; i++){\n        byteArraytemp = abi.encodePacked(merkleProof[i] ^ temp);\n        temp = keccak256(byteArraytemp);\n      }\n      \n    if(listOfGames[_gameId].first == msg.sender) {\n      bytes32 temp1_el = keccak256(abi.encodePacked(temp));\n      bytes32 temp2_el = keccak256(abi.encodePacked(listOfGames[_gameId].merkleFirst));\n      if(temp1_el == temp2_el ) {\n        emit AttackRes(_attackRes,listOfGames[_gameId].second,_gameId);\n        if(compare(_attackRes,\"1\")) listOfGames[_gameId].firstNumShips = listOfGames[_gameId].firstNumShips - 1;\n      }\n      else {\n        emit GameEnd(_gameId,listOfGames[_gameId].second,listOfGames[_gameId].first,\"Cheater detected, the eth will be sent to the winner!\");\n        payable(listOfGames[_gameId].second).transfer(listOfGames[_gameId].amount);\n      }\n      if(listOfGames[_gameId].firstNumShips <= 0) {payable(listOfGames[_gameId].second).transfer(listOfGames[_gameId].amount);\n      emit GameEnd(_gameId,listOfGames[_gameId].second,listOfGames[_gameId].first,\"End Of Game!\");\n      }\n    }\n    else {\n          bytes32 temp1_el = keccak256(abi.encodePacked(temp));\n          bytes32 temp2_el = keccak256(abi.encodePacked(listOfGames[_gameId].merkleSecond));\n\n          if(temp1_el == temp2_el) {\n            emit AttackRes(_attackRes,listOfGames[_gameId].first,_gameId);\n            if(compare(_attackRes,\"1\")) listOfGames[_gameId].secondNumShips = listOfGames[_gameId].secondNumShips - 1;\n\n          }\n      else {\n        emit GameEnd(_gameId,listOfGames[_gameId].first,listOfGames[_gameId].second,\"Cheater detected, the eth will be sent to the winner!\");\n        payable(listOfGames[_gameId].first).transfer(listOfGames[_gameId].amount);\n      }\n      if(listOfGames[_gameId].secondNumShips <= 0) {payable(listOfGames[_gameId].first).transfer(listOfGames[_gameId].amount);\n      emit GameEnd(_gameId,listOfGames[_gameId].first,listOfGames[_gameId].second,\"End Of Game!\");\n      }\n    }\n    \n    }\n\n\n\n     function compare(string memory str1, string memory str2) public pure returns (bool) {\n        return keccak256(abi.encodePacked(str1)) == keccak256(abi.encodePacked(str2));\n    }\n\n\n\n    function getList(uint _gameId) public view returns (Game memory){\n      return listOfGames[_gameId];\n    }\n\n  function SendMerkleRoot(bytes32 _merkleroot, uint _gameId) public{//Done at the start of the game by both players, otherwise the game don't start.\n    bool condition = _gameId < listOfGames.length && listOfGames[_gameId].first != address(0) && listOfGames[_gameId].second != address(0) && (listOfGames[_gameId].first == msg.sender || listOfGames[_gameId].second == msg.sender);\n    require(condition,\"Something went wrong!\");\n    if(listOfGames[_gameId].first == msg.sender) listOfGames[_gameId].merkleFirst = _merkleroot;\n    else listOfGames[_gameId].merkleSecond = _merkleroot;\n    if(listOfGames[_gameId].merkleSecond != 0 && listOfGames[_gameId].merkleFirst != 0) emit GameStarted(listOfGames[_gameId].first, listOfGames[_gameId].second);\n  }\n\n   function checkStringNotEmpty(string memory inString) public pure returns (bool) {\n        return bytes(inString).length != 0;\n    }\n\n  function LeaveGame(uint _gameId) public { //you can leave the game only if you are the creator and before the game has started.\n    require(_gameId < listOfGames.length && listOfGames[_gameId].first == msg.sender && listOfGames[_gameId].second == address(0),\"You can't leave the game if you're not the owner!\");\n    listOfGames[_gameId].first = address(0);\n    openGames--;\n  }\n\n\n  //TO DO START GAME, CONTROLLO CHE AMOUNT  STATO DECISO\n\n\n  function randGenerator() private view returns (bytes32){\n    //Helps with random number generation\n    bytes32 bhash=blockhash(block.number-1);\n    bytes memory bytesArray = new bytes(32);\n    for (uint i; i <32; i++)\n    {bytesArray[i] =bhash[i];}\n    bytes32 rand = keccak256(bytesArray);\n    return rand;\n  }\n\n\n}\n",
  "sourcePath": "C:\\Users\\given\\Desktop\\Appunti\\p2p\\Progetto\\Battleship\\contracts\\Battleship.sol",
  "compiler": {
    "name": "solc",
    "version": "0.8.19+commit.7dd6d404.Emscripten.clang"
  },
  "schemaVersion": "3.4.13",
  "updatedAt": "2023-05-29T14:23:06.901Z",
  "networkType": "ethereum",
  "devdoc": {
    "kind": "dev",
    "methods": {},
    "version": 1
  },
  "userdoc": {
    "kind": "user",
    "methods": {},
    "version": 1
  }
}